{
  "contractName": "HorseRacing",
  "abi": [
    {
      "inputs": [],
      "stateMutability": "nonpayable",
      "type": "constructor"
    },
    {
      "anonymous": false,
      "inputs": [
        {
          "indexed": false,
          "internalType": "address",
          "name": "buyer",
          "type": "address"
        },
        {
          "indexed": false,
          "internalType": "uint256",
          "name": "amountOfETH",
          "type": "uint256"
        },
        {
          "indexed": false,
          "internalType": "uint256",
          "name": "amountOfTokens",
          "type": "uint256"
        }
      ],
      "name": "BuyTokens",
      "type": "event"
    },
    {
      "anonymous": false,
      "inputs": [
        {
          "indexed": false,
          "internalType": "uint256",
          "name": "horseId",
          "type": "uint256"
        },
        {
          "indexed": false,
          "internalType": "string",
          "name": "name",
          "type": "string"
        },
        {
          "indexed": false,
          "internalType": "uint256",
          "name": "dna",
          "type": "uint256"
        }
      ],
      "name": "NewHorse",
      "type": "event"
    },
    {
      "anonymous": false,
      "inputs": [
        {
          "indexed": true,
          "internalType": "address",
          "name": "previousOwner",
          "type": "address"
        },
        {
          "indexed": true,
          "internalType": "address",
          "name": "newOwner",
          "type": "address"
        }
      ],
      "name": "OwnershipTransferred",
      "type": "event"
    },
    {
      "anonymous": false,
      "inputs": [
        {
          "indexed": false,
          "internalType": "uint256",
          "name": "_betAmount",
          "type": "uint256"
        },
        {
          "indexed": false,
          "internalType": "uint256",
          "name": "_numberOfParticipants",
          "type": "uint256"
        },
        {
          "indexed": false,
          "internalType": "uint256[4]",
          "name": "_participants",
          "type": "uint256[4]"
        },
        {
          "indexed": false,
          "internalType": "address",
          "name": "_winner",
          "type": "address"
        },
        {
          "indexed": false,
          "internalType": "uint256",
          "name": "_winnerHorseId",
          "type": "uint256"
        }
      ],
      "name": "Race",
      "type": "event"
    },
    {
      "inputs": [
        {
          "internalType": "string",
          "name": "_name",
          "type": "string"
        }
      ],
      "name": "createRandomHorse",
      "outputs": [],
      "stateMutability": "nonpayable",
      "type": "function"
    },
    {
      "inputs": [
        {
          "internalType": "address",
          "name": "_owner",
          "type": "address"
        }
      ],
      "name": "getHorsesByOwner",
      "outputs": [
        {
          "internalType": "uint256[]",
          "name": "",
          "type": "uint256[]"
        }
      ],
      "stateMutability": "view",
      "type": "function",
      "constant": true
    },
    {
      "inputs": [
        {
          "internalType": "uint256",
          "name": "",
          "type": "uint256"
        }
      ],
      "name": "horseToOwner",
      "outputs": [
        {
          "internalType": "address",
          "name": "",
          "type": "address"
        }
      ],
      "stateMutability": "view",
      "type": "function",
      "constant": true
    },
    {
      "inputs": [
        {
          "internalType": "uint256",
          "name": "",
          "type": "uint256"
        }
      ],
      "name": "horses",
      "outputs": [
        {
          "internalType": "string",
          "name": "name",
          "type": "string"
        },
        {
          "internalType": "uint256",
          "name": "dna",
          "type": "uint256"
        },
        {
          "internalType": "uint16",
          "name": "winCount",
          "type": "uint16"
        },
        {
          "internalType": "uint16",
          "name": "lossCount",
          "type": "uint16"
        }
      ],
      "stateMutability": "view",
      "type": "function",
      "constant": true
    },
    {
      "inputs": [],
      "name": "isOwner",
      "outputs": [
        {
          "internalType": "bool",
          "name": "",
          "type": "bool"
        }
      ],
      "stateMutability": "view",
      "type": "function",
      "constant": true
    },
    {
      "inputs": [],
      "name": "owner",
      "outputs": [
        {
          "internalType": "address",
          "name": "",
          "type": "address"
        }
      ],
      "stateMutability": "view",
      "type": "function",
      "constant": true
    },
    {
      "inputs": [],
      "name": "renounceOwnership",
      "outputs": [],
      "stateMutability": "nonpayable",
      "type": "function"
    },
    {
      "inputs": [],
      "name": "tokensPerEth",
      "outputs": [
        {
          "internalType": "uint256",
          "name": "",
          "type": "uint256"
        }
      ],
      "stateMutability": "view",
      "type": "function",
      "constant": true
    },
    {
      "inputs": [
        {
          "internalType": "address",
          "name": "newOwner",
          "type": "address"
        }
      ],
      "name": "transferOwnership",
      "outputs": [],
      "stateMutability": "nonpayable",
      "type": "function"
    },
    {
      "inputs": [
        {
          "internalType": "uint256",
          "name": "_bet",
          "type": "uint256"
        }
      ],
      "name": "setBet",
      "outputs": [],
      "stateMutability": "nonpayable",
      "type": "function"
    },
    {
      "inputs": [
        {
          "internalType": "uint256",
          "name": "_horseId",
          "type": "uint256"
        }
      ],
      "name": "bet",
      "outputs": [],
      "stateMutability": "nonpayable",
      "type": "function"
    },
    {
      "inputs": [],
      "name": "race",
      "outputs": [],
      "stateMutability": "nonpayable",
      "type": "function"
    },
    {
      "inputs": [
        {
          "internalType": "uint256",
          "name": "winner",
          "type": "uint256"
        }
      ],
      "name": "mock_race",
      "outputs": [
        {
          "internalType": "uint256",
          "name": "",
          "type": "uint256"
        }
      ],
      "stateMutability": "nonpayable",
      "type": "function"
    },
    {
      "inputs": [],
      "name": "returnTotalBet",
      "outputs": [
        {
          "internalType": "uint256",
          "name": "",
          "type": "uint256"
        }
      ],
      "stateMutability": "view",
      "type": "function",
      "constant": true
    },
    {
      "inputs": [],
      "name": "returnRaceBet",
      "outputs": [
        {
          "internalType": "uint256",
          "name": "",
          "type": "uint256"
        }
      ],
      "stateMutability": "view",
      "type": "function",
      "constant": true
    },
    {
      "inputs": [],
      "name": "returnRaceLength",
      "outputs": [
        {
          "internalType": "uint256",
          "name": "",
          "type": "uint256"
        }
      ],
      "stateMutability": "view",
      "type": "function",
      "constant": true
    },
    {
      "inputs": [
        {
          "internalType": "address",
          "name": "tokenOwner",
          "type": "address"
        }
      ],
      "name": "returnBalanceOf",
      "outputs": [
        {
          "internalType": "uint256",
          "name": "",
          "type": "uint256"
        }
      ],
      "stateMutability": "view",
      "type": "function",
      "constant": true
    },
    {
      "inputs": [
        {
          "internalType": "address",
          "name": "to",
          "type": "address"
        },
        {
          "internalType": "uint256",
          "name": "tokens",
          "type": "uint256"
        }
      ],
      "name": "transferToken",
      "outputs": [
        {
          "internalType": "bool",
          "name": "success",
          "type": "bool"
        }
      ],
      "stateMutability": "nonpayable",
      "type": "function"
    },
    {
      "inputs": [],
      "name": "buyTokens",
      "outputs": [
        {
          "internalType": "uint256",
          "name": "tokenAmount",
          "type": "uint256"
        }
      ],
      "stateMutability": "payable",
      "type": "function",
      "payable": true
    }
  ],
  "bytecode": "0x60806040526010600155600154600a6200001a919062000364565b600255600a60065560046007556000600c556000600d556000600e5560646011553480156200004857600080fd5b50336000806101000a81548173ffffffffffffffffffffffffffffffffffffffff021916908373ffffffffffffffffffffffffffffffffffffffff16021790555060008054906101000a900473ffffffffffffffffffffffffffffffffffffffff1673ffffffffffffffffffffffffffffffffffffffff16600073ffffffffffffffffffffffffffffffffffffffff167f8be0079c531659141344cd1fd0a4f28419497f9722a3daafe3b4186f6b6457e060405160405180910390a3620f4240336040516200011790620001c9565b6200012492919062000447565b604051809103906000f08015801562000141573d6000803e3d6000fd5b50600f60006101000a81548173ffffffffffffffffffffffffffffffffffffffff021916908373ffffffffffffffffffffffffffffffffffffffff16021790555033601060006101000a81548173ffffffffffffffffffffffffffffffffffffffff021916908373ffffffffffffffffffffffffffffffffffffffff16021790555062000474565b610fce806200290783390190565b7f4e487b7100000000000000000000000000000000000000000000000000000000600052601160045260246000fd5b60008160011c9050919050565b6000808291508390505b600185111562000265578086048111156200023d576200023c620001d7565b5b60018516156200024d5780820291505b80810290506200025d8562000206565b94506200021d565b94509492505050565b60008262000280576001905062000353565b8162000290576000905062000353565b8160018114620002a95760028114620002b457620002ea565b600191505062000353565b60ff841115620002c957620002c8620001d7565b5b8360020a915084821115620002e357620002e2620001d7565b5b5062000353565b5060208310610133831016604e8410600b8410161715620003245782820a9050838111156200031e576200031d620001d7565b5b62000353565b62000333848484600162000213565b925090508184048111156200034d576200034c620001d7565b5b81810290505b9392505050565b6000819050919050565b600062000371826200035a565b91506200037e836200035a565b9250620003ad7fffffffffffffffffffffffffffffffffffffffffffffffffffffffffffffffff84846200026e565b905092915050565b6000819050919050565b6000819050919050565b6000620003ea620003e4620003de84620003b5565b620003bf565b6200035a565b9050919050565b620003fc81620003c9565b82525050565b600073ffffffffffffffffffffffffffffffffffffffff82169050919050565b60006200042f8262000402565b9050919050565b620004418162000422565b82525050565b60006040820190506200045e6000830185620003f1565b6200046d602083018462000436565b9392505050565b61248380620004846000396000f3fe6080604052600436106101145760003560e01c8063a3f07d4b116100a0578063ce3078fd11610064578063ce3078fd146103a4578063d0febe4c146103cf578063da677fa2146103ed578063e8399cc61461042a578063f2fde38b1461045357610114565b8063a3f07d4b146102a9578063bbe8f712146102d4578063bed1b6e1146102ff578063c8b62d641461033c578063cbdd69b51461037957610114565b8063735e9c50116100e7578063735e9c50146101c15780637365870b146101ea5780638da5cb5b146102135780638f32d59b1461023e5780638f8b5cde1461026957610114565b80631072cbea146101195780633758042e14610156578063691ba73a14610193578063715018a6146101aa575b600080fd5b34801561012557600080fd5b50610140600480360381019061013b9190611971565b61047c565b60405161014d91906119cc565b60405180910390f35b34801561016257600080fd5b5061017d600480360381019061017891906119e7565b610526565b60405161018a9190611a23565b60405180910390f35b34801561019f57600080fd5b506101a86105cb565b005b3480156101b657600080fd5b506101bf6109d3565b005b3480156101cd57600080fd5b506101e860048036038101906101e39190611b84565b610aa2565b005b3480156101f657600080fd5b50610211600480360381019061020c9190611bcd565b610b23565b005b34801561021f57600080fd5b50610228610d48565b6040516102359190611c09565b60405180910390f35b34801561024a57600080fd5b50610253610d71565b60405161026091906119cc565b60405180910390f35b34801561027557600080fd5b50610290600480360381019061028b9190611bcd565b610dc8565b6040516102a09493929190611cc9565b60405180910390f35b3480156102b557600080fd5b506102be610eac565b6040516102cb9190611a23565b60405180910390f35b3480156102e057600080fd5b506102e9610eb6565b6040516102f69190611a23565b60405180910390f35b34801561030b57600080fd5b5061032660048036038101906103219190611bcd565b610ec0565b6040516103339190611a23565b60405180910390f35b34801561034857600080fd5b50610363600480360381019061035e91906119e7565b6110d9565b6040516103709190611dd3565b60405180910390f35b34801561038557600080fd5b5061038e61122b565b60405161039b9190611a23565b60405180910390f35b3480156103b057600080fd5b506103b9611231565b6040516103c69190611a23565b60405180910390f35b6103d761123b565b6040516103e49190611a23565b60405180910390f35b3480156103f957600080fd5b50610414600480360381019061040f9190611bcd565b6113f8565b6040516104219190611c09565b60405180910390f35b34801561043657600080fd5b50610451600480360381019061044c9190611bcd565b61142b565b005b34801561045f57600080fd5b5061047a600480360381019061047591906119e7565b611446565b005b6000600f60009054906101000a900473ffffffffffffffffffffffffffffffffffffffff1673ffffffffffffffffffffffffffffffffffffffff1663a9059cbb84846040518363ffffffff1660e01b81526004016104db929190611df5565b6020604051808303816000875af11580156104fa573d6000803e3d6000fd5b505050506040513d601f19601f8201168201806040525081019061051e9190611e4a565b905092915050565b6000600f60009054906101000a900473ffffffffffffffffffffffffffffffffffffffff1673ffffffffffffffffffffffffffffffffffffffff166370a08231836040518263ffffffff1660e01b81526004016105839190611c09565b602060405180830381865afa1580156105a0573d6000803e3d6000fd5b505050506040513d601f19601f820116820180604052508101906105c49190611e8c565b9050919050565b6105d3610d71565b6105dc57600080fd5b601060009054906101000a900473ffffffffffffffffffffffffffffffffffffffff1673ffffffffffffffffffffffffffffffffffffffff163373ffffffffffffffffffffffffffffffffffffffff161461063657600080fd5b600e54600f60009054906101000a900473ffffffffffffffffffffffffffffffffffffffff1673ffffffffffffffffffffffffffffffffffffffff166370a08231336040518263ffffffff1660e01b81526004016106949190611c09565b602060405180830381865afa1580156106b1573d6000803e3d6000fd5b505050506040513d601f19601f820116820180604052508101906106d59190611e8c565b10156106e057600080fd5b600754600c54146106f057600080fd5b600060086106fe6004611463565b6004811061070f5761070e611eb9565b5b015490506003818154811061072757610726611eb9565b5b9060005260206000209060030201600201600081819054906101000a900461ffff168092919061075690611f17565b91906101000a81548161ffff021916908361ffff1602179055505060005b60048110156108035760036008826004811061079357610792611eb9565b5b0154815481106107a6576107a5611eb9565b5b9060005260206000209060030201600201600281819054906101000a900461ffff16809291906107d590611f17565b91906101000a81548161ffff021916908361ffff1602179055505080806107fb90611f41565b915050610774565b506003818154811061081857610817611eb9565b5b9060005260206000209060030201600201600281819054906101000a900461ffff168092919061084790611f89565b91906101000a81548161ffff021916908361ffff1602179055505060006004600083815260200190815260200160002060009054906101000a900473ffffffffffffffffffffffffffffffffffffffff169050600f60009054906101000a900473ffffffffffffffffffffffffffffffffffffffff1673ffffffffffffffffffffffffffffffffffffffff1663a9059cbb82600e546040518363ffffffff1660e01b81526004016108f9929190611df5565b6020604051808303816000875af1158015610918573d6000803e3d6000fd5b505050506040513d601f19601f8201168201806040525081019061093c9190611e4a565b507ff9551cded3b623d6e227f21e2c17bc856565662bcfc6c6bfbe9020c91659850b600460065461096d9190611fb2565b600460086004600087815260200190815260200160002060009054906101000a900473ffffffffffffffffffffffffffffffffffffffff16866040516109b79594939291906120db565b60405180910390a16000600c819055506000600e819055505050565b6109db610d71565b6109e457600080fd5b600073ffffffffffffffffffffffffffffffffffffffff1660008054906101000a900473ffffffffffffffffffffffffffffffffffffffff1673ffffffffffffffffffffffffffffffffffffffff167f8be0079c531659141344cd1fd0a4f28419497f9722a3daafe3b4186f6b6457e060405160405180910390a360008060006101000a81548173ffffffffffffffffffffffffffffffffffffffff021916908373ffffffffffffffffffffffffffffffffffffffff160217905550565b6000600560003373ffffffffffffffffffffffffffffffffffffffff1673ffffffffffffffffffffffffffffffffffffffff1681526020019081526020016000205414610aee57600080fd5b6000610af9826114bc565b9050606481610b08919061215e565b81610b13919061218f565b9050610b1f8282611501565b5050565b806004600082815260200190815260200160002060009054906101000a900473ffffffffffffffffffffffffffffffffffffffff1673ffffffffffffffffffffffffffffffffffffffff163373ffffffffffffffffffffffffffffffffffffffff1614610b8f57600080fd5b600654600f60009054906101000a900473ffffffffffffffffffffffffffffffffffffffff1673ffffffffffffffffffffffffffffffffffffffff166370a08231336040518263ffffffff1660e01b8152600401610bed9190611c09565b602060405180830381865afa158015610c0a573d6000803e3d6000fd5b505050506040513d601f19601f82011682018060405250810190610c2e9190611e8c565b1015610c3957600080fd5b600754600c5410610c4957600080fd5b816008600c5460048110610c6057610c5f611eb9565b5b0181905550600c6000815480929190610c7890611f41565b9190505550600f60009054906101000a900473ffffffffffffffffffffffffffffffffffffffff1673ffffffffffffffffffffffffffffffffffffffff166323b872dd33601060009054906101000a900473ffffffffffffffffffffffffffffffffffffffff166006546040518463ffffffff1660e01b8152600401610d00939291906121c3565b6020604051808303816000875af1158015610d1f573d6000803e3d6000fd5b505050506040513d601f19601f82011682018060405250810190610d439190611e4a565b505050565b60008060009054906101000a900473ffffffffffffffffffffffffffffffffffffffff16905090565b60008060009054906101000a900473ffffffffffffffffffffffffffffffffffffffff1673ffffffffffffffffffffffffffffffffffffffff163373ffffffffffffffffffffffffffffffffffffffff1614905090565b60038181548110610dd857600080fd5b9060005260206000209060030201600091509050806000018054610dfb90612229565b80601f0160208091040260200160405190810160405280929190818152602001828054610e2790612229565b8015610e745780601f10610e4957610100808354040283529160200191610e74565b820191906000526020600020905b815481529060010190602001808311610e5757829003601f168201915b5050505050908060010154908060020160009054906101000a900461ffff16908060020160029054906101000a900461ffff16905084565b6000600c54905090565b6000600e54905090565b6000610eca610d71565b610ed357600080fd5b600754600c5414610ee357600080fd5b600060088360048110610ef957610ef8611eb9565b5b0154905060038181548110610f1157610f10611eb9565b5b9060005260206000209060030201600201600081819054906101000a900461ffff1680929190610f4090611f17565b91906101000a81548161ffff021916908361ffff1602179055505060005b6004811015610fed57600360088260048110610f7d57610f7c611eb9565b5b015481548110610f9057610f8f611eb9565b5b9060005260206000209060030201600201600281819054906101000a900461ffff1680929190610fbf90611f17565b91906101000a81548161ffff021916908361ffff160217905550508080610fe590611f41565b915050610f5e565b506003818154811061100257611001611eb9565b5b9060005260206000209060030201600201600281819054906101000a900461ffff168092919061103190611f89565b91906101000a81548161ffff021916908361ffff160217905550506004600082815260200190815260200160002060009054906101000a900473ffffffffffffffffffffffffffffffffffffffff1673ffffffffffffffffffffffffffffffffffffffff166108fc600e549081150290604051600060405180830381858888f193505050501580156110c7573d6000803e3d6000fd5b506000600c8190555080915050919050565b60606000600560008473ffffffffffffffffffffffffffffffffffffffff1673ffffffffffffffffffffffffffffffffffffffff1681526020019081526020016000205467ffffffffffffffff81111561113657611135611a59565b5b6040519080825280602002602001820160405280156111645781602001602082028036833780820191505090505b5090506000805b600380549050811015611220578473ffffffffffffffffffffffffffffffffffffffff166004600083815260200190815260200160002060009054906101000a900473ffffffffffffffffffffffffffffffffffffffff1673ffffffffffffffffffffffffffffffffffffffff160361120d57808383815181106111f2576111f1611eb9565b5b602002602001018181525050818061120990611f41565b9250505b808061121890611f41565b91505061116b565b508192505050919050565b60115481565b6000600654905090565b6000806011543461124c9190611fb2565b90506000600f60009054906101000a900473ffffffffffffffffffffffffffffffffffffffff1673ffffffffffffffffffffffffffffffffffffffff166370a08231601060009054906101000a900473ffffffffffffffffffffffffffffffffffffffff166040518263ffffffff1660e01b81526004016112cd9190611c09565b602060405180830381865afa1580156112ea573d6000803e3d6000fd5b505050506040513d601f19601f8201168201806040525081019061130e9190611e8c565b90506000600f60009054906101000a900473ffffffffffffffffffffffffffffffffffffffff1673ffffffffffffffffffffffffffffffffffffffff1663a9059cbb33856040518363ffffffff1660e01b815260040161136f929190611df5565b6020604051808303816000875af115801561138e573d6000803e3d6000fd5b505050506040513d601f19601f820116820180604052508101906113b29190611e4a565b90507f0a37b72bb67eee30e09084cf386f8a17817c57f620c3ab95fb25d6a20356ec773334856040516113e79392919061225a565b60405180910390a182935050505090565b60046020528060005260406000206000915054906101000a900473ffffffffffffffffffffffffffffffffffffffff1681565b611433610d71565b61143c57600080fd5b8060068190555050565b61144e610d71565b61145757600080fd5b61146081611704565b50565b60006001600d546114749190612291565b600d81905550814233600d5460405160200161149293929190612350565b6040516020818303038152906040528051906020012060001c6114b5919061215e565b9050919050565b600080826040516020016114d091906123c9565b6040516020818303038152906040528051906020012060001c9050600254816114f9919061215e565b915050919050565b60036040518060800160405280848152602001838152602001600061ffff168152602001600061ffff1681525090806001815401808255809150506001900390600052602060002090600302016000909190919091506000820151816000019080519060200190611573929190611826565b506020820151816001015560408201518160020160006101000a81548161ffff021916908361ffff16021790555060608201518160020160026101000a81548161ffff021916908361ffff1602179055505050600060016003805490506115da919061218f565b9050336004600083815260200190815260200160002060006101000a81548173ffffffffffffffffffffffffffffffffffffffff021916908373ffffffffffffffffffffffffffffffffffffffff1602179055506116816001600560003373ffffffffffffffffffffffffffffffffffffffff1673ffffffffffffffffffffffffffffffffffffffff168152602001908152602001600020546117fa90919063ffffffff16565b600560003373ffffffffffffffffffffffffffffffffffffffff1673ffffffffffffffffffffffffffffffffffffffff168152602001908152602001600020819055507f7512d04afc710279875c44ad61b2e78695e3824abb3178ec09c9199e13314c5d8184846040516116f7939291906123e0565b60405180910390a1505050565b600073ffffffffffffffffffffffffffffffffffffffff168173ffffffffffffffffffffffffffffffffffffffff160361173d57600080fd5b8073ffffffffffffffffffffffffffffffffffffffff1660008054906101000a900473ffffffffffffffffffffffffffffffffffffffff1673ffffffffffffffffffffffffffffffffffffffff167f8be0079c531659141344cd1fd0a4f28419497f9722a3daafe3b4186f6b6457e060405160405180910390a3806000806101000a81548173ffffffffffffffffffffffffffffffffffffffff021916908373ffffffffffffffffffffffffffffffffffffffff16021790555050565b60008082846118099190612291565b90508381101561181c5761181b61241e565b5b8091505092915050565b82805461183290612229565b90600052602060002090601f016020900481019282611854576000855561189b565b82601f1061186d57805160ff191683800117855561189b565b8280016001018555821561189b579182015b8281111561189a57825182559160200191906001019061187f565b5b5090506118a891906118ac565b5090565b5b808211156118c55760008160009055506001016118ad565b5090565b6000604051905090565b600080fd5b600080fd5b600073ffffffffffffffffffffffffffffffffffffffff82169050919050565b6000611908826118dd565b9050919050565b611918816118fd565b811461192357600080fd5b50565b6000813590506119358161190f565b92915050565b6000819050919050565b61194e8161193b565b811461195957600080fd5b50565b60008135905061196b81611945565b92915050565b60008060408385031215611988576119876118d3565b5b600061199685828601611926565b92505060206119a78582860161195c565b9150509250929050565b60008115159050919050565b6119c6816119b1565b82525050565b60006020820190506119e160008301846119bd565b92915050565b6000602082840312156119fd576119fc6118d3565b5b6000611a0b84828501611926565b91505092915050565b611a1d8161193b565b82525050565b6000602082019050611a386000830184611a14565b92915050565b600080fd5b600080fd5b6000601f19601f8301169050919050565b7f4e487b7100000000000000000000000000000000000000000000000000000000600052604160045260246000fd5b611a9182611a48565b810181811067ffffffffffffffff82111715611ab057611aaf611a59565b5b80604052505050565b6000611ac36118c9565b9050611acf8282611a88565b919050565b600067ffffffffffffffff821115611aef57611aee611a59565b5b611af882611a48565b9050602081019050919050565b82818337600083830152505050565b6000611b27611b2284611ad4565b611ab9565b905082815260208101848484011115611b4357611b42611a43565b5b611b4e848285611b05565b509392505050565b600082601f830112611b6b57611b6a611a3e565b5b8135611b7b848260208601611b14565b91505092915050565b600060208284031215611b9a57611b996118d3565b5b600082013567ffffffffffffffff811115611bb857611bb76118d8565b5b611bc484828501611b56565b91505092915050565b600060208284031215611be357611be26118d3565b5b6000611bf18482850161195c565b91505092915050565b611c03816118fd565b82525050565b6000602082019050611c1e6000830184611bfa565b92915050565b600081519050919050565b600082825260208201905092915050565b60005b83811015611c5e578082015181840152602081019050611c43565b83811115611c6d576000848401525b50505050565b6000611c7e82611c24565b611c888185611c2f565b9350611c98818560208601611c40565b611ca181611a48565b840191505092915050565b600061ffff82169050919050565b611cc381611cac565b82525050565b60006080820190508181036000830152611ce38187611c73565b9050611cf26020830186611a14565b611cff6040830185611cba565b611d0c6060830184611cba565b95945050505050565b600081519050919050565b600082825260208201905092915050565b6000819050602082019050919050565b611d4a8161193b565b82525050565b6000611d5c8383611d41565b60208301905092915050565b6000602082019050919050565b6000611d8082611d15565b611d8a8185611d20565b9350611d9583611d31565b8060005b83811015611dc6578151611dad8882611d50565b9750611db883611d68565b925050600181019050611d99565b5085935050505092915050565b60006020820190508181036000830152611ded8184611d75565b905092915050565b6000604082019050611e0a6000830185611bfa565b611e176020830184611a14565b9392505050565b611e27816119b1565b8114611e3257600080fd5b50565b600081519050611e4481611e1e565b92915050565b600060208284031215611e6057611e5f6118d3565b5b6000611e6e84828501611e35565b91505092915050565b600081519050611e8681611945565b92915050565b600060208284031215611ea257611ea16118d3565b5b6000611eb084828501611e77565b91505092915050565b7f4e487b7100000000000000000000000000000000000000000000000000000000600052603260045260246000fd5b7f4e487b7100000000000000000000000000000000000000000000000000000000600052601160045260246000fd5b6000611f2282611cac565b915061ffff8203611f3657611f35611ee8565b5b600182019050919050565b6000611f4c8261193b565b91507fffffffffffffffffffffffffffffffffffffffffffffffffffffffffffffffff8203611f7e57611f7d611ee8565b5b600182019050919050565b6000611f9482611cac565b915060008203611fa757611fa6611ee8565b5b600182039050919050565b6000611fbd8261193b565b9150611fc88361193b565b9250817fffffffffffffffffffffffffffffffffffffffffffffffffffffffffffffffff048311821515161561200157612000611ee8565b5b828202905092915050565b600060049050919050565b600081905092915050565b6000819050919050565b60008160001c9050919050565b6000819050919050565b60006120566120518361202c565b612039565b9050919050565b60006120698254612043565b9050919050565b6000600182019050919050565b6120868161200c565b6120908184612017565b925061209b82612022565b8060005b838110156120d3576120b08261205d565b6120ba8782611d50565b96506120c583612070565b92505060018101905061209f565b505050505050565b6000610100820190506120f16000830188611a14565b6120fe6020830187611a14565b61210b604083018661207d565b61211860c0830185611bfa565b61212560e0830184611a14565b9695505050505050565b7f4e487b7100000000000000000000000000000000000000000000000000000000600052601260045260246000fd5b60006121698261193b565b91506121748361193b565b9250826121845761218361212f565b5b828206905092915050565b600061219a8261193b565b91506121a58361193b565b9250828210156121b8576121b7611ee8565b5b828203905092915050565b60006060820190506121d86000830186611bfa565b6121e56020830185611bfa565b6121f26040830184611a14565b949350505050565b7f4e487b7100000000000000000000000000000000000000000000000000000000600052602260045260246000fd5b6000600282049050600182168061224157607f821691505b602082108103612254576122536121fa565b5b50919050565b600060608201905061226f6000830186611bfa565b61227c6020830185611a14565b6122896040830184611a14565b949350505050565b600061229c8261193b565b91506122a78361193b565b9250827fffffffffffffffffffffffffffffffffffffffffffffffffffffffffffffffff038211156122dc576122db611ee8565b5b828201905092915050565b6000819050919050565b6123026122fd8261193b565b6122e7565b82525050565b60008160601b9050919050565b600061232082612308565b9050919050565b600061233282612315565b9050919050565b61234a612345826118fd565b612327565b82525050565b600061235c82866122f1565b60208201915061236c8285612339565b60148201915061237c82846122f1565b602082019150819050949350505050565b600081905092915050565b60006123a382611c24565b6123ad818561238d565b93506123bd818560208601611c40565b80840191505092915050565b60006123d58284612398565b915081905092915050565b60006060820190506123f56000830186611a14565b81810360208301526124078185611c73565b90506124166040830184611a14565b949350505050565b7f4e487b7100000000000000000000000000000000000000000000000000000000600052600160045260246000fdfea26469706673582212200483b80521ce6c570cdd7c16972ac11053812448b627164a3cd9d715cff781dc64736f6c634300080e003360806040523480156200001157600080fd5b5060405162000fce38038062000fce833981810160405281019062000037919062000172565b8160008190555080600160006101000a81548173ffffffffffffffffffffffffffffffffffffffff021916908373ffffffffffffffffffffffffffffffffffffffff160217905550600054600260008373ffffffffffffffffffffffffffffffffffffffff1673ffffffffffffffffffffffffffffffffffffffff168152602001908152602001600020819055505050620001b9565b600080fd5b6000819050919050565b620000e781620000d2565b8114620000f357600080fd5b50565b6000815190506200010781620000dc565b92915050565b600073ffffffffffffffffffffffffffffffffffffffff82169050919050565b60006200013a826200010d565b9050919050565b6200014c816200012d565b81146200015857600080fd5b50565b6000815190506200016c8162000141565b92915050565b600080604083850312156200018c576200018b620000cd565b5b60006200019c85828601620000f6565b9250506020620001af858286016200015b565b9150509250929050565b610e0580620001c96000396000f3fe608060405234801561001057600080fd5b50600436106100935760003560e01c8063313ce56711610066578063313ce5671461013457806370a082311461015257806395d89b4114610182578063a9059cbb146101a0578063dd62ed3e146101d057610093565b806306fdde0314610098578063095ea7b3146100b657806318160ddd146100e657806323b872dd14610104575b600080fd5b6100a0610200565b6040516100ad9190610a95565b60405180910390f35b6100d060048036038101906100cb9190610b50565b610239565b6040516100dd9190610bab565b60405180910390f35b6100ee61032b565b6040516100fb9190610bd5565b60405180910390f35b61011e60048036038101906101199190610bf0565b610334565b60405161012b9190610bab565b60405180910390f35b61013c6106b4565b6040516101499190610c5f565b60405180910390f35b61016c60048036038101906101679190610c7a565b6106b9565b6040516101799190610bd5565b60405180910390f35b61018a610702565b6040516101979190610a95565b60405180910390f35b6101ba60048036038101906101b59190610b50565b61073b565b6040516101c79190610bab565b60405180910390f35b6101ea60048036038101906101e59190610ca7565b610922565b6040516101f79190610bd5565b60405180910390f35b6040518060400160405280600981526020017f486f727365436f696e000000000000000000000000000000000000000000000081525081565b600081600360003373ffffffffffffffffffffffffffffffffffffffff1673ffffffffffffffffffffffffffffffffffffffff16815260200190815260200160002060008573ffffffffffffffffffffffffffffffffffffffff1673ffffffffffffffffffffffffffffffffffffffff168152602001908152602001600020819055508273ffffffffffffffffffffffffffffffffffffffff163373ffffffffffffffffffffffffffffffffffffffff167f8c5be1e5ebec7d5bd14f71427d1e84f3dd0314c0f7b2291e5b200ac8c7c3b925846040516103199190610bd5565b60405180910390a36001905092915050565b60008054905090565b6000600260008573ffffffffffffffffffffffffffffffffffffffff1673ffffffffffffffffffffffffffffffffffffffff1681526020019081526020016000205482111561038257600080fd5b600360008573ffffffffffffffffffffffffffffffffffffffff1673ffffffffffffffffffffffffffffffffffffffff16815260200190815260200160002060003373ffffffffffffffffffffffffffffffffffffffff1673ffffffffffffffffffffffffffffffffffffffff1681526020019081526020016000205482111561040b57600080fd5b61045d82600260008773ffffffffffffffffffffffffffffffffffffffff1673ffffffffffffffffffffffffffffffffffffffff168152602001908152602001600020546109a990919063ffffffff16565b600260008673ffffffffffffffffffffffffffffffffffffffff1673ffffffffffffffffffffffffffffffffffffffff1681526020019081526020016000208190555061052f82600360008773ffffffffffffffffffffffffffffffffffffffff1673ffffffffffffffffffffffffffffffffffffffff16815260200190815260200160002060003373ffffffffffffffffffffffffffffffffffffffff1673ffffffffffffffffffffffffffffffffffffffff168152602001908152602001600020546109a990919063ffffffff16565b600360008673ffffffffffffffffffffffffffffffffffffffff1673ffffffffffffffffffffffffffffffffffffffff16815260200190815260200160002060003373ffffffffffffffffffffffffffffffffffffffff1673ffffffffffffffffffffffffffffffffffffffff1681526020019081526020016000208190555061060182600260008673ffffffffffffffffffffffffffffffffffffffff1673ffffffffffffffffffffffffffffffffffffffff168152602001908152602001600020546109d090919063ffffffff16565b600260008573ffffffffffffffffffffffffffffffffffffffff1673ffffffffffffffffffffffffffffffffffffffff168152602001908152602001600020819055508273ffffffffffffffffffffffffffffffffffffffff168473ffffffffffffffffffffffffffffffffffffffff167fddf252ad1be2c89b69c2b068fc378daa952ba7f163c4a11628f55a4df523b3ef846040516106a19190610bd5565b60405180910390a3600190509392505050565b600281565b6000600260008373ffffffffffffffffffffffffffffffffffffffff1673ffffffffffffffffffffffffffffffffffffffff168152602001908152602001600020549050919050565b6040518060400160405280600381526020017f485253000000000000000000000000000000000000000000000000000000000081525081565b6000600260003373ffffffffffffffffffffffffffffffffffffffff1673ffffffffffffffffffffffffffffffffffffffff1681526020019081526020016000205482111561078957600080fd5b6107db82600260003373ffffffffffffffffffffffffffffffffffffffff1673ffffffffffffffffffffffffffffffffffffffff168152602001908152602001600020546109a990919063ffffffff16565b600260003373ffffffffffffffffffffffffffffffffffffffff1673ffffffffffffffffffffffffffffffffffffffff1681526020019081526020016000208190555061087082600260008673ffffffffffffffffffffffffffffffffffffffff1673ffffffffffffffffffffffffffffffffffffffff168152602001908152602001600020546109d090919063ffffffff16565b600260008573ffffffffffffffffffffffffffffffffffffffff1673ffffffffffffffffffffffffffffffffffffffff168152602001908152602001600020819055508273ffffffffffffffffffffffffffffffffffffffff163373ffffffffffffffffffffffffffffffffffffffff167fddf252ad1be2c89b69c2b068fc378daa952ba7f163c4a11628f55a4df523b3ef846040516109109190610bd5565b60405180910390a36001905092915050565b6000600360008473ffffffffffffffffffffffffffffffffffffffff1673ffffffffffffffffffffffffffffffffffffffff16815260200190815260200160002060008373ffffffffffffffffffffffffffffffffffffffff1673ffffffffffffffffffffffffffffffffffffffff16815260200190815260200160002054905092915050565b6000828211156109bc576109bb610ce7565b5b81836109c89190610d45565b905092915050565b60008082846109df9190610d79565b9050838110156109f2576109f1610ce7565b5b8091505092915050565b600081519050919050565b600082825260208201905092915050565b60005b83811015610a36578082015181840152602081019050610a1b565b83811115610a45576000848401525b50505050565b6000601f19601f8301169050919050565b6000610a67826109fc565b610a718185610a07565b9350610a81818560208601610a18565b610a8a81610a4b565b840191505092915050565b60006020820190508181036000830152610aaf8184610a5c565b905092915050565b600080fd5b600073ffffffffffffffffffffffffffffffffffffffff82169050919050565b6000610ae782610abc565b9050919050565b610af781610adc565b8114610b0257600080fd5b50565b600081359050610b1481610aee565b92915050565b6000819050919050565b610b2d81610b1a565b8114610b3857600080fd5b50565b600081359050610b4a81610b24565b92915050565b60008060408385031215610b6757610b66610ab7565b5b6000610b7585828601610b05565b9250506020610b8685828601610b3b565b9150509250929050565b60008115159050919050565b610ba581610b90565b82525050565b6000602082019050610bc06000830184610b9c565b92915050565b610bcf81610b1a565b82525050565b6000602082019050610bea6000830184610bc6565b92915050565b600080600060608486031215610c0957610c08610ab7565b5b6000610c1786828701610b05565b9350506020610c2886828701610b05565b9250506040610c3986828701610b3b565b9150509250925092565b600060ff82169050919050565b610c5981610c43565b82525050565b6000602082019050610c746000830184610c50565b92915050565b600060208284031215610c9057610c8f610ab7565b5b6000610c9e84828501610b05565b91505092915050565b60008060408385031215610cbe57610cbd610ab7565b5b6000610ccc85828601610b05565b9250506020610cdd85828601610b05565b9150509250929050565b7f4e487b7100000000000000000000000000000000000000000000000000000000600052600160045260246000fd5b7f4e487b7100000000000000000000000000000000000000000000000000000000600052601160045260246000fd5b6000610d5082610b1a565b9150610d5b83610b1a565b925082821015610d6e57610d6d610d16565b5b828203905092915050565b6000610d8482610b1a565b9150610d8f83610b1a565b9250827fffffffffffffffffffffffffffffffffffffffffffffffffffffffffffffffff03821115610dc457610dc3610d16565b5b82820190509291505056fea26469706673582212209a6b7b288f426dde6ce2b7609b77436528a93b9d742531017c7a5a0f13edcc1464736f6c634300080e0033",
  "immutableReferences": {},
  "source": "// SPDX-License-Identifier: GPL-3.0\r\npragma solidity >=0.7.0 <0.9.0;\r\n\r\nimport \"./horsehelper.sol\";\r\nimport \"./horsecoin.sol\";\r\n\r\ncontract HorseRacing is HorseHelper {\r\n    uint256 raceBet = 10;\r\n    uint256 maxHorses = 4;\r\n    uint256[4] currentRace;\r\n    uint256 idx = 0;\r\n    uint256 randNonce = 0;\r\n    uint256 totalBet = 0;\r\n    HorseCoin token;\r\n    address contractOwner;\r\n\r\n    // token price for ETH\r\n    uint256 public tokensPerEth = 100;\r\n\r\n    constructor() {\r\n        token = new HorseCoin(1e6,msg.sender);\r\n        contractOwner = msg.sender;\r\n    }\r\n\r\n    // Event that log buy operation\r\n    event BuyTokens(address buyer, uint256 amountOfETH, uint256 amountOfTokens);\r\n\r\n    event Race(uint _betAmount, uint _numberOfParticipants, uint256[4] _participants, address _winner, uint _winnerHorseId);\r\n\r\n    function randMod(uint256 _modulus) internal returns (uint256) {\r\n        randNonce = randNonce + 1;\r\n        return\r\n            uint256(\r\n                keccak256(\r\n                    abi.encodePacked(block.timestamp, msg.sender, randNonce)\r\n                )\r\n            ) % _modulus;\r\n    }\r\n\r\n    function setBet(uint256 _bet) external onlyOwner {\r\n        raceBet = _bet;\r\n    }\r\n\r\n    function bet(uint256 _horseId) external onlyOwnerOf(_horseId) {\r\n        //require(msg.value == raceBet);\r\n        require(token.balanceOf(msg.sender) >= raceBet);\r\n        require(idx < maxHorses);\r\n        currentRace[idx] = _horseId;\r\n        idx++;\r\n        token.transferFrom(msg.sender, contractOwner, raceBet);\r\n    }\r\n\r\n    function race() external onlyOwner {\r\n        require(msg.sender == contractOwner);\r\n        require(token.balanceOf(msg.sender) >= totalBet);\r\n        require(idx == maxHorses);\r\n\r\n        uint256 winnerId = currentRace[randMod(currentRace.length)];\r\n        horses[winnerId].winCount++;\r\n\r\n        for (uint256 i = 0; i < currentRace.length; i++) {\r\n            horses[currentRace[i]].lossCount++;\r\n        }\r\n        horses[winnerId].lossCount--;\r\n\r\n        // transferir el premio al ganador (chequear)\r\n        //address payable payTo = payable(address(horseToOwner[winnerId]));\r\n        //payTo.transfer(totalBet);\r\n\r\n        address payTo = horseToOwner[winnerId];\r\n        token.transfer(payTo, totalBet);\r\n\r\n        //payable(horseToOwner[winnerId]).transfer(raceBet * currentRace.length);\r\n\r\n        // emitir evento de race para mostrarla en el front\r\n        emit Race(raceBet * currentRace.length, currentRace.length, currentRace, horseToOwner[winnerId], winnerId);\r\n        idx = 0;\r\n        totalBet = 0;\r\n    }\r\n\r\n\r\n    function mock_race(uint256 winner) external onlyOwner returns (uint256){\r\n        require(idx == maxHorses);\r\n        uint256 winnerId = currentRace[winner];\r\n        horses[winnerId].winCount++;\r\n        for (uint256 i = 0; i < currentRace.length; i++) {\r\n            horses[currentRace[i]].lossCount++;\r\n        }\r\n        horses[winnerId].lossCount--;\r\n\r\n        // transferir el premio al ganador (chequear)\r\n        payable(horseToOwner[winnerId]).transfer(totalBet);\r\n\r\n        // emitir evento de race para mostrarla en el front\r\n        idx = 0;\r\n        totalBet;\r\n        return winnerId;\r\n    }\r\n\r\n\r\n    function returnTotalBet() external view returns (uint256){\r\n        return totalBet;\r\n    }\r\n\r\n    function returnRaceBet() external view returns (uint256){\r\n        return raceBet;\r\n    }\r\n\r\n    function returnRaceLength() external view returns (uint256){\r\n        return idx;\r\n    }\r\n\r\n    function returnBalanceOf(address tokenOwner) external view returns (uint256){\r\n        return token.balanceOf(tokenOwner);\r\n    }\r\n\r\n    function transferToken(address to, uint256 tokens) external returns (bool success){\r\n        return token.transfer(to, tokens);\r\n    }\r\n\r\n    function buyTokens() public payable returns (uint256 tokenAmount) {\r\n        //require(msg.value > 0, \"Send ETH to buy some tokens\");\r\n\r\n        uint256 amountToBuy = msg.value * tokensPerEth;\r\n\r\n        // check if the Vendor Contract has enough amount of tokens for the transaction\r\n        uint256 ourBalance = token.balanceOf(contractOwner);\r\n        //require(ourBalance >= amountToBuy, \"Vendor contract has not enough tokens in its balance\");\r\n\r\n        // Transfer token to the msg.sender\r\n        (bool sent) = token.transfer(msg.sender, amountToBuy);\r\n        //require(sent, \"Failed to transfer token to user\");\r\n\r\n        // emit the event\r\n        emit BuyTokens(msg.sender, msg.value, amountToBuy);\r\n\r\n        return amountToBuy;\r\n  }\r\n\r\n}\r\n",
  "sourcePath": "C:\\Users\\Dante\\Documents\\GitHub\\TDL-SinoKa-La-Ferrigneta\\contracts\\racing\\horseracing.sol",
  "compiler": {
    "name": "solc",
    "version": "0.8.14+commit.80d49f37.Emscripten.clang"
  },
  "schemaVersion": "3.4.4",
  "updatedAt": "2022-06-29T15:37:03.419Z",
  "networkType": "ethereum",
  "devdoc": {
    "kind": "dev",
    "methods": {
      "isOwner()": {
        "returns": {
          "_0": "true if `msg.sender` is the owner of the contract."
        }
      },
      "owner()": {
        "returns": {
          "_0": "the address of the owner."
        }
      },
      "renounceOwnership()": {
        "details": "Allows the current owner to relinquish control of the contract."
      },
      "transferOwnership(address)": {
        "details": "Allows the current owner to transfer control of the contract to a newOwner.",
        "params": {
          "newOwner": "The address to transfer ownership to."
        }
      }
    },
    "version": 1
  },
  "userdoc": {
    "kind": "user",
    "methods": {
      "renounceOwnership()": {
        "notice": "Renouncing to ownership will leave the contract without an owner. It will not be possible to call the functions with the `onlyOwner` modifier anymore."
      }
    },
    "version": 1
  }
}