{
  "contractName": "HorseOwnership",
  "abi": [
    {
      "anonymous": false,
      "inputs": [
        {
          "indexed": true,
          "internalType": "address",
          "name": "_owner",
          "type": "address"
        },
        {
          "indexed": true,
          "internalType": "address",
          "name": "_approved",
          "type": "address"
        },
        {
          "indexed": true,
          "internalType": "uint256",
          "name": "_tokenId",
          "type": "uint256"
        }
      ],
      "name": "Approval",
      "type": "event"
    },
    {
      "anonymous": false,
      "inputs": [
        {
          "indexed": false,
          "internalType": "uint256",
          "name": "horseId",
          "type": "uint256"
        },
        {
          "indexed": false,
          "internalType": "string",
          "name": "name",
          "type": "string"
        },
        {
          "indexed": false,
          "internalType": "uint256",
          "name": "dna",
          "type": "uint256"
        }
      ],
      "name": "NewHorse",
      "type": "event"
    },
    {
      "anonymous": false,
      "inputs": [
        {
          "indexed": true,
          "internalType": "address",
          "name": "previousOwner",
          "type": "address"
        },
        {
          "indexed": true,
          "internalType": "address",
          "name": "newOwner",
          "type": "address"
        }
      ],
      "name": "OwnershipTransferred",
      "type": "event"
    },
    {
      "anonymous": false,
      "inputs": [
        {
          "indexed": false,
          "internalType": "uint256",
          "name": "_betAmount",
          "type": "uint256"
        },
        {
          "indexed": false,
          "internalType": "uint256",
          "name": "_numberOfParticipants",
          "type": "uint256"
        },
        {
          "indexed": false,
          "internalType": "uint256[4]",
          "name": "_participants",
          "type": "uint256[4]"
        },
        {
          "indexed": false,
          "internalType": "address",
          "name": "_winner",
          "type": "address"
        },
        {
          "indexed": false,
          "internalType": "uint256",
          "name": "_winnerHorseId",
          "type": "uint256"
        }
      ],
      "name": "Race",
      "type": "event"
    },
    {
      "anonymous": false,
      "inputs": [
        {
          "indexed": true,
          "internalType": "address",
          "name": "_from",
          "type": "address"
        },
        {
          "indexed": true,
          "internalType": "address",
          "name": "_to",
          "type": "address"
        },
        {
          "indexed": true,
          "internalType": "uint256",
          "name": "_tokenId",
          "type": "uint256"
        }
      ],
      "name": "Transfer",
      "type": "event"
    },
    {
      "inputs": [
        {
          "internalType": "uint256",
          "name": "_horseId",
          "type": "uint256"
        }
      ],
      "name": "bet",
      "outputs": [],
      "stateMutability": "payable",
      "type": "function"
    },
    {
      "inputs": [
        {
          "internalType": "string",
          "name": "_name",
          "type": "string"
        }
      ],
      "name": "createRandomHorse",
      "outputs": [],
      "stateMutability": "nonpayable",
      "type": "function"
    },
    {
      "inputs": [
        {
          "internalType": "address",
          "name": "_owner",
          "type": "address"
        }
      ],
      "name": "getHorsesByOwner",
      "outputs": [
        {
          "internalType": "uint256[]",
          "name": "",
          "type": "uint256[]"
        }
      ],
      "stateMutability": "view",
      "type": "function"
    },
    {
      "inputs": [
        {
          "internalType": "uint256",
          "name": "",
          "type": "uint256"
        }
      ],
      "name": "horseToOwner",
      "outputs": [
        {
          "internalType": "address",
          "name": "",
          "type": "address"
        }
      ],
      "stateMutability": "view",
      "type": "function"
    },
    {
      "inputs": [
        {
          "internalType": "uint256",
          "name": "",
          "type": "uint256"
        }
      ],
      "name": "horses",
      "outputs": [
        {
          "internalType": "string",
          "name": "name",
          "type": "string"
        },
        {
          "internalType": "uint256",
          "name": "dna",
          "type": "uint256"
        },
        {
          "internalType": "uint16",
          "name": "winCount",
          "type": "uint16"
        },
        {
          "internalType": "uint16",
          "name": "lossCount",
          "type": "uint16"
        }
      ],
      "stateMutability": "view",
      "type": "function"
    },
    {
      "inputs": [],
      "name": "isOwner",
      "outputs": [
        {
          "internalType": "bool",
          "name": "",
          "type": "bool"
        }
      ],
      "stateMutability": "view",
      "type": "function"
    },
    {
      "inputs": [
        {
          "internalType": "uint256",
          "name": "_horseId",
          "type": "uint256"
        }
      ],
      "name": "mock_bet",
      "outputs": [],
      "stateMutability": "payable",
      "type": "function"
    },
    {
      "inputs": [],
      "name": "owner",
      "outputs": [
        {
          "internalType": "address",
          "name": "",
          "type": "address"
        }
      ],
      "stateMutability": "view",
      "type": "function"
    },
    {
      "inputs": [],
      "name": "renounceOwnership",
      "outputs": [],
      "stateMutability": "nonpayable",
      "type": "function"
    },
    {
      "inputs": [
        {
          "internalType": "uint256",
          "name": "_bet",
          "type": "uint256"
        }
      ],
      "name": "setBet",
      "outputs": [],
      "stateMutability": "nonpayable",
      "type": "function"
    },
    {
      "inputs": [
        {
          "internalType": "address",
          "name": "newOwner",
          "type": "address"
        }
      ],
      "name": "transferOwnership",
      "outputs": [],
      "stateMutability": "nonpayable",
      "type": "function"
    },
    {
      "inputs": [
        {
          "internalType": "address",
          "name": "_owner",
          "type": "address"
        }
      ],
      "name": "balanceOf",
      "outputs": [
        {
          "internalType": "uint256",
          "name": "",
          "type": "uint256"
        }
      ],
      "stateMutability": "view",
      "type": "function"
    },
    {
      "inputs": [
        {
          "internalType": "uint256",
          "name": "_tokenId",
          "type": "uint256"
        }
      ],
      "name": "ownerOf",
      "outputs": [
        {
          "internalType": "address",
          "name": "",
          "type": "address"
        }
      ],
      "stateMutability": "view",
      "type": "function"
    },
    {
      "inputs": [
        {
          "internalType": "address",
          "name": "_from",
          "type": "address"
        },
        {
          "internalType": "address",
          "name": "_to",
          "type": "address"
        },
        {
          "internalType": "uint256",
          "name": "_tokenId",
          "type": "uint256"
        }
      ],
      "name": "transferFrom",
      "outputs": [],
      "stateMutability": "payable",
      "type": "function"
    },
    {
      "inputs": [
        {
          "internalType": "address",
          "name": "_approved",
          "type": "address"
        },
        {
          "internalType": "uint256",
          "name": "_tokenId",
          "type": "uint256"
        }
      ],
      "name": "approve",
      "outputs": [],
      "stateMutability": "payable",
      "type": "function"
    }
  ],
  "bytecode": "0x60806040526010600155600154600a6200001a919062000299565b600255678ac7230489e8000060065560046007556000600c556000600d556000600e553480156200004a57600080fd5b50336000806101000a81548173ffffffffffffffffffffffffffffffffffffffff021916908373ffffffffffffffffffffffffffffffffffffffff16021790555060008054906101000a900473ffffffffffffffffffffffffffffffffffffffff1673ffffffffffffffffffffffffffffffffffffffff16600073ffffffffffffffffffffffffffffffffffffffff167f8be0079c531659141344cd1fd0a4f28419497f9722a3daafe3b4186f6b6457e060405160405180910390a3620002ea565b7f4e487b7100000000000000000000000000000000000000000000000000000000600052601160045260246000fd5b60008160011c9050919050565b6000808291508390505b60018511156200019a578086048111156200017257620001716200010c565b5b6001851615620001825780820291505b808102905062000192856200013b565b945062000152565b94509492505050565b600082620001b5576001905062000288565b81620001c5576000905062000288565b8160018114620001de5760028114620001e9576200021f565b600191505062000288565b60ff841115620001fe57620001fd6200010c565b5b8360020a9150848211156200021857620002176200010c565b5b5062000288565b5060208310610133831016604e8410600b8410161715620002595782820a9050838111156200025357620002526200010c565b5b62000288565b62000268848484600162000148565b925090508184048111156200028257620002816200010c565b5b81810290505b9392505050565b6000819050919050565b6000620002a6826200028f565b9150620002b3836200028f565b9250620002e27fffffffffffffffffffffffffffffffffffffffffffffffffffffffffffffffff8484620001a3565b905092915050565b61221c80620002fa6000396000f3fe6080604052600436106100e85760003560e01c80638da5cb5b1161008a578063da677fa211610059578063da677fa2146102ce578063dd021d3f1461030b578063e8399cc614610327578063f2fde38b14610350576100e8565b80638da5cb5b146101fb5780638f32d59b146102265780638f8b5cde14610251578063c8b62d6414610291576100e8565b806370a08231116100c657806370a0823114610162578063715018a61461019f578063735e9c50146101b65780637365870b146101df576100e8565b8063095ea7b3146100ed57806323b872dd146101095780636352211e14610125575b600080fd5b610107600480360381019061010291906117e9565b610379565b005b610123600480360381019061011e9190611829565b610497565b005b34801561013157600080fd5b5061014c6004803603810190610147919061187c565b61057b565b60405161015991906118b8565b60405180910390f35b34801561016e57600080fd5b50610189600480360381019061018491906118d3565b6105b8565b604051610196919061190f565b60405180910390f35b3480156101ab57600080fd5b506101b4610601565b005b3480156101c257600080fd5b506101dd60048036038101906101d89190611a70565b6106d0565b005b6101f960048036038101906101f4919061187c565b610751565b005b34801561020757600080fd5b50610210610840565b60405161021d91906118b8565b60405180910390f35b34801561023257600080fd5b5061023b610869565b6040516102489190611ad4565b60405180910390f35b34801561025d57600080fd5b506102786004803603810190610273919061187c565b6108c0565b6040516102889493929190611b94565b60405180910390f35b34801561029d57600080fd5b506102b860048036038101906102b391906118d3565b6109a4565b6040516102c59190611c9e565b60405180910390f35b3480156102da57600080fd5b506102f560048036038101906102f0919061187c565b610af6565b60405161030291906118b8565b60405180910390f35b6103256004803603810190610320919061187c565b610b29565b005b34801561033357600080fd5b5061034e6004803603810190610349919061187c565b610c18565b005b34801561035c57600080fd5b50610377600480360381019061037291906118d3565b610c33565b005b806004600082815260200190815260200160002060009054906101000a900473ffffffffffffffffffffffffffffffffffffffff1673ffffffffffffffffffffffffffffffffffffffff163373ffffffffffffffffffffffffffffffffffffffff16146103e557600080fd5b82600f600084815260200190815260200160002060006101000a81548173ffffffffffffffffffffffffffffffffffffffff021916908373ffffffffffffffffffffffffffffffffffffffff160217905550818373ffffffffffffffffffffffffffffffffffffffff163373ffffffffffffffffffffffffffffffffffffffff167f8c5be1e5ebec7d5bd14f71427d1e84f3dd0314c0f7b2291e5b200ac8c7c3b92560405160405180910390a4505050565b3373ffffffffffffffffffffffffffffffffffffffff166004600083815260200190815260200160002060009054906101000a900473ffffffffffffffffffffffffffffffffffffffff1673ffffffffffffffffffffffffffffffffffffffff16148061056257503373ffffffffffffffffffffffffffffffffffffffff16600f600083815260200190815260200160002060009054906101000a900473ffffffffffffffffffffffffffffffffffffffff1673ffffffffffffffffffffffffffffffffffffffff16145b61056b57600080fd5b610576838383610c50565b505050565b60006004600083815260200190815260200160002060009054906101000a900473ffffffffffffffffffffffffffffffffffffffff169050919050565b6000600560008373ffffffffffffffffffffffffffffffffffffffff1673ffffffffffffffffffffffffffffffffffffffff168152602001908152602001600020549050919050565b610609610869565b61061257600080fd5b600073ffffffffffffffffffffffffffffffffffffffff1660008054906101000a900473ffffffffffffffffffffffffffffffffffffffff1673ffffffffffffffffffffffffffffffffffffffff167f8be0079c531659141344cd1fd0a4f28419497f9722a3daafe3b4186f6b6457e060405160405180910390a360008060006101000a81548173ffffffffffffffffffffffffffffffffffffffff021916908373ffffffffffffffffffffffffffffffffffffffff160217905550565b6000600560003373ffffffffffffffffffffffffffffffffffffffff1673ffffffffffffffffffffffffffffffffffffffff168152602001908152602001600020541461071c57600080fd5b600061072782610e2e565b90506064816107369190611cef565b816107419190611d4f565b905061074d8282610e73565b5050565b806004600082815260200190815260200160002060009054906101000a900473ffffffffffffffffffffffffffffffffffffffff1673ffffffffffffffffffffffffffffffffffffffff163373ffffffffffffffffffffffffffffffffffffffff16146107bd57600080fd5b60065434146107cb57600080fd5b600754600c54106107db57600080fd5b816008600c54600481106107f2576107f1611d83565b5b0181905550600c600081548092919061080a90611db2565b919050555034600e60008282546108219190611dfa565b92505081905550600754600c540361083c5761083b611076565b5b5050565b60008060009054906101000a900473ffffffffffffffffffffffffffffffffffffffff16905090565b60008060009054906101000a900473ffffffffffffffffffffffffffffffffffffffff1673ffffffffffffffffffffffffffffffffffffffff163373ffffffffffffffffffffffffffffffffffffffff1614905090565b600381815481106108d057600080fd5b90600052602060002090600302016000915090508060000180546108f390611e7f565b80601f016020809104026020016040519081016040528092919081815260200182805461091f90611e7f565b801561096c5780601f106109415761010080835404028352916020019161096c565b820191906000526020600020905b81548152906001019060200180831161094f57829003601f168201915b5050505050908060010154908060020160009054906101000a900461ffff16908060020160029054906101000a900461ffff16905084565b60606000600560008473ffffffffffffffffffffffffffffffffffffffff1673ffffffffffffffffffffffffffffffffffffffff1681526020019081526020016000205467ffffffffffffffff811115610a0157610a00611945565b5b604051908082528060200260200182016040528015610a2f5781602001602082028036833780820191505090505b5090506000805b600380549050811015610aeb578473ffffffffffffffffffffffffffffffffffffffff166004600083815260200190815260200160002060009054906101000a900473ffffffffffffffffffffffffffffffffffffffff1673ffffffffffffffffffffffffffffffffffffffff1603610ad85780838381518110610abd57610abc611d83565b5b6020026020010181815250508180610ad490611db2565b9250505b8080610ae390611db2565b915050610a36565b508192505050919050565b60046020528060005260406000206000915054906101000a900473ffffffffffffffffffffffffffffffffffffffff1681565b806004600082815260200190815260200160002060009054906101000a900473ffffffffffffffffffffffffffffffffffffffff1673ffffffffffffffffffffffffffffffffffffffff163373ffffffffffffffffffffffffffffffffffffffff1614610b9557600080fd5b6006543414610ba357600080fd5b60016004610bb19190611d4f565b600c5410610bbe57600080fd5b816008600c5460048110610bd557610bd4611d83565b5b0181905550600c6000815480929190610bed90611db2565b919050555060016004610c009190611d4f565b600c5403610c1457610c13600c546112ff565b5b5050565b610c20610869565b610c2957600080fd5b8060068190555050565b610c3b610869565b610c4457600080fd5b610c4d816114fc565b50565b610ca36001600560008573ffffffffffffffffffffffffffffffffffffffff1673ffffffffffffffffffffffffffffffffffffffff168152602001908152602001600020546115f290919063ffffffff16565b600560008473ffffffffffffffffffffffffffffffffffffffff1673ffffffffffffffffffffffffffffffffffffffff16815260200190815260200160002081905550610d396001600560003373ffffffffffffffffffffffffffffffffffffffff1673ffffffffffffffffffffffffffffffffffffffff1681526020019081526020016000205461161e90919063ffffffff16565b600560003373ffffffffffffffffffffffffffffffffffffffff1673ffffffffffffffffffffffffffffffffffffffff16815260200190815260200160002081905550816004600083815260200190815260200160002060006101000a81548173ffffffffffffffffffffffffffffffffffffffff021916908373ffffffffffffffffffffffffffffffffffffffff160217905550808273ffffffffffffffffffffffffffffffffffffffff168473ffffffffffffffffffffffffffffffffffffffff167fddf252ad1be2c89b69c2b068fc378daa952ba7f163c4a11628f55a4df523b3ef60405160405180910390a4505050565b60008082604051602001610e429190611eec565b6040516020818303038152906040528051906020012060001c905060025481610e6b9190611cef565b915050919050565b60036040518060800160405280848152602001838152602001600061ffff168152602001600061ffff1681525090806001815401808255809150506001900390600052602060002090600302016000909190919091506000820151816000019080519060200190610ee592919061169e565b506020820151816001015560408201518160020160006101000a81548161ffff021916908361ffff16021790555060608201518160020160026101000a81548161ffff021916908361ffff160217905550505060006001600380549050610f4c9190611d4f565b9050336004600083815260200190815260200160002060006101000a81548173ffffffffffffffffffffffffffffffffffffffff021916908373ffffffffffffffffffffffffffffffffffffffff160217905550610ff36001600560003373ffffffffffffffffffffffffffffffffffffffff1673ffffffffffffffffffffffffffffffffffffffff168152602001908152602001600020546115f290919063ffffffff16565b600560003373ffffffffffffffffffffffffffffffffffffffff1673ffffffffffffffffffffffffffffffffffffffff168152602001908152602001600020819055507f7512d04afc710279875c44ad61b2e78695e3824abb3178ec09c9199e13314c5d81848460405161106993929190611f03565b60405180910390a1505050565b600060086110846004611645565b6004811061109557611094611d83565b5b01549050600381815481106110ad576110ac611d83565b5b9060005260206000209060030201600201600081819054906101000a900461ffff16809291906110dc90611f41565b91906101000a81548161ffff021916908361ffff1602179055505060005b60048110156111895760036008826004811061111957611118611d83565b5b01548154811061112c5761112b611d83565b5b9060005260206000209060030201600201600281819054906101000a900461ffff168092919061115b90611f41565b91906101000a81548161ffff021916908361ffff16021790555050808061118190611db2565b9150506110fa565b506003818154811061119e5761119d611d83565b5b9060005260206000209060030201600201600281819054906101000a900461ffff16809291906111cd90611f6b565b91906101000a81548161ffff021916908361ffff1602179055505060006004600083815260200190815260200160002060009054906101000a900473ffffffffffffffffffffffffffffffffffffffff1690508073ffffffffffffffffffffffffffffffffffffffff166108fc600e549081150290604051600060405180830381858888f19350505050158015611268573d6000803e3d6000fd5b507ff9551cded3b623d6e227f21e2c17bc856565662bcfc6c6bfbe9020c91659850b60046006546112999190611f94565b600460086004600087815260200190815260200160002060009054906101000a900473ffffffffffffffffffffffffffffffffffffffff16866040516112e39594939291906120bd565b60405180910390a16000600c819055506000600e819055505050565b60006008826004811061131557611314611d83565b5b015490506003818154811061132d5761132c611d83565b5b9060005260206000209060030201600201600081819054906101000a900461ffff168092919061135c90611f41565b91906101000a81548161ffff021916908361ffff1602179055505060005b60048110156114095760036008826004811061139957611398611d83565b5b0154815481106113ac576113ab611d83565b5b9060005260206000209060030201600201600281819054906101000a900461ffff16809291906113db90611f41565b91906101000a81548161ffff021916908361ffff16021790555050808061140190611db2565b91505061137a565b506003818154811061141e5761141d611d83565b5b9060005260206000209060030201600201600281819054906101000a900461ffff168092919061144d90611f6b565b91906101000a81548161ffff021916908361ffff160217905550506004600082815260200190815260200160002060009054906101000a900473ffffffffffffffffffffffffffffffffffffffff1673ffffffffffffffffffffffffffffffffffffffff166108fc60046006546114c49190611f94565b9081150290604051600060405180830381858888f193505050501580156114ef573d6000803e3d6000fd5b506000600c819055505050565b600073ffffffffffffffffffffffffffffffffffffffff168173ffffffffffffffffffffffffffffffffffffffff160361153557600080fd5b8073ffffffffffffffffffffffffffffffffffffffff1660008054906101000a900473ffffffffffffffffffffffffffffffffffffffff1673ffffffffffffffffffffffffffffffffffffffff167f8be0079c531659141344cd1fd0a4f28419497f9722a3daafe3b4186f6b6457e060405160405180910390a3806000806101000a81548173ffffffffffffffffffffffffffffffffffffffff021916908373ffffffffffffffffffffffffffffffffffffffff16021790555050565b60008082846116019190611dfa565b90508381101561161457611613612111565b5b8091505092915050565b60008282111561163157611630612111565b5b818361163d9190611d4f565b905092915050565b60006001600d546116569190611dfa565b600d81905550814233600d54604051602001611674939291906121a9565b6040516020818303038152906040528051906020012060001c6116979190611cef565b9050919050565b8280546116aa90611e7f565b90600052602060002090601f0160209004810192826116cc5760008555611713565b82601f106116e557805160ff1916838001178555611713565b82800160010185558215611713579182015b828111156117125782518255916020019190600101906116f7565b5b5090506117209190611724565b5090565b5b8082111561173d576000816000905550600101611725565b5090565b6000604051905090565b600080fd5b600080fd5b600073ffffffffffffffffffffffffffffffffffffffff82169050919050565b600061178082611755565b9050919050565b61179081611775565b811461179b57600080fd5b50565b6000813590506117ad81611787565b92915050565b6000819050919050565b6117c6816117b3565b81146117d157600080fd5b50565b6000813590506117e3816117bd565b92915050565b60008060408385031215611800576117ff61174b565b5b600061180e8582860161179e565b925050602061181f858286016117d4565b9150509250929050565b6000806000606084860312156118425761184161174b565b5b60006118508682870161179e565b93505060206118618682870161179e565b9250506040611872868287016117d4565b9150509250925092565b6000602082840312156118925761189161174b565b5b60006118a0848285016117d4565b91505092915050565b6118b281611775565b82525050565b60006020820190506118cd60008301846118a9565b92915050565b6000602082840312156118e9576118e861174b565b5b60006118f78482850161179e565b91505092915050565b611909816117b3565b82525050565b60006020820190506119246000830184611900565b92915050565b600080fd5b600080fd5b6000601f19601f8301169050919050565b7f4e487b7100000000000000000000000000000000000000000000000000000000600052604160045260246000fd5b61197d82611934565b810181811067ffffffffffffffff8211171561199c5761199b611945565b5b80604052505050565b60006119af611741565b90506119bb8282611974565b919050565b600067ffffffffffffffff8211156119db576119da611945565b5b6119e482611934565b9050602081019050919050565b82818337600083830152505050565b6000611a13611a0e846119c0565b6119a5565b905082815260208101848484011115611a2f57611a2e61192f565b5b611a3a8482856119f1565b509392505050565b600082601f830112611a5757611a5661192a565b5b8135611a67848260208601611a00565b91505092915050565b600060208284031215611a8657611a8561174b565b5b600082013567ffffffffffffffff811115611aa457611aa3611750565b5b611ab084828501611a42565b91505092915050565b60008115159050919050565b611ace81611ab9565b82525050565b6000602082019050611ae96000830184611ac5565b92915050565b600081519050919050565b600082825260208201905092915050565b60005b83811015611b29578082015181840152602081019050611b0e565b83811115611b38576000848401525b50505050565b6000611b4982611aef565b611b538185611afa565b9350611b63818560208601611b0b565b611b6c81611934565b840191505092915050565b600061ffff82169050919050565b611b8e81611b77565b82525050565b60006080820190508181036000830152611bae8187611b3e565b9050611bbd6020830186611900565b611bca6040830185611b85565b611bd76060830184611b85565b95945050505050565b600081519050919050565b600082825260208201905092915050565b6000819050602082019050919050565b611c15816117b3565b82525050565b6000611c278383611c0c565b60208301905092915050565b6000602082019050919050565b6000611c4b82611be0565b611c558185611beb565b9350611c6083611bfc565b8060005b83811015611c91578151611c788882611c1b565b9750611c8383611c33565b925050600181019050611c64565b5085935050505092915050565b60006020820190508181036000830152611cb88184611c40565b905092915050565b7f4e487b7100000000000000000000000000000000000000000000000000000000600052601260045260246000fd5b6000611cfa826117b3565b9150611d05836117b3565b925082611d1557611d14611cc0565b5b828206905092915050565b7f4e487b7100000000000000000000000000000000000000000000000000000000600052601160045260246000fd5b6000611d5a826117b3565b9150611d65836117b3565b925082821015611d7857611d77611d20565b5b828203905092915050565b7f4e487b7100000000000000000000000000000000000000000000000000000000600052603260045260246000fd5b6000611dbd826117b3565b91507fffffffffffffffffffffffffffffffffffffffffffffffffffffffffffffffff8203611def57611dee611d20565b5b600182019050919050565b6000611e05826117b3565b9150611e10836117b3565b9250827fffffffffffffffffffffffffffffffffffffffffffffffffffffffffffffffff03821115611e4557611e44611d20565b5b828201905092915050565b7f4e487b7100000000000000000000000000000000000000000000000000000000600052602260045260246000fd5b60006002820490506001821680611e9757607f821691505b602082108103611eaa57611ea9611e50565b5b50919050565b600081905092915050565b6000611ec682611aef565b611ed08185611eb0565b9350611ee0818560208601611b0b565b80840191505092915050565b6000611ef88284611ebb565b915081905092915050565b6000606082019050611f186000830186611900565b8181036020830152611f2a8185611b3e565b9050611f396040830184611900565b949350505050565b6000611f4c82611b77565b915061ffff8203611f6057611f5f611d20565b5b600182019050919050565b6000611f7682611b77565b915060008203611f8957611f88611d20565b5b600182039050919050565b6000611f9f826117b3565b9150611faa836117b3565b9250817fffffffffffffffffffffffffffffffffffffffffffffffffffffffffffffffff0483118215151615611fe357611fe2611d20565b5b828202905092915050565b600060049050919050565b600081905092915050565b6000819050919050565b60008160001c9050919050565b6000819050919050565b60006120386120338361200e565b61201b565b9050919050565b600061204b8254612025565b9050919050565b6000600182019050919050565b61206881611fee565b6120728184611ff9565b925061207d82612004565b8060005b838110156120b5576120928261203f565b61209c8782611c1b565b96506120a783612052565b925050600181019050612081565b505050505050565b6000610100820190506120d36000830188611900565b6120e06020830187611900565b6120ed604083018661205f565b6120fa60c08301856118a9565b61210760e0830184611900565b9695505050505050565b7f4e487b7100000000000000000000000000000000000000000000000000000000600052600160045260246000fd5b6000819050919050565b61215b612156826117b3565b612140565b82525050565b60008160601b9050919050565b600061217982612161565b9050919050565b600061218b8261216e565b9050919050565b6121a361219e82611775565b612180565b82525050565b60006121b5828661214a565b6020820191506121c58285612192565b6014820191506121d5828461214a565b60208201915081905094935050505056fea264697066735822122003774eefab924a81f5194981cb53278c71bcdb429ff590dad80b1f279a69d2a164736f6c634300080e0033",
  "immutableReferences": {},
  "source": "// SPDX-License-Identifier: GPL-3.0\r\npragma solidity >=0.7.0 <0.9.0;\r\n\r\nimport \"./horseracing.sol\";\r\nimport \"./erc721.sol\";\r\nimport \"./safemath.sol\";\r\n\r\ncontract HorseOwnership is HorseRacing, ERC721 {\r\n    using SafeMath for uint256;\r\n\r\n    mapping(uint256 => address) horseApprovals;\r\n\r\n    function balanceOf(address _owner) external view override returns (uint256) {\r\n        return ownerHorseCount[_owner];\r\n    }\r\n\r\n    function ownerOf(uint256 _tokenId) external view override returns (address) {\r\n        return horseToOwner[_tokenId];\r\n    }\r\n\r\n    function _transfer(\r\n        address _from,\r\n        address _to,\r\n        uint256 _tokenId\r\n    ) private {\r\n        ownerHorseCount[_to] = ownerHorseCount[_to].add(1);\r\n        ownerHorseCount[msg.sender] = ownerHorseCount[msg.sender].sub(1);\r\n        horseToOwner[_tokenId] = _to;\r\n        emit Transfer(_from, _to, _tokenId);\r\n    }\r\n\r\n    function transferFrom(\r\n        address _from,\r\n        address _to,\r\n        uint256 _tokenId\r\n    ) external payable override {\r\n        require(\r\n            horseToOwner[_tokenId] == msg.sender ||\r\n                horseApprovals[_tokenId] == msg.sender\r\n        );\r\n        _transfer(_from, _to, _tokenId);\r\n    }\r\n\r\n    function approve(address _approved, uint256 _tokenId)\r\n        external\r\n        payable\r\n        override\r\n        onlyOwnerOf(_tokenId)\r\n    {\r\n        horseApprovals[_tokenId] = _approved;\r\n        emit Approval(msg.sender, _approved, _tokenId);\r\n    }\r\n}\r\n",
  "sourcePath": "C:\\Users\\Dante\\Documents\\GitHub\\TDL-SinoKa-La-Ferrigneta\\contracts\\racing\\horseownership.sol",
  "compiler": {
    "name": "solc",
    "version": "0.8.14+commit.80d49f37.Emscripten.clang"
  },
  "schemaVersion": "3.4.4",
  "updatedAt": "2022-06-29T02:44:35.046Z",
  "devdoc": {
    "kind": "dev",
    "methods": {
      "isOwner()": {
        "returns": {
          "_0": "true if `msg.sender` is the owner of the contract."
        }
      },
      "owner()": {
        "returns": {
          "_0": "the address of the owner."
        }
      },
      "renounceOwnership()": {
        "details": "Allows the current owner to relinquish control of the contract."
      },
      "transferOwnership(address)": {
        "details": "Allows the current owner to transfer control of the contract to a newOwner.",
        "params": {
          "newOwner": "The address to transfer ownership to."
        }
      }
    },
    "version": 1
  },
  "userdoc": {
    "kind": "user",
    "methods": {
      "renounceOwnership()": {
        "notice": "Renouncing to ownership will leave the contract without an owner. It will not be possible to call the functions with the `onlyOwner` modifier anymore."
      }
    },
    "version": 1
  }
}