{
  "contractName": "HorseRacing",
  "abi": [
    {
      "anonymous": false,
      "inputs": [
        {
          "indexed": false,
          "internalType": "uint256",
          "name": "horseId",
          "type": "uint256"
        },
        {
          "indexed": false,
          "internalType": "string",
          "name": "name",
          "type": "string"
        },
        {
          "indexed": false,
          "internalType": "uint256",
          "name": "dna",
          "type": "uint256"
        }
      ],
      "name": "NewHorse",
      "type": "event"
    },
    {
      "anonymous": false,
      "inputs": [
        {
          "indexed": true,
          "internalType": "address",
          "name": "previousOwner",
          "type": "address"
        },
        {
          "indexed": true,
          "internalType": "address",
          "name": "newOwner",
          "type": "address"
        }
      ],
      "name": "OwnershipTransferred",
      "type": "event"
    },
    {
      "inputs": [
        {
          "internalType": "string",
          "name": "_name",
          "type": "string"
        }
      ],
      "name": "createRandomHorse",
      "outputs": [],
      "stateMutability": "nonpayable",
      "type": "function"
    },
    {
      "inputs": [
        {
          "internalType": "address",
          "name": "_owner",
          "type": "address"
        }
      ],
      "name": "getHorsesByOwner",
      "outputs": [
        {
          "internalType": "uint256[]",
          "name": "",
          "type": "uint256[]"
        }
      ],
      "stateMutability": "view",
      "type": "function"
    },
    {
      "inputs": [
        {
          "internalType": "uint256",
          "name": "",
          "type": "uint256"
        }
      ],
      "name": "horseToOwner",
      "outputs": [
        {
          "internalType": "address",
          "name": "",
          "type": "address"
        }
      ],
      "stateMutability": "view",
      "type": "function"
    },
    {
      "inputs": [
        {
          "internalType": "uint256",
          "name": "",
          "type": "uint256"
        }
      ],
      "name": "horses",
      "outputs": [
        {
          "internalType": "string",
          "name": "name",
          "type": "string"
        },
        {
          "internalType": "uint256",
          "name": "dna",
          "type": "uint256"
        },
        {
          "internalType": "uint16",
          "name": "winCount",
          "type": "uint16"
        },
        {
          "internalType": "uint16",
          "name": "lossCount",
          "type": "uint16"
        }
      ],
      "stateMutability": "view",
      "type": "function"
    },
    {
      "inputs": [],
      "name": "isOwner",
      "outputs": [
        {
          "internalType": "bool",
          "name": "",
          "type": "bool"
        }
      ],
      "stateMutability": "view",
      "type": "function"
    },
    {
      "inputs": [],
      "name": "owner",
      "outputs": [
        {
          "internalType": "address",
          "name": "",
          "type": "address"
        }
      ],
      "stateMutability": "view",
      "type": "function"
    },
    {
      "inputs": [],
      "name": "renounceOwnership",
      "outputs": [],
      "stateMutability": "nonpayable",
      "type": "function"
    },
    {
      "inputs": [
        {
          "internalType": "address",
          "name": "newOwner",
          "type": "address"
        }
      ],
      "name": "transferOwnership",
      "outputs": [],
      "stateMutability": "nonpayable",
      "type": "function"
    },
    {
      "inputs": [
        {
          "internalType": "uint256",
          "name": "_bet",
          "type": "uint256"
        }
      ],
      "name": "setBet",
      "outputs": [],
      "stateMutability": "nonpayable",
      "type": "function"
    },
    {
      "inputs": [
        {
          "internalType": "uint256",
          "name": "_horseId",
          "type": "uint256"
        }
      ],
      "name": "bet",
      "outputs": [],
      "stateMutability": "payable",
      "type": "function"
    }
  ],
  "bytecode": "0x60806040526010600155600154600a6200001a91906200028e565b600255662386f26fc100006006556000600e556000600f553480156200003f57600080fd5b50336000806101000a81548173ffffffffffffffffffffffffffffffffffffffff021916908373ffffffffffffffffffffffffffffffffffffffff16021790555060008054906101000a900473ffffffffffffffffffffffffffffffffffffffff1673ffffffffffffffffffffffffffffffffffffffff16600073ffffffffffffffffffffffffffffffffffffffff167f8be0079c531659141344cd1fd0a4f28419497f9722a3daafe3b4186f6b6457e060405160405180910390a3620002df565b7f4e487b7100000000000000000000000000000000000000000000000000000000600052601160045260246000fd5b60008160011c9050919050565b6000808291508390505b60018511156200018f5780860481111562000167576200016662000101565b5b6001851615620001775780820291505b8081029050620001878562000130565b945062000147565b94509492505050565b600082620001aa57600190506200027d565b81620001ba57600090506200027d565b8160018114620001d35760028114620001de5762000214565b60019150506200027d565b60ff841115620001f357620001f262000101565b5b8360020a9150848211156200020d576200020c62000101565b5b506200027d565b5060208310610133831016604e8410600b84101617156200024e5782820a90508381111562000248576200024762000101565b5b6200027d565b6200025d84848460016200013d565b9250905081840481111562000277576200027662000101565b5b81810290505b9392505050565b6000819050919050565b60006200029b8262000284565b9150620002a88362000284565b9250620002d77fffffffffffffffffffffffffffffffffffffffffffffffffffffffffffffffff848462000198565b905092915050565b61172680620002ef6000396000f3fe6080604052600436106100915760003560e01c80638f8b5cde116100595780638f8b5cde14610148578063c8b62d6414610188578063da677fa2146101c5578063e8399cc614610202578063f2fde38b1461022b57610091565b8063715018a614610096578063735e9c50146100ad5780637365870b146100d65780638da5cb5b146100f25780638f32d59b1461011d575b600080fd5b3480156100a257600080fd5b506100ab610254565b005b3480156100b957600080fd5b506100d460048036038101906100cf9190610f76565b610323565b005b6100f060048036038101906100eb9190610ff5565b6103a4565b005b3480156100fe57600080fd5b50610107610490565b6040516101149190611063565b60405180910390f35b34801561012957600080fd5b506101326104b9565b60405161013f9190611099565b60405180910390f35b34801561015457600080fd5b5061016f600480360381019061016a9190610ff5565b610510565b60405161017f9493929190611168565b60405180910390f35b34801561019457600080fd5b506101af60048036038101906101aa91906111e0565b6105f4565b6040516101bc91906112cb565b60405180910390f35b3480156101d157600080fd5b506101ec60048036038101906101e79190610ff5565b610746565b6040516101f99190611063565b60405180910390f35b34801561020e57600080fd5b5061022960048036038101906102249190610ff5565b610779565b005b34801561023757600080fd5b50610252600480360381019061024d91906111e0565b610794565b005b61025c6104b9565b61026557600080fd5b600073ffffffffffffffffffffffffffffffffffffffff1660008054906101000a900473ffffffffffffffffffffffffffffffffffffffff1673ffffffffffffffffffffffffffffffffffffffff167f8be0079c531659141344cd1fd0a4f28419497f9722a3daafe3b4186f6b6457e060405160405180910390a360008060006101000a81548173ffffffffffffffffffffffffffffffffffffffff021916908373ffffffffffffffffffffffffffffffffffffffff160217905550565b6000600560003373ffffffffffffffffffffffffffffffffffffffff1673ffffffffffffffffffffffffffffffffffffffff168152602001908152602001600020541461036f57600080fd5b600061037a826107b1565b9050606481610389919061131c565b81610394919061137c565b90506103a082826107f6565b5050565b806004600082815260200190815260200160002060009054906101000a900473ffffffffffffffffffffffffffffffffffffffff1673ffffffffffffffffffffffffffffffffffffffff163373ffffffffffffffffffffffffffffffffffffffff161461041057600080fd5b600654341461041e57600080fd5b6001600761042c919061137c565b600e541061043957600080fd5b816007600e54600781106104505761044f6113b0565b5b0181905550600e6000815480929190610468906113df565b91905055506001600761047b919061137c565b600e540361048c5761048b6109f9565b5b5050565b60008060009054906101000a900473ffffffffffffffffffffffffffffffffffffffff16905090565b60008060009054906101000a900473ffffffffffffffffffffffffffffffffffffffff1673ffffffffffffffffffffffffffffffffffffffff163373ffffffffffffffffffffffffffffffffffffffff1614905090565b6003818154811061052057600080fd5b906000526020600020906003020160009150905080600001805461054390611456565b80601f016020809104026020016040519081016040528092919081815260200182805461056f90611456565b80156105bc5780601f10610591576101008083540402835291602001916105bc565b820191906000526020600020905b81548152906001019060200180831161059f57829003601f168201915b5050505050908060010154908060020160009054906101000a900461ffff16908060020160029054906101000a900461ffff16905084565b60606000600560008473ffffffffffffffffffffffffffffffffffffffff1673ffffffffffffffffffffffffffffffffffffffff1681526020019081526020016000205467ffffffffffffffff81111561065157610650610e4b565b5b60405190808252806020026020018201604052801561067f5781602001602082028036833780820191505090505b5090506000805b60038054905081101561073b578473ffffffffffffffffffffffffffffffffffffffff166004600083815260200190815260200160002060009054906101000a900473ffffffffffffffffffffffffffffffffffffffff1673ffffffffffffffffffffffffffffffffffffffff1603610728578083838151811061070d5761070c6113b0565b5b6020026020010181815250508180610724906113df565b9250505b8080610733906113df565b915050610686565b508192505050919050565b60046020528060005260406000206000915054906101000a900473ffffffffffffffffffffffffffffffffffffffff1681565b6107816104b9565b61078a57600080fd5b8060068190555050565b61079c6104b9565b6107a557600080fd5b6107ae81610bfe565b50565b600080826040516020016107c591906114c3565b6040516020818303038152906040528051906020012060001c9050600254816107ee919061131c565b915050919050565b60036040518060800160405280848152602001838152602001600061ffff168152602001600061ffff1681525090806001815401808255809150506001900390600052602060002090600302016000909190919091506000820151816000019080519060200190610868929190610d79565b506020820151816001015560408201518160020160006101000a81548161ffff021916908361ffff16021790555060608201518160020160026101000a81548161ffff021916908361ffff1602179055505050600060016003805490506108cf919061137c565b9050336004600083815260200190815260200160002060006101000a81548173ffffffffffffffffffffffffffffffffffffffff021916908373ffffffffffffffffffffffffffffffffffffffff1602179055506109766001600560003373ffffffffffffffffffffffffffffffffffffffff1673ffffffffffffffffffffffffffffffffffffffff16815260200190815260200160002054610cf490919063ffffffff16565b600560003373ffffffffffffffffffffffffffffffffffffffff1673ffffffffffffffffffffffffffffffffffffffff168152602001908152602001600020819055507f7512d04afc710279875c44ad61b2e78695e3824abb3178ec09c9199e13314c5d8184846040516109ec939291906114da565b60405180910390a1505050565b60006007610a076007610d20565b60078110610a1857610a176113b0565b5b0154905060038181548110610a3057610a2f6113b0565b5b9060005260206000209060030201600201600081819054906101000a900461ffff1680929190610a5f90611518565b91906101000a81548161ffff021916908361ffff1602179055505060005b6007811015610b0c57600360078260078110610a9c57610a9b6113b0565b5b015481548110610aaf57610aae6113b0565b5b9060005260206000209060030201600201600281819054906101000a900461ffff1680929190610ade90611518565b91906101000a81548161ffff021916908361ffff160217905550508080610b04906113df565b915050610a7d565b5060038181548110610b2157610b206113b0565b5b9060005260206000209060030201600201600281819054906101000a900461ffff1680929190610b5090611542565b91906101000a81548161ffff021916908361ffff160217905550506004600082815260200190815260200160002060009054906101000a900473ffffffffffffffffffffffffffffffffffffffff1673ffffffffffffffffffffffffffffffffffffffff166108fc6007600654610bc7919061156b565b9081150290604051600060405180830381858888f19350505050158015610bf2573d6000803e3d6000fd5b506000600e8190555050565b600073ffffffffffffffffffffffffffffffffffffffff168173ffffffffffffffffffffffffffffffffffffffff1603610c3757600080fd5b8073ffffffffffffffffffffffffffffffffffffffff1660008054906101000a900473ffffffffffffffffffffffffffffffffffffffff1673ffffffffffffffffffffffffffffffffffffffff167f8be0079c531659141344cd1fd0a4f28419497f9722a3daafe3b4186f6b6457e060405160405180910390a3806000806101000a81548173ffffffffffffffffffffffffffffffffffffffff021916908373ffffffffffffffffffffffffffffffffffffffff16021790555050565b6000808284610d0391906115c5565b905083811015610d1657610d1561161b565b5b8091505092915050565b60006001600f54610d3191906115c5565b600f81905550814233600f54604051602001610d4f939291906116b3565b6040516020818303038152906040528051906020012060001c610d72919061131c565b9050919050565b828054610d8590611456565b90600052602060002090601f016020900481019282610da75760008555610dee565b82601f10610dc057805160ff1916838001178555610dee565b82800160010185558215610dee579182015b82811115610ded578251825591602001919060010190610dd2565b5b509050610dfb9190610dff565b5090565b5b80821115610e18576000816000905550600101610e00565b5090565b6000604051905090565b600080fd5b600080fd5b600080fd5b600080fd5b6000601f19601f8301169050919050565b7f4e487b7100000000000000000000000000000000000000000000000000000000600052604160045260246000fd5b610e8382610e3a565b810181811067ffffffffffffffff82111715610ea257610ea1610e4b565b5b80604052505050565b6000610eb5610e1c565b9050610ec18282610e7a565b919050565b600067ffffffffffffffff821115610ee157610ee0610e4b565b5b610eea82610e3a565b9050602081019050919050565b82818337600083830152505050565b6000610f19610f1484610ec6565b610eab565b905082815260208101848484011115610f3557610f34610e35565b5b610f40848285610ef7565b509392505050565b600082601f830112610f5d57610f5c610e30565b5b8135610f6d848260208601610f06565b91505092915050565b600060208284031215610f8c57610f8b610e26565b5b600082013567ffffffffffffffff811115610faa57610fa9610e2b565b5b610fb684828501610f48565b91505092915050565b6000819050919050565b610fd281610fbf565b8114610fdd57600080fd5b50565b600081359050610fef81610fc9565b92915050565b60006020828403121561100b5761100a610e26565b5b600061101984828501610fe0565b91505092915050565b600073ffffffffffffffffffffffffffffffffffffffff82169050919050565b600061104d82611022565b9050919050565b61105d81611042565b82525050565b60006020820190506110786000830184611054565b92915050565b60008115159050919050565b6110938161107e565b82525050565b60006020820190506110ae600083018461108a565b92915050565b600081519050919050565b600082825260208201905092915050565b60005b838110156110ee5780820151818401526020810190506110d3565b838111156110fd576000848401525b50505050565b600061110e826110b4565b61111881856110bf565b93506111288185602086016110d0565b61113181610e3a565b840191505092915050565b61114581610fbf565b82525050565b600061ffff82169050919050565b6111628161114b565b82525050565b600060808201905081810360008301526111828187611103565b9050611191602083018661113c565b61119e6040830185611159565b6111ab6060830184611159565b95945050505050565b6111bd81611042565b81146111c857600080fd5b50565b6000813590506111da816111b4565b92915050565b6000602082840312156111f6576111f5610e26565b5b6000611204848285016111cb565b91505092915050565b600081519050919050565b600082825260208201905092915050565b6000819050602082019050919050565b61124281610fbf565b82525050565b60006112548383611239565b60208301905092915050565b6000602082019050919050565b60006112788261120d565b6112828185611218565b935061128d83611229565b8060005b838110156112be5781516112a58882611248565b97506112b083611260565b925050600181019050611291565b5085935050505092915050565b600060208201905081810360008301526112e5818461126d565b905092915050565b7f4e487b7100000000000000000000000000000000000000000000000000000000600052601260045260246000fd5b600061132782610fbf565b915061133283610fbf565b925082611342576113416112ed565b5b828206905092915050565b7f4e487b7100000000000000000000000000000000000000000000000000000000600052601160045260246000fd5b600061138782610fbf565b915061139283610fbf565b9250828210156113a5576113a461134d565b5b828203905092915050565b7f4e487b7100000000000000000000000000000000000000000000000000000000600052603260045260246000fd5b60006113ea82610fbf565b91507fffffffffffffffffffffffffffffffffffffffffffffffffffffffffffffffff820361141c5761141b61134d565b5b600182019050919050565b7f4e487b7100000000000000000000000000000000000000000000000000000000600052602260045260246000fd5b6000600282049050600182168061146e57607f821691505b60208210810361148157611480611427565b5b50919050565b600081905092915050565b600061149d826110b4565b6114a78185611487565b93506114b78185602086016110d0565b80840191505092915050565b60006114cf8284611492565b915081905092915050565b60006060820190506114ef600083018661113c565b81810360208301526115018185611103565b9050611510604083018461113c565b949350505050565b60006115238261114b565b915061ffff82036115375761153661134d565b5b600182019050919050565b600061154d8261114b565b9150600082036115605761155f61134d565b5b600182039050919050565b600061157682610fbf565b915061158183610fbf565b9250817fffffffffffffffffffffffffffffffffffffffffffffffffffffffffffffffff04831182151516156115ba576115b961134d565b5b828202905092915050565b60006115d082610fbf565b91506115db83610fbf565b9250827fffffffffffffffffffffffffffffffffffffffffffffffffffffffffffffffff038211156116105761160f61134d565b5b828201905092915050565b7f4e487b7100000000000000000000000000000000000000000000000000000000600052600160045260246000fd5b6000819050919050565b61166561166082610fbf565b61164a565b82525050565b60008160601b9050919050565b60006116838261166b565b9050919050565b600061169582611678565b9050919050565b6116ad6116a882611042565b61168a565b82525050565b60006116bf8286611654565b6020820191506116cf828561169c565b6014820191506116df8284611654565b60208201915081905094935050505056fea264697066735822122061c4163cf95c682fd16a3c20c3b500781f546d0641b865a6af3b69aaef862d0264736f6c634300080e0033",
  "immutableReferences": {},
  "source": "// SPDX-License-Identifier: GPL-3.0\npragma solidity >=0.7.0 <0.9.0;\n\nimport \"./horsehelper.sol\";\n\ncontract HorseRacing is HorseHelper {\n    uint256 raceBet = 0.01 ether;\n    uint256[7] currentRace;\n    uint256 idx = 0;\n    uint256 randNonce = 0;\n\n    function randMod(uint256 _modulus) internal returns (uint256) {\n        randNonce = randNonce + 1;\n        return\n            uint256(\n                keccak256(\n                    abi.encodePacked(block.timestamp, msg.sender, randNonce)\n                )\n            ) % _modulus;\n    }\n\n    function setBet(uint256 _bet) external onlyOwner {\n        raceBet = _bet;\n    }\n\n    function bet(uint256 _horseId) external payable onlyOwnerOf(_horseId) {\n        require(msg.value == raceBet);\n        require(idx < currentRace.length - 1);\n        currentRace[idx] = _horseId;\n        idx++;\n\n        if (idx == currentRace.length - 1) {\n            // si se completan los caballos, se ejecuta la carrera\n            race();\n        }\n    }\n\n    function race() internal {\n        uint256 winnerId = currentRace[randMod(currentRace.length)];\n        horses[winnerId].winCount++;\n        for (uint256 i = 0; i < currentRace.length; i++) {\n            horses[currentRace[i]].lossCount++;\n        }\n        horses[winnerId].lossCount--;\n\n        // transferir el premio al ganador (chequear)\n        payable(horseToOwner[winnerId]).transfer(raceBet * currentRace.length);\n\n        // emitir evento de race para mostrarla en el front\n        idx = 0;\n    }\n}\n",
  "sourcePath": "/home/matias/Desktop/Facultad/Teoria del Lenguaje/Repo/TDL-SinoKa-La-Ferrigneta/contracts/racing/horseracing.sol",
  "compiler": {
    "name": "solc",
    "version": "0.8.14+commit.80d49f37.Emscripten.clang"
  },
  "schemaVersion": "3.4.7",
  "updatedAt": "2022-06-17T22:37:52.297Z",
  "devdoc": {
    "kind": "dev",
    "methods": {
      "isOwner()": {
        "returns": {
          "_0": "true if `msg.sender` is the owner of the contract."
        }
      },
      "owner()": {
        "returns": {
          "_0": "the address of the owner."
        }
      },
      "renounceOwnership()": {
        "details": "Allows the current owner to relinquish control of the contract."
      },
      "transferOwnership(address)": {
        "details": "Allows the current owner to transfer control of the contract to a newOwner.",
        "params": {
          "newOwner": "The address to transfer ownership to."
        }
      }
    },
    "version": 1
  },
  "userdoc": {
    "kind": "user",
    "methods": {
      "renounceOwnership()": {
        "notice": "Renouncing to ownership will leave the contract without an owner. It will not be possible to call the functions with the `onlyOwner` modifier anymore."
      }
    },
    "version": 1
  }
}