{
  "contractName": "HorseRacing",
  "abi": [
    {
      "anonymous": false,
      "inputs": [
        {
          "indexed": false,
          "internalType": "uint256",
          "name": "horseId",
          "type": "uint256"
        },
        {
          "indexed": false,
          "internalType": "string",
          "name": "name",
          "type": "string"
        },
        {
          "indexed": false,
          "internalType": "uint256",
          "name": "dna",
          "type": "uint256"
        }
      ],
      "name": "NewHorse",
      "type": "event"
    },
    {
      "anonymous": false,
      "inputs": [
        {
          "indexed": true,
          "internalType": "address",
          "name": "previousOwner",
          "type": "address"
        },
        {
          "indexed": true,
          "internalType": "address",
          "name": "newOwner",
          "type": "address"
        }
      ],
      "name": "OwnershipTransferred",
      "type": "event"
    },
    {
      "anonymous": false,
      "inputs": [
        {
          "indexed": false,
          "internalType": "uint256",
          "name": "_betAmount",
          "type": "uint256"
        },
        {
          "indexed": false,
          "internalType": "uint256",
          "name": "_numberOfParticipants",
          "type": "uint256"
        },
        {
          "indexed": false,
          "internalType": "uint256[4]",
          "name": "_participants",
          "type": "uint256[4]"
        },
        {
          "indexed": false,
          "internalType": "address",
          "name": "_winner",
          "type": "address"
        },
        {
          "indexed": false,
          "internalType": "uint256",
          "name": "_winnerHorseId",
          "type": "uint256"
        }
      ],
      "name": "Race",
      "type": "event"
    },
    {
      "inputs": [
        {
          "internalType": "string",
          "name": "_name",
          "type": "string"
        }
      ],
      "name": "createRandomHorse",
      "outputs": [],
      "stateMutability": "nonpayable",
      "type": "function"
    },
    {
      "inputs": [
        {
          "internalType": "address",
          "name": "_owner",
          "type": "address"
        }
      ],
      "name": "getHorsesByOwner",
      "outputs": [
        {
          "internalType": "uint256[]",
          "name": "",
          "type": "uint256[]"
        }
      ],
      "stateMutability": "view",
      "type": "function"
    },
    {
      "inputs": [
        {
          "internalType": "uint256",
          "name": "",
          "type": "uint256"
        }
      ],
      "name": "horseToOwner",
      "outputs": [
        {
          "internalType": "address",
          "name": "",
          "type": "address"
        }
      ],
      "stateMutability": "view",
      "type": "function"
    },
    {
      "inputs": [
        {
          "internalType": "uint256",
          "name": "",
          "type": "uint256"
        }
      ],
      "name": "horses",
      "outputs": [
        {
          "internalType": "string",
          "name": "name",
          "type": "string"
        },
        {
          "internalType": "uint256",
          "name": "dna",
          "type": "uint256"
        },
        {
          "internalType": "uint16",
          "name": "winCount",
          "type": "uint16"
        },
        {
          "internalType": "uint16",
          "name": "lossCount",
          "type": "uint16"
        }
      ],
      "stateMutability": "view",
      "type": "function"
    },
    {
      "inputs": [],
      "name": "isOwner",
      "outputs": [
        {
          "internalType": "bool",
          "name": "",
          "type": "bool"
        }
      ],
      "stateMutability": "view",
      "type": "function"
    },
    {
      "inputs": [],
      "name": "owner",
      "outputs": [
        {
          "internalType": "address",
          "name": "",
          "type": "address"
        }
      ],
      "stateMutability": "view",
      "type": "function"
    },
    {
      "inputs": [],
      "name": "renounceOwnership",
      "outputs": [],
      "stateMutability": "nonpayable",
      "type": "function"
    },
    {
      "inputs": [
        {
          "internalType": "address",
          "name": "newOwner",
          "type": "address"
        }
      ],
      "name": "transferOwnership",
      "outputs": [],
      "stateMutability": "nonpayable",
      "type": "function"
    },
    {
      "inputs": [
        {
          "internalType": "uint256",
          "name": "_bet",
          "type": "uint256"
        }
      ],
      "name": "setBet",
      "outputs": [],
      "stateMutability": "nonpayable",
      "type": "function"
    },
    {
      "inputs": [
        {
          "internalType": "uint256",
          "name": "_horseId",
          "type": "uint256"
        }
      ],
      "name": "bet",
      "outputs": [],
      "stateMutability": "payable",
      "type": "function"
    },
    {
      "inputs": [
        {
          "internalType": "uint256",
          "name": "_horseId",
          "type": "uint256"
        }
      ],
      "name": "mock_bet",
      "outputs": [],
      "stateMutability": "payable",
      "type": "function"
    }
  ],
  "bytecode": "0x60806040526010600155600154600a6200001a91906200028f565b600255678ac7230489e800006006556000600b556000600c553480156200004057600080fd5b50336000806101000a81548173ffffffffffffffffffffffffffffffffffffffff021916908373ffffffffffffffffffffffffffffffffffffffff16021790555060008054906101000a900473ffffffffffffffffffffffffffffffffffffffff1673ffffffffffffffffffffffffffffffffffffffff16600073ffffffffffffffffffffffffffffffffffffffff167f8be0079c531659141344cd1fd0a4f28419497f9722a3daafe3b4186f6b6457e060405160405180910390a3620002e0565b7f4e487b7100000000000000000000000000000000000000000000000000000000600052601160045260246000fd5b60008160011c9050919050565b6000808291508390505b6001851115620001905780860481111562000168576200016762000102565b5b6001851615620001785780820291505b8081029050620001888562000131565b945062000148565b94509492505050565b600082620001ab57600190506200027e565b81620001bb57600090506200027e565b8160018114620001d45760028114620001df5762000215565b60019150506200027e565b60ff841115620001f457620001f362000102565b5b8360020a9150848211156200020e576200020d62000102565b5b506200027e565b5060208310610133831016604e8410600b84101617156200024f5782820a90508381111562000249576200024862000102565b5b6200027e565b6200025e84848460016200013e565b9250905081840481111562000278576200027762000102565b5b81810290505b9392505050565b6000819050919050565b60006200029c8262000285565b9150620002a98362000285565b9250620002d87fffffffffffffffffffffffffffffffffffffffffffffffffffffffffffffffff848462000199565b905092915050565b611bde80620002f06000396000f3fe60806040526004361061009c5760003560e01c80638f8b5cde116100645780638f8b5cde14610153578063c8b62d6414610193578063da677fa2146101d0578063dd021d3f1461020d578063e8399cc614610229578063f2fde38b146102525761009c565b8063715018a6146100a1578063735e9c50146100b85780637365870b146100e15780638da5cb5b146100fd5780638f32d59b14610128575b600080fd5b3480156100ad57600080fd5b506100b661027b565b005b3480156100c457600080fd5b506100df60048036038101906100da919061130b565b61034a565b005b6100fb60048036038101906100f6919061138a565b6103cb565b005b34801561010957600080fd5b506101126104b7565b60405161011f91906113f8565b60405180910390f35b34801561013457600080fd5b5061013d6104e0565b60405161014a919061142e565b60405180910390f35b34801561015f57600080fd5b5061017a6004803603810190610175919061138a565b610537565b60405161018a94939291906114fd565b60405180910390f35b34801561019f57600080fd5b506101ba60048036038101906101b59190611575565b61061b565b6040516101c79190611660565b60405180910390f35b3480156101dc57600080fd5b506101f760048036038101906101f2919061138a565b61076d565b60405161020491906113f8565b60405180910390f35b6102276004803603810190610222919061138a565b6107a0565b005b34801561023557600080fd5b50610250600480360381019061024b919061138a565b61088f565b005b34801561025e57600080fd5b5061027960048036038101906102749190611575565b6108aa565b005b6102836104e0565b61028c57600080fd5b600073ffffffffffffffffffffffffffffffffffffffff1660008054906101000a900473ffffffffffffffffffffffffffffffffffffffff1673ffffffffffffffffffffffffffffffffffffffff167f8be0079c531659141344cd1fd0a4f28419497f9722a3daafe3b4186f6b6457e060405160405180910390a360008060006101000a81548173ffffffffffffffffffffffffffffffffffffffff021916908373ffffffffffffffffffffffffffffffffffffffff160217905550565b6000600560003373ffffffffffffffffffffffffffffffffffffffff1673ffffffffffffffffffffffffffffffffffffffff168152602001908152602001600020541461039657600080fd5b60006103a1826108c7565b90506064816103b091906116b1565b816103bb9190611711565b90506103c7828261090c565b5050565b806004600082815260200190815260200160002060009054906101000a900473ffffffffffffffffffffffffffffffffffffffff1673ffffffffffffffffffffffffffffffffffffffff163373ffffffffffffffffffffffffffffffffffffffff161461043757600080fd5b600654341461044557600080fd5b600160046104539190611711565b600b541061046057600080fd5b816007600b546004811061047757610476611745565b5b0181905550600b600081548092919061048f90611774565b9190505550600160046104a29190611711565b600b54036104b3576104b2610b0f565b5b5050565b60008060009054906101000a900473ffffffffffffffffffffffffffffffffffffffff16905090565b60008060009054906101000a900473ffffffffffffffffffffffffffffffffffffffff1673ffffffffffffffffffffffffffffffffffffffff163373ffffffffffffffffffffffffffffffffffffffff1614905090565b6003818154811061054757600080fd5b906000526020600020906003020160009150905080600001805461056a906117eb565b80601f0160208091040260200160405190810160405280929190818152602001828054610596906117eb565b80156105e35780601f106105b8576101008083540402835291602001916105e3565b820191906000526020600020905b8154815290600101906020018083116105c657829003601f168201915b5050505050908060010154908060020160009054906101000a900461ffff16908060020160029054906101000a900461ffff16905084565b60606000600560008473ffffffffffffffffffffffffffffffffffffffff1673ffffffffffffffffffffffffffffffffffffffff1681526020019081526020016000205467ffffffffffffffff811115610678576106776111e0565b5b6040519080825280602002602001820160405280156106a65781602001602082028036833780820191505090505b5090506000805b600380549050811015610762578473ffffffffffffffffffffffffffffffffffffffff166004600083815260200190815260200160002060009054906101000a900473ffffffffffffffffffffffffffffffffffffffff1673ffffffffffffffffffffffffffffffffffffffff160361074f578083838151811061073457610733611745565b5b602002602001018181525050818061074b90611774565b9250505b808061075a90611774565b9150506106ad565b508192505050919050565b60046020528060005260406000206000915054906101000a900473ffffffffffffffffffffffffffffffffffffffff1681565b806004600082815260200190815260200160002060009054906101000a900473ffffffffffffffffffffffffffffffffffffffff1673ffffffffffffffffffffffffffffffffffffffff163373ffffffffffffffffffffffffffffffffffffffff161461080c57600080fd5b600654341461081a57600080fd5b600160046108289190611711565b600b541061083557600080fd5b816007600b546004811061084c5761084b611745565b5b0181905550600b600081548092919061086490611774565b9190505550600160046108779190611711565b600b540361088b5761088a600b54610d96565b5b5050565b6108976104e0565b6108a057600080fd5b8060068190555050565b6108b26104e0565b6108bb57600080fd5b6108c481610f93565b50565b600080826040516020016108db9190611858565b6040516020818303038152906040528051906020012060001c90506002548161090491906116b1565b915050919050565b60036040518060800160405280848152602001838152602001600061ffff168152602001600061ffff168152509080600181540180825580915050600190039060005260206000209060030201600090919091909150600082015181600001908051906020019061097e92919061110e565b506020820151816001015560408201518160020160006101000a81548161ffff021916908361ffff16021790555060608201518160020160026101000a81548161ffff021916908361ffff1602179055505050600060016003805490506109e59190611711565b9050336004600083815260200190815260200160002060006101000a81548173ffffffffffffffffffffffffffffffffffffffff021916908373ffffffffffffffffffffffffffffffffffffffff160217905550610a8c6001600560003373ffffffffffffffffffffffffffffffffffffffff1673ffffffffffffffffffffffffffffffffffffffff1681526020019081526020016000205461108990919063ffffffff16565b600560003373ffffffffffffffffffffffffffffffffffffffff1673ffffffffffffffffffffffffffffffffffffffff168152602001908152602001600020819055507f7512d04afc710279875c44ad61b2e78695e3824abb3178ec09c9199e13314c5d818484604051610b029392919061186f565b60405180910390a1505050565b60006007610b1d60046110b5565b60048110610b2e57610b2d611745565b5b0154905060038181548110610b4657610b45611745565b5b9060005260206000209060030201600201600081819054906101000a900461ffff1680929190610b75906118ad565b91906101000a81548161ffff021916908361ffff1602179055505060005b6004811015610c2257600360078260048110610bb257610bb1611745565b5b015481548110610bc557610bc4611745565b5b9060005260206000209060030201600201600281819054906101000a900461ffff1680929190610bf4906118ad565b91906101000a81548161ffff021916908361ffff160217905550508080610c1a90611774565b915050610b93565b5060038181548110610c3757610c36611745565b5b9060005260206000209060030201600201600281819054906101000a900461ffff1680929190610c66906118d7565b91906101000a81548161ffff021916908361ffff160217905550506004600082815260200190815260200160002060009054906101000a900473ffffffffffffffffffffffffffffffffffffffff1673ffffffffffffffffffffffffffffffffffffffff166108fc6004600654610cdd9190611900565b9081150290604051600060405180830381858888f19350505050158015610d08573d6000803e3d6000fd5b507ff9551cded3b623d6e227f21e2c17bc856565662bcfc6c6bfbe9020c91659850b6004600654610d399190611900565b600460076004600086815260200190815260200160002060009054906101000a900473ffffffffffffffffffffffffffffffffffffffff1685604051610d83959493929190611a29565b60405180910390a16000600b8190555050565b600060078260048110610dac57610dab611745565b5b0154905060038181548110610dc457610dc3611745565b5b9060005260206000209060030201600201600081819054906101000a900461ffff1680929190610df3906118ad565b91906101000a81548161ffff021916908361ffff1602179055505060005b6004811015610ea057600360078260048110610e3057610e2f611745565b5b015481548110610e4357610e42611745565b5b9060005260206000209060030201600201600281819054906101000a900461ffff1680929190610e72906118ad565b91906101000a81548161ffff021916908361ffff160217905550508080610e9890611774565b915050610e11565b5060038181548110610eb557610eb4611745565b5b9060005260206000209060030201600201600281819054906101000a900461ffff1680929190610ee4906118d7565b91906101000a81548161ffff021916908361ffff160217905550506004600082815260200190815260200160002060009054906101000a900473ffffffffffffffffffffffffffffffffffffffff1673ffffffffffffffffffffffffffffffffffffffff166108fc6004600654610f5b9190611900565b9081150290604051600060405180830381858888f19350505050158015610f86573d6000803e3d6000fd5b506000600b819055505050565b600073ffffffffffffffffffffffffffffffffffffffff168173ffffffffffffffffffffffffffffffffffffffff1603610fcc57600080fd5b8073ffffffffffffffffffffffffffffffffffffffff1660008054906101000a900473ffffffffffffffffffffffffffffffffffffffff1673ffffffffffffffffffffffffffffffffffffffff167f8be0079c531659141344cd1fd0a4f28419497f9722a3daafe3b4186f6b6457e060405160405180910390a3806000806101000a81548173ffffffffffffffffffffffffffffffffffffffff021916908373ffffffffffffffffffffffffffffffffffffffff16021790555050565b60008082846110989190611a7d565b9050838110156110ab576110aa611ad3565b5b8091505092915050565b60006001600c546110c69190611a7d565b600c81905550814233600c546040516020016110e493929190611b6b565b6040516020818303038152906040528051906020012060001c61110791906116b1565b9050919050565b82805461111a906117eb565b90600052602060002090601f01602090048101928261113c5760008555611183565b82601f1061115557805160ff1916838001178555611183565b82800160010185558215611183579182015b82811115611182578251825591602001919060010190611167565b5b5090506111909190611194565b5090565b5b808211156111ad576000816000905550600101611195565b5090565b6000604051905090565b600080fd5b600080fd5b600080fd5b600080fd5b6000601f19601f8301169050919050565b7f4e487b7100000000000000000000000000000000000000000000000000000000600052604160045260246000fd5b611218826111cf565b810181811067ffffffffffffffff82111715611237576112366111e0565b5b80604052505050565b600061124a6111b1565b9050611256828261120f565b919050565b600067ffffffffffffffff821115611276576112756111e0565b5b61127f826111cf565b9050602081019050919050565b82818337600083830152505050565b60006112ae6112a98461125b565b611240565b9050828152602081018484840111156112ca576112c96111ca565b5b6112d584828561128c565b509392505050565b600082601f8301126112f2576112f16111c5565b5b813561130284826020860161129b565b91505092915050565b600060208284031215611321576113206111bb565b5b600082013567ffffffffffffffff81111561133f5761133e6111c0565b5b61134b848285016112dd565b91505092915050565b6000819050919050565b61136781611354565b811461137257600080fd5b50565b6000813590506113848161135e565b92915050565b6000602082840312156113a05761139f6111bb565b5b60006113ae84828501611375565b91505092915050565b600073ffffffffffffffffffffffffffffffffffffffff82169050919050565b60006113e2826113b7565b9050919050565b6113f2816113d7565b82525050565b600060208201905061140d60008301846113e9565b92915050565b60008115159050919050565b61142881611413565b82525050565b6000602082019050611443600083018461141f565b92915050565b600081519050919050565b600082825260208201905092915050565b60005b83811015611483578082015181840152602081019050611468565b83811115611492576000848401525b50505050565b60006114a382611449565b6114ad8185611454565b93506114bd818560208601611465565b6114c6816111cf565b840191505092915050565b6114da81611354565b82525050565b600061ffff82169050919050565b6114f7816114e0565b82525050565b600060808201905081810360008301526115178187611498565b905061152660208301866114d1565b61153360408301856114ee565b61154060608301846114ee565b95945050505050565b611552816113d7565b811461155d57600080fd5b50565b60008135905061156f81611549565b92915050565b60006020828403121561158b5761158a6111bb565b5b600061159984828501611560565b91505092915050565b600081519050919050565b600082825260208201905092915050565b6000819050602082019050919050565b6115d781611354565b82525050565b60006115e983836115ce565b60208301905092915050565b6000602082019050919050565b600061160d826115a2565b61161781856115ad565b9350611622836115be565b8060005b8381101561165357815161163a88826115dd565b9750611645836115f5565b925050600181019050611626565b5085935050505092915050565b6000602082019050818103600083015261167a8184611602565b905092915050565b7f4e487b7100000000000000000000000000000000000000000000000000000000600052601260045260246000fd5b60006116bc82611354565b91506116c783611354565b9250826116d7576116d6611682565b5b828206905092915050565b7f4e487b7100000000000000000000000000000000000000000000000000000000600052601160045260246000fd5b600061171c82611354565b915061172783611354565b92508282101561173a576117396116e2565b5b828203905092915050565b7f4e487b7100000000000000000000000000000000000000000000000000000000600052603260045260246000fd5b600061177f82611354565b91507fffffffffffffffffffffffffffffffffffffffffffffffffffffffffffffffff82036117b1576117b06116e2565b5b600182019050919050565b7f4e487b7100000000000000000000000000000000000000000000000000000000600052602260045260246000fd5b6000600282049050600182168061180357607f821691505b602082108103611816576118156117bc565b5b50919050565b600081905092915050565b600061183282611449565b61183c818561181c565b935061184c818560208601611465565b80840191505092915050565b60006118648284611827565b915081905092915050565b600060608201905061188460008301866114d1565b81810360208301526118968185611498565b90506118a560408301846114d1565b949350505050565b60006118b8826114e0565b915061ffff82036118cc576118cb6116e2565b5b600182019050919050565b60006118e2826114e0565b9150600082036118f5576118f46116e2565b5b600182039050919050565b600061190b82611354565b915061191683611354565b9250817fffffffffffffffffffffffffffffffffffffffffffffffffffffffffffffffff048311821515161561194f5761194e6116e2565b5b828202905092915050565b600060049050919050565b600081905092915050565b6000819050919050565b60008160001c9050919050565b6000819050919050565b60006119a461199f8361197a565b611987565b9050919050565b60006119b78254611991565b9050919050565b6000600182019050919050565b6119d48161195a565b6119de8184611965565b92506119e982611970565b8060005b83811015611a21576119fe826119ab565b611a0887826115dd565b9650611a13836119be565b9250506001810190506119ed565b505050505050565b600061010082019050611a3f60008301886114d1565b611a4c60208301876114d1565b611a5960408301866119cb565b611a6660c08301856113e9565b611a7360e08301846114d1565b9695505050505050565b6000611a8882611354565b9150611a9383611354565b9250827fffffffffffffffffffffffffffffffffffffffffffffffffffffffffffffffff03821115611ac857611ac76116e2565b5b828201905092915050565b7f4e487b7100000000000000000000000000000000000000000000000000000000600052600160045260246000fd5b6000819050919050565b611b1d611b1882611354565b611b02565b82525050565b60008160601b9050919050565b6000611b3b82611b23565b9050919050565b6000611b4d82611b30565b9050919050565b611b65611b60826113d7565b611b42565b82525050565b6000611b778286611b0c565b602082019150611b878285611b54565b601482019150611b978284611b0c565b60208201915081905094935050505056fea2646970667358221220bfaabea3dc9e8b8458b8ae64a3d1ba30c0e292b4e9794a2294e81ce874c4b5b464736f6c634300080e0033",
  "immutableReferences": {},
  "source": "// SPDX-License-Identifier: GPL-3.0\npragma solidity >=0.7.0 <0.9.0;\n\nimport \"./horsehelper.sol\";\n\ncontract HorseRacing is HorseHelper {\n    uint256 raceBet = 10 ether;\n    uint256[4] currentRace;\n    uint256 idx = 0;\n    uint256 randNonce = 0;\n\n    event Race(uint _betAmount, uint _numberOfParticipants, uint256[4] _participants, address _winner, uint _winnerHorseId);\n\n    function randMod(uint256 _modulus) internal returns (uint256) {\n        randNonce = randNonce + 1;\n        return\n            uint256(\n                keccak256(\n                    abi.encodePacked(block.timestamp, msg.sender, randNonce)\n                )\n            ) % _modulus;\n    }\n\n    function setBet(uint256 _bet) external onlyOwner {\n        raceBet = _bet;\n    }\n\n    function bet(uint256 _horseId) external payable onlyOwnerOf(_horseId) {\n        require(msg.value == raceBet);\n        require(idx < currentRace.length - 1);\n        currentRace[idx] = _horseId;\n        idx++;\n\n        if (idx == currentRace.length - 1) {\n            // si se completan los caballos, se ejecuta la carrera\n            race();\n        }\n    }\n\n    function race() internal {\n        uint256 winnerId = currentRace[randMod(currentRace.length)];\n        horses[winnerId].winCount++;\n        for (uint256 i = 0; i < currentRace.length; i++) {\n            horses[currentRace[i]].lossCount++;\n        }\n        horses[winnerId].lossCount--;\n\n        // transferir el premio al ganador (chequear)\n        payable(horseToOwner[winnerId]).transfer(raceBet * currentRace.length);\n\n        // emitir evento de race para mostrarla en el front\n        emit Race(raceBet * currentRace.length, currentRace.length, currentRace, horseToOwner[winnerId], winnerId);\n        idx = 0;\n    }\n\n\n   function mock_bet(uint256 _horseId) external payable onlyOwnerOf(_horseId) {\n        require(msg.value == raceBet);\n        require(idx < currentRace.length - 1);\n        currentRace[idx] = _horseId;\n        idx++;\n\n        if (idx == currentRace.length - 1) {\n            mock_race(idx);\n        }\n    }\n\n    function mock_race(uint256 winner) internal {\n        uint256 winnerId = currentRace[winner];\n        horses[winnerId].winCount++;\n        for (uint256 i = 0; i < currentRace.length; i++) {\n            horses[currentRace[i]].lossCount++;\n        }\n        horses[winnerId].lossCount--;\n\n        // transferir el premio al ganador (chequear)\n        payable(horseToOwner[winnerId]).transfer(raceBet * currentRace.length);\n\n        // emitir evento de race para mostrarla en el front\n        idx = 0;\n    }\n\n}\n",
  "sourcePath": "/home/matias/Desktop/Facultad/Teoria del Lenguaje/Repo/TDL-SinoKa-La-Ferrigneta/contracts/racing/horseracing.sol",
  "compiler": {
    "name": "solc",
    "version": "0.8.14+commit.80d49f37.Emscripten.clang"
  },
  "schemaVersion": "3.4.7",
  "updatedAt": "2022-06-28T03:12:07.001Z",
  "devdoc": {
    "kind": "dev",
    "methods": {
      "isOwner()": {
        "returns": {
          "_0": "true if `msg.sender` is the owner of the contract."
        }
      },
      "owner()": {
        "returns": {
          "_0": "the address of the owner."
        }
      },
      "renounceOwnership()": {
        "details": "Allows the current owner to relinquish control of the contract."
      },
      "transferOwnership(address)": {
        "details": "Allows the current owner to transfer control of the contract to a newOwner.",
        "params": {
          "newOwner": "The address to transfer ownership to."
        }
      }
    },
    "version": 1
  },
  "userdoc": {
    "kind": "user",
    "methods": {
      "renounceOwnership()": {
        "notice": "Renouncing to ownership will leave the contract without an owner. It will not be possible to call the functions with the `onlyOwner` modifier anymore."
      }
    },
    "version": 1
  }
}