{
  "contractName": "HorseOwnership",
  "abi": [
    {
      "anonymous": false,
      "inputs": [
        {
          "indexed": true,
          "internalType": "address",
          "name": "_owner",
          "type": "address"
        },
        {
          "indexed": true,
          "internalType": "address",
          "name": "_approved",
          "type": "address"
        },
        {
          "indexed": true,
          "internalType": "uint256",
          "name": "_tokenId",
          "type": "uint256"
        }
      ],
      "name": "Approval",
      "type": "event"
    },
    {
      "anonymous": false,
      "inputs": [
        {
          "indexed": false,
          "internalType": "address",
          "name": "buyer",
          "type": "address"
        },
        {
          "indexed": false,
          "internalType": "uint256",
          "name": "amountOfETH",
          "type": "uint256"
        },
        {
          "indexed": false,
          "internalType": "uint256",
          "name": "amountOfTokens",
          "type": "uint256"
        }
      ],
      "name": "BuyTokens",
      "type": "event"
    },
    {
      "anonymous": false,
      "inputs": [
        {
          "indexed": false,
          "internalType": "uint256",
          "name": "horseId",
          "type": "uint256"
        },
        {
          "indexed": false,
          "internalType": "string",
          "name": "name",
          "type": "string"
        },
        {
          "indexed": false,
          "internalType": "uint256",
          "name": "dna",
          "type": "uint256"
        }
      ],
      "name": "NewHorse",
      "type": "event"
    },
    {
      "anonymous": false,
      "inputs": [
        {
          "indexed": true,
          "internalType": "address",
          "name": "previousOwner",
          "type": "address"
        },
        {
          "indexed": true,
          "internalType": "address",
          "name": "newOwner",
          "type": "address"
        }
      ],
      "name": "OwnershipTransferred",
      "type": "event"
    },
    {
      "anonymous": false,
      "inputs": [
        {
          "indexed": false,
          "internalType": "uint256",
          "name": "raceId",
          "type": "uint256"
        }
      ],
      "name": "RaceCreated",
      "type": "event"
    },
    {
      "anonymous": false,
      "inputs": [
        {
          "indexed": true,
          "internalType": "address",
          "name": "_from",
          "type": "address"
        },
        {
          "indexed": true,
          "internalType": "address",
          "name": "_to",
          "type": "address"
        },
        {
          "indexed": true,
          "internalType": "uint256",
          "name": "_tokenId",
          "type": "uint256"
        }
      ],
      "name": "Transfer",
      "type": "event"
    },
    {
      "inputs": [
        {
          "internalType": "uint256",
          "name": "raceId",
          "type": "uint256"
        },
        {
          "internalType": "uint256",
          "name": "_horseId",
          "type": "uint256"
        }
      ],
      "name": "bet",
      "outputs": [],
      "stateMutability": "payable",
      "type": "function"
    },
    {
      "inputs": [],
      "name": "buyTokens",
      "outputs": [
        {
          "internalType": "uint256",
          "name": "tokenAmount",
          "type": "uint256"
        }
      ],
      "stateMutability": "payable",
      "type": "function"
    },
    {
      "inputs": [
        {
          "internalType": "string",
          "name": "_name",
          "type": "string"
        }
      ],
      "name": "createRandomHorse",
      "outputs": [],
      "stateMutability": "nonpayable",
      "type": "function"
    },
    {
      "inputs": [
        {
          "internalType": "address",
          "name": "_owner",
          "type": "address"
        }
      ],
      "name": "getHorsesByOwner",
      "outputs": [
        {
          "internalType": "uint256[]",
          "name": "",
          "type": "uint256[]"
        }
      ],
      "stateMutability": "view",
      "type": "function"
    },
    {
      "inputs": [
        {
          "internalType": "uint256",
          "name": "",
          "type": "uint256"
        }
      ],
      "name": "horseToOwner",
      "outputs": [
        {
          "internalType": "address",
          "name": "",
          "type": "address"
        }
      ],
      "stateMutability": "view",
      "type": "function"
    },
    {
      "inputs": [
        {
          "internalType": "uint256",
          "name": "",
          "type": "uint256"
        }
      ],
      "name": "horses",
      "outputs": [
        {
          "internalType": "string",
          "name": "name",
          "type": "string"
        },
        {
          "internalType": "uint256",
          "name": "dna",
          "type": "uint256"
        },
        {
          "internalType": "uint16",
          "name": "winCount",
          "type": "uint16"
        },
        {
          "internalType": "uint16",
          "name": "lossCount",
          "type": "uint16"
        }
      ],
      "stateMutability": "view",
      "type": "function"
    },
    {
      "inputs": [],
      "name": "isOwner",
      "outputs": [
        {
          "internalType": "bool",
          "name": "",
          "type": "bool"
        }
      ],
      "stateMutability": "view",
      "type": "function"
    },
    {
      "inputs": [
        {
          "internalType": "uint256",
          "name": "raceId",
          "type": "uint256"
        }
      ],
      "name": "isRaceCompleted",
      "outputs": [
        {
          "internalType": "bool",
          "name": "",
          "type": "bool"
        }
      ],
      "stateMutability": "view",
      "type": "function"
    },
    {
      "inputs": [
        {
          "internalType": "uint256",
          "name": "raceId",
          "type": "uint256"
        },
        {
          "internalType": "uint256",
          "name": "winner",
          "type": "uint256"
        }
      ],
      "name": "mock_simulateRace",
      "outputs": [],
      "stateMutability": "nonpayable",
      "type": "function"
    },
    {
      "inputs": [
        {
          "internalType": "uint256",
          "name": "_betAmount",
          "type": "uint256"
        },
        {
          "internalType": "uint256",
          "name": "_maxAmountOfHorses",
          "type": "uint256"
        }
      ],
      "name": "newRace",
      "outputs": [
        {
          "internalType": "uint256",
          "name": "raceId",
          "type": "uint256"
        }
      ],
      "stateMutability": "nonpayable",
      "type": "function"
    },
    {
      "inputs": [],
      "name": "owner",
      "outputs": [
        {
          "internalType": "address",
          "name": "",
          "type": "address"
        }
      ],
      "stateMutability": "view",
      "type": "function"
    },
    {
      "inputs": [
        {
          "internalType": "uint256",
          "name": "raceId",
          "type": "uint256"
        },
        {
          "internalType": "uint256",
          "name": "expectedAmount",
          "type": "uint256"
        }
      ],
      "name": "raceBetIsEqualTo",
      "outputs": [
        {
          "internalType": "bool",
          "name": "",
          "type": "bool"
        }
      ],
      "stateMutability": "view",
      "type": "function"
    },
    {
      "inputs": [
        {
          "internalType": "uint256",
          "name": "raceId",
          "type": "uint256"
        },
        {
          "internalType": "uint256",
          "name": "expectedLength",
          "type": "uint256"
        }
      ],
      "name": "raceLengthIsEqualTo",
      "outputs": [
        {
          "internalType": "bool",
          "name": "",
          "type": "bool"
        }
      ],
      "stateMutability": "view",
      "type": "function"
    },
    {
      "inputs": [],
      "name": "renounceOwnership",
      "outputs": [],
      "stateMutability": "nonpayable",
      "type": "function"
    },
    {
      "inputs": [
        {
          "internalType": "address",
          "name": "tokenOwner",
          "type": "address"
        }
      ],
      "name": "returnBalanceOf",
      "outputs": [
        {
          "internalType": "uint256",
          "name": "",
          "type": "uint256"
        }
      ],
      "stateMutability": "view",
      "type": "function"
    },
    {
      "inputs": [
        {
          "internalType": "uint256",
          "name": "raceId",
          "type": "uint256"
        }
      ],
      "name": "returnRaceBet",
      "outputs": [
        {
          "internalType": "uint256",
          "name": "",
          "type": "uint256"
        }
      ],
      "stateMutability": "view",
      "type": "function"
    },
    {
      "inputs": [
        {
          "internalType": "uint256",
          "name": "raceId",
          "type": "uint256"
        }
      ],
      "name": "returnRaceLength",
      "outputs": [
        {
          "internalType": "uint256",
          "name": "",
          "type": "uint256"
        }
      ],
      "stateMutability": "view",
      "type": "function"
    },
    {
      "inputs": [
        {
          "internalType": "uint256",
          "name": "raceId",
          "type": "uint256"
        }
      ],
      "name": "returnTotalBet",
      "outputs": [
        {
          "internalType": "uint256",
          "name": "",
          "type": "uint256"
        }
      ],
      "stateMutability": "view",
      "type": "function"
    },
    {
      "inputs": [
        {
          "internalType": "uint256",
          "name": "raceId",
          "type": "uint256"
        }
      ],
      "name": "simulateRace",
      "outputs": [],
      "stateMutability": "nonpayable",
      "type": "function"
    },
    {
      "inputs": [],
      "name": "tokensPerEth",
      "outputs": [
        {
          "internalType": "uint256",
          "name": "",
          "type": "uint256"
        }
      ],
      "stateMutability": "view",
      "type": "function"
    },
    {
      "inputs": [
        {
          "internalType": "uint256",
          "name": "raceId",
          "type": "uint256"
        },
        {
          "internalType": "uint256",
          "name": "expectedAmount",
          "type": "uint256"
        }
      ],
      "name": "totalBetIsEqualTo",
      "outputs": [
        {
          "internalType": "bool",
          "name": "",
          "type": "bool"
        }
      ],
      "stateMutability": "view",
      "type": "function"
    },
    {
      "inputs": [
        {
          "internalType": "address",
          "name": "newOwner",
          "type": "address"
        }
      ],
      "name": "transferOwnership",
      "outputs": [],
      "stateMutability": "nonpayable",
      "type": "function"
    },
    {
      "inputs": [
        {
          "internalType": "address",
          "name": "from",
          "type": "address"
        },
        {
          "internalType": "address",
          "name": "to",
          "type": "address"
        },
        {
          "internalType": "uint256",
          "name": "tokens",
          "type": "uint256"
        }
      ],
      "name": "transferToken",
      "outputs": [
        {
          "internalType": "uint256",
          "name": "",
          "type": "uint256"
        }
      ],
      "stateMutability": "nonpayable",
      "type": "function"
    },
    {
      "inputs": [
        {
          "internalType": "address",
          "name": "_owner",
          "type": "address"
        }
      ],
      "name": "balanceOf",
      "outputs": [
        {
          "internalType": "uint256",
          "name": "",
          "type": "uint256"
        }
      ],
      "stateMutability": "view",
      "type": "function"
    },
    {
      "inputs": [
        {
          "internalType": "uint256",
          "name": "_tokenId",
          "type": "uint256"
        }
      ],
      "name": "ownerOf",
      "outputs": [
        {
          "internalType": "address",
          "name": "",
          "type": "address"
        }
      ],
      "stateMutability": "view",
      "type": "function"
    },
    {
      "inputs": [
        {
          "internalType": "address",
          "name": "_from",
          "type": "address"
        },
        {
          "internalType": "address",
          "name": "_to",
          "type": "address"
        },
        {
          "internalType": "uint256",
          "name": "_tokenId",
          "type": "uint256"
        }
      ],
      "name": "transferFrom",
      "outputs": [],
      "stateMutability": "payable",
      "type": "function"
    },
    {
      "inputs": [
        {
          "internalType": "address",
          "name": "_approved",
          "type": "address"
        },
        {
          "internalType": "uint256",
          "name": "_tokenId",
          "type": "uint256"
        }
      ],
      "name": "approve",
      "outputs": [],
      "stateMutability": "payable",
      "type": "function"
    }
  ],
  "bytecode": "0x60806040526010600155600154600a6200001a91906200035a565b60025560006006556000600b556000600c556064600d553480156200003e57600080fd5b50336000806101000a81548173ffffffffffffffffffffffffffffffffffffffff021916908373ffffffffffffffffffffffffffffffffffffffff16021790555060008054906101000a900473ffffffffffffffffffffffffffffffffffffffff1673ffffffffffffffffffffffffffffffffffffffff16600073ffffffffffffffffffffffffffffffffffffffff167f8be0079c531659141344cd1fd0a4f28419497f9722a3daafe3b4186f6b6457e060405160405180910390a3620f4240336040516200010d90620001bf565b6200011a9291906200043d565b604051809103906000f08015801562000137573d6000803e3d6000fd5b50600760006101000a81548173ffffffffffffffffffffffffffffffffffffffff021916908373ffffffffffffffffffffffffffffffffffffffff16021790555033600860006101000a81548173ffffffffffffffffffffffffffffffffffffffff021916908373ffffffffffffffffffffffffffffffffffffffff1602179055506200046a565b6112b3806200395f83390190565b7f4e487b7100000000000000000000000000000000000000000000000000000000600052601160045260246000fd5b60008160011c9050919050565b6000808291508390505b60018511156200025b57808604811115620002335762000232620001cd565b5b6001851615620002435780820291505b80810290506200025385620001fc565b945062000213565b94509492505050565b60008262000276576001905062000349565b8162000286576000905062000349565b81600181146200029f5760028114620002aa57620002e0565b600191505062000349565b60ff841115620002bf57620002be620001cd565b5b8360020a915084821115620002d957620002d8620001cd565b5b5062000349565b5060208310610133831016604e8410600b84101617156200031a5782820a905083811115620003145762000313620001cd565b5b62000349565b62000329848484600162000209565b92509050818404811115620003435762000342620001cd565b5b81810290505b9392505050565b6000819050919050565b6000620003678262000350565b9150620003748362000350565b9250620003a37fffffffffffffffffffffffffffffffffffffffffffffffffffffffffffffffff848462000264565b905092915050565b6000819050919050565b6000819050919050565b6000620003e0620003da620003d484620003ab565b620003b5565b62000350565b9050919050565b620003f281620003bf565b82525050565b600073ffffffffffffffffffffffffffffffffffffffff82169050919050565b60006200042582620003f8565b9050919050565b620004378162000418565b82525050565b6000604082019050620004546000830185620003e7565b6200046360208301846200042c565b9392505050565b6134e5806200047a6000396000f3fe60806040526004361061019c5760003560e01c806373671d74116100ec578063c8b62d641161008a578063da677fa211610064578063da677fa214610605578063eb2a89a914610642578063f2fde38b1461067f578063f5537ede146106a85761019c565b8063c8b62d641461057f578063cbdd69b5146105bc578063d0febe4c146105e75761019c565b80638f32d59b116100c65780638f32d59b146104ae5780638f8b5cde146104d9578063916a427214610519578063b6ccf1a4146105425761019c565b806373671d741461041d57806387db52961461045a5780638da5cb5b146104835761019c565b80634348f0ed116101595780636ffcc719116101335780636ffcc7191461038457806370a08231146103a0578063715018a6146103dd578063735e9c50146103f45761019c565b80634348f0ed146102cd5780636352211e1461030a57806363670e24146103475761019c565b80630126179d146101a1578063095ea7b3146101de5780630e03608f146101fa57806316b3ede11461023757806323b872dd146102745780633758042e14610290575b600080fd5b3480156101ad57600080fd5b506101c860048036038101906101c391906128b6565b6106e5565b6040516101d591906128f2565b60405180910390f35b6101f860048036038101906101f3919061296b565b610705565b005b34801561020657600080fd5b50610221600480360381019061021c91906128b6565b610823565b60405161022e91906128f2565b60405180910390f35b34801561024357600080fd5b5061025e600480360381019061025991906129ab565b610843565b60405161026b9190612a06565b60405180910390f35b61028e60048036038101906102899190612a21565b610866565b005b34801561029c57600080fd5b506102b760048036038101906102b29190612a74565b61094a565b6040516102c491906128f2565b60405180910390f35b3480156102d957600080fd5b506102f460048036038101906102ef91906128b6565b6109ef565b6040516103019190612a06565b60405180910390f35b34801561031657600080fd5b50610331600480360381019061032c91906128b6565b610a1c565b60405161033e9190612ab0565b60405180910390f35b34801561035357600080fd5b5061036e600480360381019061036991906129ab565b610a59565b60405161037b9190612a06565b60405180910390f35b61039e600480360381019061039991906129ab565b610a7c565b005b3480156103ac57600080fd5b506103c760048036038101906103c29190612a74565b610e0f565b6040516103d491906128f2565b60405180910390f35b3480156103e957600080fd5b506103f2610e58565b005b34801561040057600080fd5b5061041b60048036038101906104169190612c11565b610f27565b005b34801561042957600080fd5b50610444600480360381019061043f91906128b6565b610fa8565b60405161045191906128f2565b60405180910390f35b34801561046657600080fd5b50610481600480360381019061047c91906129ab565b610fe9565b005b34801561048f57600080fd5b506104986114bd565b6040516104a59190612ab0565b60405180910390f35b3480156104ba57600080fd5b506104c36114e6565b6040516104d09190612a06565b60405180910390f35b3480156104e557600080fd5b5061050060048036038101906104fb91906128b6565b61153d565b6040516105109493929190612cff565b60405180910390f35b34801561052557600080fd5b50610540600480360381019061053b91906128b6565b611621565b005b34801561054e57600080fd5b50610569600480360381019061056491906129ab565b611b01565b60405161057691906128f2565b60405180910390f35b34801561058b57600080fd5b506105a660048036038101906105a19190612a74565b611bfc565b6040516105b39190612e09565b60405180910390f35b3480156105c857600080fd5b506105d1611d4e565b6040516105de91906128f2565b60405180910390f35b6105ef611d54565b6040516105fc91906128f2565b60405180910390f35b34801561061157600080fd5b5061062c600480360381019061062791906128b6565b61201f565b6040516106399190612ab0565b60405180910390f35b34801561064e57600080fd5b50610669600480360381019061066491906129ab565b612052565b6040516106769190612a06565b60405180910390f35b34801561068b57600080fd5b506106a660048036038101906106a19190612a74565b612096565b005b3480156106b457600080fd5b506106cf60048036038101906106ca9190612a21565b6120b3565b6040516106dc91906128f2565b60405180910390f35b600060096000838152602001908152602001600020600001549050919050565b806004600082815260200190815260200160002060009054906101000a900473ffffffffffffffffffffffffffffffffffffffff1673ffffffffffffffffffffffffffffffffffffffff163373ffffffffffffffffffffffffffffffffffffffff161461077157600080fd5b82600e600084815260200190815260200160002060006101000a81548173ffffffffffffffffffffffffffffffffffffffff021916908373ffffffffffffffffffffffffffffffffffffffff160217905550818373ffffffffffffffffffffffffffffffffffffffff163373ffffffffffffffffffffffffffffffffffffffff167f8c5be1e5ebec7d5bd14f71427d1e84f3dd0314c0f7b2291e5b200ac8c7c3b92560405160405180910390a4505050565b600060096000838152602001908152602001600020600101549050919050565b600081600960008581526020019081526020016000206000015414905092915050565b3373ffffffffffffffffffffffffffffffffffffffff166004600083815260200190815260200160002060009054906101000a900473ffffffffffffffffffffffffffffffffffffffff1673ffffffffffffffffffffffffffffffffffffffff16148061093157503373ffffffffffffffffffffffffffffffffffffffff16600e600083815260200190815260200160002060009054906101000a900473ffffffffffffffffffffffffffffffffffffffff1673ffffffffffffffffffffffffffffffffffffffff16145b61093a57600080fd5b6109458383836121bb565b505050565b6000600760009054906101000a900473ffffffffffffffffffffffffffffffffffffffff1673ffffffffffffffffffffffffffffffffffffffff166370a08231836040518263ffffffff1660e01b81526004016109a79190612ab0565b602060405180830381865afa1580156109c4573d6000803e3d6000fd5b505050506040513d601f19601f820116820180604052508101906109e89190612e40565b9050919050565b60006009600083815260200190815260200160002060030160009054906101000a900460ff169050919050565b60006004600083815260200190815260200160002060009054906101000a900473ffffffffffffffffffffffffffffffffffffffff169050919050565b600081600960008581526020019081526020016000206001015414905092915050565b6000600960008481526020019081526020016000206040518060a0016040529081600082015481526020016001820154815260200160028201805480602002602001604051908101604052809291908181526020018280548015610aff57602002820191906000526020600020905b815481526020019060010190808311610aeb575b505050505081526020016003820160009054906101000a900460ff161515151581526020016004820154815250509050600015158160600151151514610b4457600080fd5b8060000151600760009054906101000a900473ffffffffffffffffffffffffffffffffffffffff1673ffffffffffffffffffffffffffffffffffffffff166370a08231336040518263ffffffff1660e01b8152600401610ba49190612ab0565b602060405180830381865afa158015610bc1573d6000803e3d6000fd5b505050506040513d601f19601f82011682018060405250810190610be59190612e40565b1015610bf057600080fd5b8060800151816020015110610c0457600080fd5b6040518060600160405280826000015181526020013373ffffffffffffffffffffffffffffffffffffffff16815260200183815250600a6000600c5481526020019081526020016000206000820151816000015560208201518160010160006101000a81548173ffffffffffffffffffffffffffffffffffffffff021916908373ffffffffffffffffffffffffffffffffffffffff16021790555060408201518160020155905050600c548160400151826020015181518110610cca57610cc9612e6d565b5b602002602001018181525050806020018051809190610ce890612ecb565b81525050600c6000815480929190610cff90612ecb565b9190505550600760009054906101000a900473ffffffffffffffffffffffffffffffffffffffff1673ffffffffffffffffffffffffffffffffffffffff1663202a17fb33600860009054906101000a900473ffffffffffffffffffffffffffffffffffffffff168460000151600860009054906101000a900473ffffffffffffffffffffffffffffffffffffffff166040518563ffffffff1660e01b8152600401610dad9493929190612f13565b6020604051808303816000875af1158015610dcc573d6000803e3d6000fd5b505050506040513d601f19601f82011682018060405250810190610df09190612f84565b508060800151816020015103610e0a57610e0983611621565b5b505050565b6000600560008373ffffffffffffffffffffffffffffffffffffffff1673ffffffffffffffffffffffffffffffffffffffff168152602001908152602001600020549050919050565b610e606114e6565b610e6957600080fd5b600073ffffffffffffffffffffffffffffffffffffffff1660008054906101000a900473ffffffffffffffffffffffffffffffffffffffff1673ffffffffffffffffffffffffffffffffffffffff167f8be0079c531659141344cd1fd0a4f28419497f9722a3daafe3b4186f6b6457e060405160405180910390a360008060006101000a81548173ffffffffffffffffffffffffffffffffffffffff021916908373ffffffffffffffffffffffffffffffffffffffff160217905550565b6000600560003373ffffffffffffffffffffffffffffffffffffffff1673ffffffffffffffffffffffffffffffffffffffff1681526020019081526020016000205414610f7357600080fd5b6000610f7e82612399565b9050606481610f8d9190612fe0565b81610f989190613011565b9050610fa482826123de565b5050565b600060096000838152602001908152602001600020600101546009600084815260200190815260200160002060000154610fe29190613045565b9050919050565b610ff16114e6565b610ffa57600080fd5b6000600960008481526020019081526020016000206040518060a001604052908160008201548152602001600182015481526020016002820180548060200260200160405190810160405280929190818152602001828054801561107d57602002820191906000526020600020905b815481526020019060010190808311611069575b505050505081526020016003820160009054906101000a900460ff161515151581526020016004820154815250509050600860009054906101000a900473ffffffffffffffffffffffffffffffffffffffff1673ffffffffffffffffffffffffffffffffffffffff163373ffffffffffffffffffffffffffffffffffffffff161461110757600080fd5b8060000151600760009054906101000a900473ffffffffffffffffffffffffffffffffffffffff1673ffffffffffffffffffffffffffffffffffffffff166370a08231336040518263ffffffff1660e01b81526004016111679190612ab0565b602060405180830381865afa158015611184573d6000803e3d6000fd5b505050506040513d601f19601f820116820180604052508101906111a89190612e40565b10156111b357600080fd5b80608001518160200151146111c757600080fd5b6000600a6000836040015185815181106111e4576111e3612e6d565b5b602002602001015181526020019081526020016000206002015490506003818154811061121457611213612e6d565b5b9060005260206000209060030201600201600081819054906101000a900461ffff16809291906112439061309f565b91906101000a81548161ffff021916908361ffff1602179055505060005b8260800151811015611312576003600a60008560400151848151811061128a57611289612e6d565b5b6020026020010151815260200190815260200160002060020154815481106112b5576112b4612e6d565b5b9060005260206000209060030201600201600281819054906101000a900461ffff16809291906112e49061309f565b91906101000a81548161ffff021916908361ffff16021790555050808061130a90612ecb565b915050611261565b506003818154811061132757611326612e6d565b5b9060005260206000209060030201600201600281819054906101000a900461ffff1680929190611356906130c9565b91906101000a81548161ffff021916908361ffff1602179055505060006004600083815260200190815260200160002060009054906101000a900473ffffffffffffffffffffffffffffffffffffffff169050600760009054906101000a900473ffffffffffffffffffffffffffffffffffffffff1673ffffffffffffffffffffffffffffffffffffffff1663202a17fb600860009054906101000a900473ffffffffffffffffffffffffffffffffffffffff16838660800151876000015161141f9190613045565b600860009054906101000a900473ffffffffffffffffffffffffffffffffffffffff166040518563ffffffff1660e01b81526004016114619493929190612f13565b6020604051808303816000875af1158015611480573d6000803e3d6000fd5b505050506040513d601f19601f820116820180604052508101906114a49190612f84565b5060018360600190151590811515815250505050505050565b60008060009054906101000a900473ffffffffffffffffffffffffffffffffffffffff16905090565b60008060009054906101000a900473ffffffffffffffffffffffffffffffffffffffff1673ffffffffffffffffffffffffffffffffffffffff163373ffffffffffffffffffffffffffffffffffffffff1614905090565b6003818154811061154d57600080fd5b906000526020600020906003020160009150905080600001805461157090613121565b80601f016020809104026020016040519081016040528092919081815260200182805461159c90613121565b80156115e95780601f106115be576101008083540402835291602001916115e9565b820191906000526020600020905b8154815290600101906020018083116115cc57829003601f168201915b5050505050908060010154908060020160009054906101000a900461ffff16908060020160029054906101000a900461ffff16905084565b6116296114e6565b61163257600080fd5b6000600960008381526020019081526020016000206040518060a00160405290816000820154815260200160018201548152602001600282018054806020026020016040519081016040528092919081815260200182805480156116b557602002820191906000526020600020905b8154815260200190600101908083116116a1575b505050505081526020016003820160009054906101000a900460ff161515151581526020016004820154815250509050600860009054906101000a900473ffffffffffffffffffffffffffffffffffffffff1673ffffffffffffffffffffffffffffffffffffffff163373ffffffffffffffffffffffffffffffffffffffff161461173f57600080fd5b8060000151600760009054906101000a900473ffffffffffffffffffffffffffffffffffffffff1673ffffffffffffffffffffffffffffffffffffffff166370a08231336040518263ffffffff1660e01b815260040161179f9190612ab0565b602060405180830381865afa1580156117bc573d6000803e3d6000fd5b505050506040513d601f19601f820116820180604052508101906117e09190612e40565b10156117eb57600080fd5b80608001518160200151146117ff57600080fd5b6000600a600083604001516118188560400151516125da565b8151811061182957611828612e6d565b5b602002602001015181526020019081526020016000206002015490506003818154811061185957611858612e6d565b5b9060005260206000209060030201600201600081819054906101000a900461ffff16809291906118889061309f565b91906101000a81548161ffff021916908361ffff1602179055505060005b8260800151811015611957576003600a6000856040015184815181106118cf576118ce612e6d565b5b6020026020010151815260200190815260200160002060020154815481106118fa576118f9612e6d565b5b9060005260206000209060030201600201600281819054906101000a900461ffff16809291906119299061309f565b91906101000a81548161ffff021916908361ffff16021790555050808061194f90612ecb565b9150506118a6565b506003818154811061196c5761196b612e6d565b5b9060005260206000209060030201600201600281819054906101000a900461ffff168092919061199b906130c9565b91906101000a81548161ffff021916908361ffff1602179055505060006004600083815260200190815260200160002060009054906101000a900473ffffffffffffffffffffffffffffffffffffffff169050600760009054906101000a900473ffffffffffffffffffffffffffffffffffffffff1673ffffffffffffffffffffffffffffffffffffffff1663202a17fb600860009054906101000a900473ffffffffffffffffffffffffffffffffffffffff168386608001518760000151611a649190613045565b600860009054906101000a900473ffffffffffffffffffffffffffffffffffffffff166040518563ffffffff1660e01b8152600401611aa69493929190612f13565b6020604051808303816000875af1158015611ac5573d6000803e3d6000fd5b505050506040513d601f19601f82011682018060405250810190611ae99190612f84565b50600183606001901515908115158152505050505050565b60006060600b5491506040518060a0016040528085815260200160008152602001828152602001600015158152602001848152506009600084815260200190815260200160002060008201518160000155602082015181600101556040820151816002019080519060200190611b7892919061277c565b5060608201518160030160006101000a81548160ff02191690831515021790555060808201518160040155905050600b6000815480929190611bb990612ecb565b91905055507f5a691e0655b3e3b2995fd900bfeeeccf635a465b0b798b9d4d49a75a1ce4a9cc82604051611bed91906128f2565b60405180910390a15092915050565b60606000600560008473ffffffffffffffffffffffffffffffffffffffff1673ffffffffffffffffffffffffffffffffffffffff1681526020019081526020016000205467ffffffffffffffff811115611c5957611c58612ae6565b5b604051908082528060200260200182016040528015611c875781602001602082028036833780820191505090505b5090506000805b600380549050811015611d43578473ffffffffffffffffffffffffffffffffffffffff166004600083815260200190815260200160002060009054906101000a900473ffffffffffffffffffffffffffffffffffffffff1673ffffffffffffffffffffffffffffffffffffffff1603611d305780838381518110611d1557611d14612e6d565b5b6020026020010181815250508180611d2c90612ecb565b9250505b8080611d3b90612ecb565b915050611c8e565b508192505050919050565b600d5481565b6000803411611d98576040517f08c379a0000000000000000000000000000000000000000000000000000000008152600401611d8f9061319e565b60405180910390fd5b6000600d5434611da89190613045565b90506000600760009054906101000a900473ffffffffffffffffffffffffffffffffffffffff1673ffffffffffffffffffffffffffffffffffffffff166370a08231600860009054906101000a900473ffffffffffffffffffffffffffffffffffffffff166040518263ffffffff1660e01b8152600401611e299190612ab0565b602060405180830381865afa158015611e46573d6000803e3d6000fd5b505050506040513d601f19601f82011682018060405250810190611e6a9190612e40565b905081811015611eaf576040517f08c379a0000000000000000000000000000000000000000000000000000000008152600401611ea690613230565b60405180910390fd5b6000600760009054906101000a900473ffffffffffffffffffffffffffffffffffffffff1673ffffffffffffffffffffffffffffffffffffffff1663202a17fb600860009054906101000a900473ffffffffffffffffffffffffffffffffffffffff163386600860009054906101000a900473ffffffffffffffffffffffffffffffffffffffff166040518563ffffffff1660e01b8152600401611f569493929190612f13565b6020604051808303816000875af1158015611f75573d6000803e3d6000fd5b505050506040513d601f19601f82011682018060405250810190611f999190612f84565b905080611fdb576040517f08c379a0000000000000000000000000000000000000000000000000000000008152600401611fd29061329c565b60405180910390fd5b7f0a37b72bb67eee30e09084cf386f8a17817c57f620c3ab95fb25d6a20356ec7733348560405161200e939291906132bc565b60405180910390a182935050505090565b60046020528060005260406000206000915054906101000a900473ffffffffffffffffffffffffffffffffffffffff1681565b6000816009600085815260200190815260200160002060040154600960008681526020019081526020016000206000015461208d9190613045565b14905092915050565b61209e6114e6565b6120a757600080fd5b6120b081612633565b50565b6000600860009054906101000a900473ffffffffffffffffffffffffffffffffffffffff1673ffffffffffffffffffffffffffffffffffffffff163373ffffffffffffffffffffffffffffffffffffffff161461210f57600080fd5b600760009054906101000a900473ffffffffffffffffffffffffffffffffffffffff1673ffffffffffffffffffffffffffffffffffffffff1663202a17fb858585336040518563ffffffff1660e01b81526004016121709493929190612f13565b6020604051808303816000875af115801561218f573d6000803e3d6000fd5b505050506040513d601f19601f820116820180604052508101906121b39190612f84565b509392505050565b61220e6001600560008573ffffffffffffffffffffffffffffffffffffffff1673ffffffffffffffffffffffffffffffffffffffff1681526020019081526020016000205461272990919063ffffffff16565b600560008473ffffffffffffffffffffffffffffffffffffffff1673ffffffffffffffffffffffffffffffffffffffff168152602001908152602001600020819055506122a46001600560003373ffffffffffffffffffffffffffffffffffffffff1673ffffffffffffffffffffffffffffffffffffffff1681526020019081526020016000205461275590919063ffffffff16565b600560003373ffffffffffffffffffffffffffffffffffffffff1673ffffffffffffffffffffffffffffffffffffffff16815260200190815260200160002081905550816004600083815260200190815260200160002060006101000a81548173ffffffffffffffffffffffffffffffffffffffff021916908373ffffffffffffffffffffffffffffffffffffffff160217905550808273ffffffffffffffffffffffffffffffffffffffff168473ffffffffffffffffffffffffffffffffffffffff167fddf252ad1be2c89b69c2b068fc378daa952ba7f163c4a11628f55a4df523b3ef60405160405180910390a4505050565b600080826040516020016123ad919061332f565b6040516020818303038152906040528051906020012060001c9050600254816123d69190612fe0565b915050919050565b60036040518060800160405280848152602001838152602001600061ffff168152602001600061ffff16815250908060018154018082558091505060019003906000526020600020906003020160009091909190915060008201518160000190805190602001906124509291906127c9565b506020820151816001015560408201518160020160006101000a81548161ffff021916908361ffff16021790555060608201518160020160026101000a81548161ffff021916908361ffff1602179055505050600060016003805490506124b79190613011565b9050336004600083815260200190815260200160002060006101000a81548173ffffffffffffffffffffffffffffffffffffffff021916908373ffffffffffffffffffffffffffffffffffffffff1602179055506001600560003373ffffffffffffffffffffffffffffffffffffffff1673ffffffffffffffffffffffffffffffffffffffff168152602001908152602001600020546125579190613346565b600560003373ffffffffffffffffffffffffffffffffffffffff1673ffffffffffffffffffffffffffffffffffffffff168152602001908152602001600020819055507f7512d04afc710279875c44ad61b2e78695e3824abb3178ec09c9199e13314c5d8184846040516125cd9392919061339c565b60405180910390a1505050565b600060016006546125eb9190613346565b60068190555081423360065460405160200161260993929190613443565b6040516020818303038152906040528051906020012060001c61262c9190612fe0565b9050919050565b600073ffffffffffffffffffffffffffffffffffffffff168173ffffffffffffffffffffffffffffffffffffffff160361266c57600080fd5b8073ffffffffffffffffffffffffffffffffffffffff1660008054906101000a900473ffffffffffffffffffffffffffffffffffffffff1673ffffffffffffffffffffffffffffffffffffffff167f8be0079c531659141344cd1fd0a4f28419497f9722a3daafe3b4186f6b6457e060405160405180910390a3806000806101000a81548173ffffffffffffffffffffffffffffffffffffffff021916908373ffffffffffffffffffffffffffffffffffffffff16021790555050565b60008082846127389190613346565b90508381101561274b5761274a613480565b5b8091505092915050565b60008282111561276857612767613480565b5b81836127749190613011565b905092915050565b8280548282559060005260206000209081019282156127b8579160200282015b828111156127b757825182559160200191906001019061279c565b5b5090506127c5919061284f565b5090565b8280546127d590613121565b90600052602060002090601f0160209004810192826127f7576000855561283e565b82601f1061281057805160ff191683800117855561283e565b8280016001018555821561283e579182015b8281111561283d578251825591602001919060010190612822565b5b50905061284b919061284f565b5090565b5b80821115612868576000816000905550600101612850565b5090565b6000604051905090565b600080fd5b600080fd5b6000819050919050565b61289381612880565b811461289e57600080fd5b50565b6000813590506128b08161288a565b92915050565b6000602082840312156128cc576128cb612876565b5b60006128da848285016128a1565b91505092915050565b6128ec81612880565b82525050565b600060208201905061290760008301846128e3565b92915050565b600073ffffffffffffffffffffffffffffffffffffffff82169050919050565b60006129388261290d565b9050919050565b6129488161292d565b811461295357600080fd5b50565b6000813590506129658161293f565b92915050565b6000806040838503121561298257612981612876565b5b600061299085828601612956565b92505060206129a1858286016128a1565b9150509250929050565b600080604083850312156129c2576129c1612876565b5b60006129d0858286016128a1565b92505060206129e1858286016128a1565b9150509250929050565b60008115159050919050565b612a00816129eb565b82525050565b6000602082019050612a1b60008301846129f7565b92915050565b600080600060608486031215612a3a57612a39612876565b5b6000612a4886828701612956565b9350506020612a5986828701612956565b9250506040612a6a868287016128a1565b9150509250925092565b600060208284031215612a8a57612a89612876565b5b6000612a9884828501612956565b91505092915050565b612aaa8161292d565b82525050565b6000602082019050612ac56000830184612aa1565b92915050565b600080fd5b600080fd5b6000601f19601f8301169050919050565b7f4e487b7100000000000000000000000000000000000000000000000000000000600052604160045260246000fd5b612b1e82612ad5565b810181811067ffffffffffffffff82111715612b3d57612b3c612ae6565b5b80604052505050565b6000612b5061286c565b9050612b5c8282612b15565b919050565b600067ffffffffffffffff821115612b7c57612b7b612ae6565b5b612b8582612ad5565b9050602081019050919050565b82818337600083830152505050565b6000612bb4612baf84612b61565b612b46565b905082815260208101848484011115612bd057612bcf612ad0565b5b612bdb848285612b92565b509392505050565b600082601f830112612bf857612bf7612acb565b5b8135612c08848260208601612ba1565b91505092915050565b600060208284031215612c2757612c26612876565b5b600082013567ffffffffffffffff811115612c4557612c4461287b565b5b612c5184828501612be3565b91505092915050565b600081519050919050565b600082825260208201905092915050565b60005b83811015612c94578082015181840152602081019050612c79565b83811115612ca3576000848401525b50505050565b6000612cb482612c5a565b612cbe8185612c65565b9350612cce818560208601612c76565b612cd781612ad5565b840191505092915050565b600061ffff82169050919050565b612cf981612ce2565b82525050565b60006080820190508181036000830152612d198187612ca9565b9050612d2860208301866128e3565b612d356040830185612cf0565b612d426060830184612cf0565b95945050505050565b600081519050919050565b600082825260208201905092915050565b6000819050602082019050919050565b612d8081612880565b82525050565b6000612d928383612d77565b60208301905092915050565b6000602082019050919050565b6000612db682612d4b565b612dc08185612d56565b9350612dcb83612d67565b8060005b83811015612dfc578151612de38882612d86565b9750612dee83612d9e565b925050600181019050612dcf565b5085935050505092915050565b60006020820190508181036000830152612e238184612dab565b905092915050565b600081519050612e3a8161288a565b92915050565b600060208284031215612e5657612e55612876565b5b6000612e6484828501612e2b565b91505092915050565b7f4e487b7100000000000000000000000000000000000000000000000000000000600052603260045260246000fd5b7f4e487b7100000000000000000000000000000000000000000000000000000000600052601160045260246000fd5b6000612ed682612880565b91507fffffffffffffffffffffffffffffffffffffffffffffffffffffffffffffffff8203612f0857612f07612e9c565b5b600182019050919050565b6000608082019050612f286000830187612aa1565b612f356020830186612aa1565b612f4260408301856128e3565b612f4f6060830184612aa1565b95945050505050565b612f61816129eb565b8114612f6c57600080fd5b50565b600081519050612f7e81612f58565b92915050565b600060208284031215612f9a57612f99612876565b5b6000612fa884828501612f6f565b91505092915050565b7f4e487b7100000000000000000000000000000000000000000000000000000000600052601260045260246000fd5b6000612feb82612880565b9150612ff683612880565b92508261300657613005612fb1565b5b828206905092915050565b600061301c82612880565b915061302783612880565b92508282101561303a57613039612e9c565b5b828203905092915050565b600061305082612880565b915061305b83612880565b9250817fffffffffffffffffffffffffffffffffffffffffffffffffffffffffffffffff048311821515161561309457613093612e9c565b5b828202905092915050565b60006130aa82612ce2565b915061ffff82036130be576130bd612e9c565b5b600182019050919050565b60006130d482612ce2565b9150600082036130e7576130e6612e9c565b5b600182039050919050565b7f4e487b7100000000000000000000000000000000000000000000000000000000600052602260045260246000fd5b6000600282049050600182168061313957607f821691505b60208210810361314c5761314b6130f2565b5b50919050565b7f53656e642045544820746f2062757920736f6d6520746f6b656e730000000000600082015250565b6000613188601b83612c65565b915061319382613152565b602082019050919050565b600060208201905081810360008301526131b78161317b565b9050919050565b7f56656e646f7220636f6e747261637420686173206e6f7420656e6f756768207460008201527f6f6b656e7320696e206974732062616c616e6365000000000000000000000000602082015250565b600061321a603483612c65565b9150613225826131be565b604082019050919050565b600060208201905081810360008301526132498161320d565b9050919050565b7f4661696c656420746f207472616e7366657220746f6b656e20746f2075736572600082015250565b6000613286602083612c65565b915061329182613250565b602082019050919050565b600060208201905081810360008301526132b581613279565b9050919050565b60006060820190506132d16000830186612aa1565b6132de60208301856128e3565b6132eb60408301846128e3565b949350505050565b600081905092915050565b600061330982612c5a565b61331381856132f3565b9350613323818560208601612c76565b80840191505092915050565b600061333b82846132fe565b915081905092915050565b600061335182612880565b915061335c83612880565b9250827fffffffffffffffffffffffffffffffffffffffffffffffffffffffffffffffff0382111561339157613390612e9c565b5b828201905092915050565b60006060820190506133b160008301866128e3565b81810360208301526133c38185612ca9565b90506133d260408301846128e3565b949350505050565b6000819050919050565b6133f56133f082612880565b6133da565b82525050565b60008160601b9050919050565b6000613413826133fb565b9050919050565b600061342582613408565b9050919050565b61343d6134388261292d565b61341a565b82525050565b600061344f82866133e4565b60208201915061345f828561342c565b60148201915061346f82846133e4565b602082019150819050949350505050565b7f4e487b7100000000000000000000000000000000000000000000000000000000600052600160045260246000fdfea264697066735822122013131f09975aa5cb7a411a8a935bd41213377242bc6f31fe642e95b05410552064736f6c634300080e003360806040523480156200001157600080fd5b50604051620012b3380380620012b3833981810160405281019062000037919062000172565b8160008190555080600160006101000a81548173ffffffffffffffffffffffffffffffffffffffff021916908373ffffffffffffffffffffffffffffffffffffffff160217905550600054600260008373ffffffffffffffffffffffffffffffffffffffff1673ffffffffffffffffffffffffffffffffffffffff168152602001908152602001600020819055505050620001b9565b600080fd5b6000819050919050565b620000e781620000d2565b8114620000f357600080fd5b50565b6000815190506200010781620000dc565b92915050565b600073ffffffffffffffffffffffffffffffffffffffff82169050919050565b60006200013a826200010d565b9050919050565b6200014c816200012d565b81146200015857600080fd5b50565b6000815190506200016c8162000141565b92915050565b600080604083850312156200018c576200018b620000cd565b5b60006200019c85828601620000f6565b9250506020620001af858286016200015b565b9150509250929050565b6110ea80620001c96000396000f3fe608060405234801561001057600080fd5b506004361061009e5760003560e01c8063313ce56711610066578063313ce5671461016f57806370a082311461018d57806395d89b41146101bd578063a9059cbb146101db578063dd62ed3e1461020b5761009e565b806306fdde03146100a3578063095ea7b3146100c157806318160ddd146100f1578063202a17fb1461010f57806323b872dd1461013f575b600080fd5b6100ab61023b565b6040516100b89190610d13565b60405180910390f35b6100db60048036038101906100d69190610dce565b610274565b6040516100e89190610e29565b60405180910390f35b6100f9610366565b6040516101069190610e53565b60405180910390f35b61012960048036038101906101249190610e6e565b61036f565b6040516101369190610e29565b60405180910390f35b61015960048036038101906101549190610ed5565b6105b2565b6040516101669190610e29565b60405180910390f35b610177610932565b6040516101849190610f44565b60405180910390f35b6101a760048036038101906101a29190610f5f565b610937565b6040516101b49190610e53565b60405180910390f35b6101c5610980565b6040516101d29190610d13565b60405180910390f35b6101f560048036038101906101f09190610dce565b6109b9565b6040516102029190610e29565b60405180910390f35b61022560048036038101906102209190610f8c565b610ba0565b6040516102329190610e53565b60405180910390f35b6040518060400160405280600981526020017f486f727365436f696e000000000000000000000000000000000000000000000081525081565b600081600360003373ffffffffffffffffffffffffffffffffffffffff1673ffffffffffffffffffffffffffffffffffffffff16815260200190815260200160002060008573ffffffffffffffffffffffffffffffffffffffff1673ffffffffffffffffffffffffffffffffffffffff168152602001908152602001600020819055508273ffffffffffffffffffffffffffffffffffffffff163373ffffffffffffffffffffffffffffffffffffffff167f8c5be1e5ebec7d5bd14f71427d1e84f3dd0314c0f7b2291e5b200ac8c7c3b925846040516103549190610e53565b60405180910390a36001905092915050565b60008054905090565b60008173ffffffffffffffffffffffffffffffffffffffff16600160009054906101000a900473ffffffffffffffffffffffffffffffffffffffff1673ffffffffffffffffffffffffffffffffffffffff16146103cb57600080fd5b600260008673ffffffffffffffffffffffffffffffffffffffff1673ffffffffffffffffffffffffffffffffffffffff1681526020019081526020016000205483111561041757600080fd5b61046983600260008873ffffffffffffffffffffffffffffffffffffffff1673ffffffffffffffffffffffffffffffffffffffff16815260200190815260200160002054610c2790919063ffffffff16565b600260008773ffffffffffffffffffffffffffffffffffffffff1673ffffffffffffffffffffffffffffffffffffffff168152602001908152602001600020819055506104fe83600260008773ffffffffffffffffffffffffffffffffffffffff1673ffffffffffffffffffffffffffffffffffffffff16815260200190815260200160002054610c4e90919063ffffffff16565b600260008673ffffffffffffffffffffffffffffffffffffffff1673ffffffffffffffffffffffffffffffffffffffff168152602001908152602001600020819055508373ffffffffffffffffffffffffffffffffffffffff168573ffffffffffffffffffffffffffffffffffffffff167fddf252ad1be2c89b69c2b068fc378daa952ba7f163c4a11628f55a4df523b3ef8560405161059e9190610e53565b60405180910390a360019050949350505050565b6000600260008573ffffffffffffffffffffffffffffffffffffffff1673ffffffffffffffffffffffffffffffffffffffff1681526020019081526020016000205482111561060057600080fd5b600360008573ffffffffffffffffffffffffffffffffffffffff1673ffffffffffffffffffffffffffffffffffffffff16815260200190815260200160002060003373ffffffffffffffffffffffffffffffffffffffff1673ffffffffffffffffffffffffffffffffffffffff1681526020019081526020016000205482111561068957600080fd5b6106db82600260008773ffffffffffffffffffffffffffffffffffffffff1673ffffffffffffffffffffffffffffffffffffffff16815260200190815260200160002054610c2790919063ffffffff16565b600260008673ffffffffffffffffffffffffffffffffffffffff1673ffffffffffffffffffffffffffffffffffffffff168152602001908152602001600020819055506107ad82600360008773ffffffffffffffffffffffffffffffffffffffff1673ffffffffffffffffffffffffffffffffffffffff16815260200190815260200160002060003373ffffffffffffffffffffffffffffffffffffffff1673ffffffffffffffffffffffffffffffffffffffff16815260200190815260200160002054610c2790919063ffffffff16565b600360008673ffffffffffffffffffffffffffffffffffffffff1673ffffffffffffffffffffffffffffffffffffffff16815260200190815260200160002060003373ffffffffffffffffffffffffffffffffffffffff1673ffffffffffffffffffffffffffffffffffffffff1681526020019081526020016000208190555061087f82600260008673ffffffffffffffffffffffffffffffffffffffff1673ffffffffffffffffffffffffffffffffffffffff16815260200190815260200160002054610c4e90919063ffffffff16565b600260008573ffffffffffffffffffffffffffffffffffffffff1673ffffffffffffffffffffffffffffffffffffffff168152602001908152602001600020819055508273ffffffffffffffffffffffffffffffffffffffff168473ffffffffffffffffffffffffffffffffffffffff167fddf252ad1be2c89b69c2b068fc378daa952ba7f163c4a11628f55a4df523b3ef8460405161091f9190610e53565b60405180910390a3600190509392505050565b600281565b6000600260008373ffffffffffffffffffffffffffffffffffffffff1673ffffffffffffffffffffffffffffffffffffffff168152602001908152602001600020549050919050565b6040518060400160405280600381526020017f485253000000000000000000000000000000000000000000000000000000000081525081565b6000600260003373ffffffffffffffffffffffffffffffffffffffff1673ffffffffffffffffffffffffffffffffffffffff16815260200190815260200160002054821115610a0757600080fd5b610a5982600260003373ffffffffffffffffffffffffffffffffffffffff1673ffffffffffffffffffffffffffffffffffffffff16815260200190815260200160002054610c2790919063ffffffff16565b600260003373ffffffffffffffffffffffffffffffffffffffff1673ffffffffffffffffffffffffffffffffffffffff16815260200190815260200160002081905550610aee82600260008673ffffffffffffffffffffffffffffffffffffffff1673ffffffffffffffffffffffffffffffffffffffff16815260200190815260200160002054610c4e90919063ffffffff16565b600260008573ffffffffffffffffffffffffffffffffffffffff1673ffffffffffffffffffffffffffffffffffffffff168152602001908152602001600020819055508273ffffffffffffffffffffffffffffffffffffffff163373ffffffffffffffffffffffffffffffffffffffff167fddf252ad1be2c89b69c2b068fc378daa952ba7f163c4a11628f55a4df523b3ef84604051610b8e9190610e53565b60405180910390a36001905092915050565b6000600360008473ffffffffffffffffffffffffffffffffffffffff1673ffffffffffffffffffffffffffffffffffffffff16815260200190815260200160002060008373ffffffffffffffffffffffffffffffffffffffff1673ffffffffffffffffffffffffffffffffffffffff16815260200190815260200160002054905092915050565b600082821115610c3a57610c39610fcc565b5b8183610c46919061102a565b905092915050565b6000808284610c5d919061105e565b905083811015610c7057610c6f610fcc565b5b8091505092915050565b600081519050919050565b600082825260208201905092915050565b60005b83811015610cb4578082015181840152602081019050610c99565b83811115610cc3576000848401525b50505050565b6000601f19601f8301169050919050565b6000610ce582610c7a565b610cef8185610c85565b9350610cff818560208601610c96565b610d0881610cc9565b840191505092915050565b60006020820190508181036000830152610d2d8184610cda565b905092915050565b600080fd5b600073ffffffffffffffffffffffffffffffffffffffff82169050919050565b6000610d6582610d3a565b9050919050565b610d7581610d5a565b8114610d8057600080fd5b50565b600081359050610d9281610d6c565b92915050565b6000819050919050565b610dab81610d98565b8114610db657600080fd5b50565b600081359050610dc881610da2565b92915050565b60008060408385031215610de557610de4610d35565b5b6000610df385828601610d83565b9250506020610e0485828601610db9565b9150509250929050565b60008115159050919050565b610e2381610e0e565b82525050565b6000602082019050610e3e6000830184610e1a565b92915050565b610e4d81610d98565b82525050565b6000602082019050610e686000830184610e44565b92915050565b60008060008060808587031215610e8857610e87610d35565b5b6000610e9687828801610d83565b9450506020610ea787828801610d83565b9350506040610eb887828801610db9565b9250506060610ec987828801610d83565b91505092959194509250565b600080600060608486031215610eee57610eed610d35565b5b6000610efc86828701610d83565b9350506020610f0d86828701610d83565b9250506040610f1e86828701610db9565b9150509250925092565b600060ff82169050919050565b610f3e81610f28565b82525050565b6000602082019050610f596000830184610f35565b92915050565b600060208284031215610f7557610f74610d35565b5b6000610f8384828501610d83565b91505092915050565b60008060408385031215610fa357610fa2610d35565b5b6000610fb185828601610d83565b9250506020610fc285828601610d83565b9150509250929050565b7f4e487b7100000000000000000000000000000000000000000000000000000000600052600160045260246000fd5b7f4e487b7100000000000000000000000000000000000000000000000000000000600052601160045260246000fd5b600061103582610d98565b915061104083610d98565b92508282101561105357611052610ffb565b5b828203905092915050565b600061106982610d98565b915061107483610d98565b9250827fffffffffffffffffffffffffffffffffffffffffffffffffffffffffffffffff038211156110a9576110a8610ffb565b5b82820190509291505056fea2646970667358221220d43ae011e92633283f698417f1306146e677586212a9f0c31b8486e19c0e1efd64736f6c634300080e0033",
  "immutableReferences": {},
  "source": "// SPDX-License-Identifier: GPL-3.0\npragma solidity >=0.7.0 <0.9.0;\n\nimport \"./horseracing.sol\";\nimport \"./erc721.sol\";\nimport \"./safemath.sol\";\n\ncontract HorseOwnership is HorseRacing, ERC721 {\n    using SafeMath for uint256;\n\n    mapping(uint256 => address) horseApprovals;\n\n    function balanceOf(address _owner) external view override returns (uint256) {\n        return ownerHorseCount[_owner];\n    }\n\n    function ownerOf(uint256 _tokenId) external view override returns (address) {\n        return horseToOwner[_tokenId];\n    }\n\n    function _transfer(\n        address _from,\n        address _to,\n        uint256 _tokenId\n    ) private {\n        ownerHorseCount[_to] = ownerHorseCount[_to].add(1);\n        ownerHorseCount[msg.sender] = ownerHorseCount[msg.sender].sub(1);\n        horseToOwner[_tokenId] = _to;\n        emit Transfer(_from, _to, _tokenId);\n    }\n\n    function transferFrom(\n        address _from,\n        address _to,\n        uint256 _tokenId\n    ) external payable override {\n        require(\n            horseToOwner[_tokenId] == msg.sender ||\n                horseApprovals[_tokenId] == msg.sender\n        );\n        _transfer(_from, _to, _tokenId);\n    }\n\n    function approve(address _approved, uint256 _tokenId)\n        external\n        payable\n        override\n        onlyOwnerOf(_tokenId)\n    {\n        horseApprovals[_tokenId] = _approved;\n        emit Approval(msg.sender, _approved, _tokenId);\n    }\n}\n",
  "sourcePath": "/home/matias/Desktop/Facultad/Teoria del Lenguaje/Repositorio/TDL-SinoKa-La-Ferrigneta/contracts/racing/horseownership.sol",
  "compiler": {
    "name": "solc",
    "version": "0.8.14+commit.80d49f37.Emscripten.clang"
  },
  "schemaVersion": "3.4.7",
  "updatedAt": "2022-07-01T17:00:50.122Z",
  "devdoc": {
    "kind": "dev",
    "methods": {
      "isOwner()": {
        "returns": {
          "_0": "true if `msg.sender` is the owner of the contract."
        }
      },
      "owner()": {
        "returns": {
          "_0": "the address of the owner."
        }
      },
      "renounceOwnership()": {
        "details": "Allows the current owner to relinquish control of the contract."
      },
      "transferOwnership(address)": {
        "details": "Allows the current owner to transfer control of the contract to a newOwner.",
        "params": {
          "newOwner": "The address to transfer ownership to."
        }
      }
    },
    "version": 1
  },
  "userdoc": {
    "kind": "user",
    "methods": {
      "renounceOwnership()": {
        "notice": "Renouncing to ownership will leave the contract without an owner. It will not be possible to call the functions with the `onlyOwner` modifier anymore."
      }
    },
    "version": 1
  }
}