{
  "contractName": "HorseOwnership",
  "abi": [
    {
      "anonymous": false,
      "inputs": [
        {
          "indexed": true,
          "internalType": "address",
          "name": "_owner",
          "type": "address"
        },
        {
          "indexed": true,
          "internalType": "address",
          "name": "_approved",
          "type": "address"
        },
        {
          "indexed": true,
          "internalType": "uint256",
          "name": "_tokenId",
          "type": "uint256"
        }
      ],
      "name": "Approval",
      "type": "event"
    },
    {
      "anonymous": false,
      "inputs": [
        {
          "indexed": false,
          "internalType": "uint256",
          "name": "horseId",
          "type": "uint256"
        },
        {
          "indexed": false,
          "internalType": "string",
          "name": "name",
          "type": "string"
        },
        {
          "indexed": false,
          "internalType": "uint256",
          "name": "dna",
          "type": "uint256"
        }
      ],
      "name": "NewHorse",
      "type": "event"
    },
    {
      "anonymous": false,
      "inputs": [
        {
          "indexed": true,
          "internalType": "address",
          "name": "previousOwner",
          "type": "address"
        },
        {
          "indexed": true,
          "internalType": "address",
          "name": "newOwner",
          "type": "address"
        }
      ],
      "name": "OwnershipTransferred",
      "type": "event"
    },
    {
      "anonymous": false,
      "inputs": [
        {
          "indexed": true,
          "internalType": "address",
          "name": "_from",
          "type": "address"
        },
        {
          "indexed": true,
          "internalType": "address",
          "name": "_to",
          "type": "address"
        },
        {
          "indexed": true,
          "internalType": "uint256",
          "name": "_tokenId",
          "type": "uint256"
        }
      ],
      "name": "Transfer",
      "type": "event"
    },
    {
      "inputs": [
        {
          "internalType": "uint256",
          "name": "_horseId",
          "type": "uint256"
        }
      ],
      "name": "bet",
      "outputs": [],
      "stateMutability": "payable",
      "type": "function"
    },
    {
      "inputs": [
        {
          "internalType": "string",
          "name": "_name",
          "type": "string"
        }
      ],
      "name": "createRandomHorse",
      "outputs": [],
      "stateMutability": "nonpayable",
      "type": "function"
    },
    {
      "inputs": [
        {
          "internalType": "address",
          "name": "_owner",
          "type": "address"
        }
      ],
      "name": "getHorsesByOwner",
      "outputs": [
        {
          "internalType": "uint256[]",
          "name": "",
          "type": "uint256[]"
        }
      ],
      "stateMutability": "view",
      "type": "function"
    },
    {
      "inputs": [
        {
          "internalType": "uint256",
          "name": "",
          "type": "uint256"
        }
      ],
      "name": "horseToOwner",
      "outputs": [
        {
          "internalType": "address",
          "name": "",
          "type": "address"
        }
      ],
      "stateMutability": "view",
      "type": "function"
    },
    {
      "inputs": [
        {
          "internalType": "uint256",
          "name": "",
          "type": "uint256"
        }
      ],
      "name": "horses",
      "outputs": [
        {
          "internalType": "string",
          "name": "name",
          "type": "string"
        },
        {
          "internalType": "uint256",
          "name": "dna",
          "type": "uint256"
        },
        {
          "internalType": "uint16",
          "name": "winCount",
          "type": "uint16"
        },
        {
          "internalType": "uint16",
          "name": "lossCount",
          "type": "uint16"
        }
      ],
      "stateMutability": "view",
      "type": "function"
    },
    {
      "inputs": [],
      "name": "isOwner",
      "outputs": [
        {
          "internalType": "bool",
          "name": "",
          "type": "bool"
        }
      ],
      "stateMutability": "view",
      "type": "function"
    },
    {
      "inputs": [],
      "name": "owner",
      "outputs": [
        {
          "internalType": "address",
          "name": "",
          "type": "address"
        }
      ],
      "stateMutability": "view",
      "type": "function"
    },
    {
      "inputs": [],
      "name": "renounceOwnership",
      "outputs": [],
      "stateMutability": "nonpayable",
      "type": "function"
    },
    {
      "inputs": [
        {
          "internalType": "uint256",
          "name": "_bet",
          "type": "uint256"
        }
      ],
      "name": "setBet",
      "outputs": [],
      "stateMutability": "nonpayable",
      "type": "function"
    },
    {
      "inputs": [
        {
          "internalType": "address",
          "name": "newOwner",
          "type": "address"
        }
      ],
      "name": "transferOwnership",
      "outputs": [],
      "stateMutability": "nonpayable",
      "type": "function"
    },
    {
      "inputs": [
        {
          "internalType": "address",
          "name": "_owner",
          "type": "address"
        }
      ],
      "name": "balanceOf",
      "outputs": [
        {
          "internalType": "uint256",
          "name": "",
          "type": "uint256"
        }
      ],
      "stateMutability": "view",
      "type": "function"
    },
    {
      "inputs": [
        {
          "internalType": "uint256",
          "name": "_tokenId",
          "type": "uint256"
        }
      ],
      "name": "ownerOf",
      "outputs": [
        {
          "internalType": "address",
          "name": "",
          "type": "address"
        }
      ],
      "stateMutability": "view",
      "type": "function"
    },
    {
      "inputs": [
        {
          "internalType": "address",
          "name": "_from",
          "type": "address"
        },
        {
          "internalType": "address",
          "name": "_to",
          "type": "address"
        },
        {
          "internalType": "uint256",
          "name": "_tokenId",
          "type": "uint256"
        }
      ],
      "name": "transferFrom",
      "outputs": [],
      "stateMutability": "payable",
      "type": "function"
    },
    {
      "inputs": [
        {
          "internalType": "address",
          "name": "_approved",
          "type": "address"
        },
        {
          "internalType": "uint256",
          "name": "_tokenId",
          "type": "uint256"
        }
      ],
      "name": "approve",
      "outputs": [],
      "stateMutability": "payable",
      "type": "function"
    }
  ],
  "bytecode": "0x60806040526010600155600154600a6200001a91906200028e565b600255662386f26fc100006006556000600e556000600f553480156200003f57600080fd5b50336000806101000a81548173ffffffffffffffffffffffffffffffffffffffff021916908373ffffffffffffffffffffffffffffffffffffffff16021790555060008054906101000a900473ffffffffffffffffffffffffffffffffffffffff1673ffffffffffffffffffffffffffffffffffffffff16600073ffffffffffffffffffffffffffffffffffffffff167f8be0079c531659141344cd1fd0a4f28419497f9722a3daafe3b4186f6b6457e060405160405180910390a3620002df565b7f4e487b7100000000000000000000000000000000000000000000000000000000600052601160045260246000fd5b60008160011c9050919050565b6000808291508390505b60018511156200018f5780860481111562000167576200016662000101565b5b6001851615620001775780820291505b8081029050620001878562000130565b945062000147565b94509492505050565b600082620001aa57600190506200027d565b81620001ba57600090506200027d565b8160018114620001d35760028114620001de5762000214565b60019150506200027d565b60ff841115620001f357620001f262000101565b5b8360020a9150848211156200020d576200020c62000101565b5b506200027d565b5060208310610133831016604e8410600b84101617156200024e5782820a90508381111562000248576200024762000101565b5b6200027d565b6200025d84848460016200013d565b9250905081840481111562000277576200027662000101565b5b81810290505b9392505050565b6000819050919050565b60006200029b8262000284565b9150620002a88362000284565b9250620002d77fffffffffffffffffffffffffffffffffffffffffffffffffffffffffffffffff848462000198565b905092915050565b611d5f80620002ef6000396000f3fe6080604052600436106100dd5760003560e01c80638da5cb5b1161007f578063c8b62d6411610059578063c8b62d6414610286578063da677fa2146102c3578063e8399cc614610300578063f2fde38b14610329576100dd565b80638da5cb5b146101f05780638f32d59b1461021b5780638f8b5cde14610246576100dd565b806370a08231116100bb57806370a0823114610157578063715018a614610194578063735e9c50146101ab5780637365870b146101d4576100dd565b8063095ea7b3146100e257806323b872dd146100fe5780636352211e1461011a575b600080fd5b6100fc60048036038101906100f7919061144f565b610352565b005b6101186004803603810190610113919061148f565b610470565b005b34801561012657600080fd5b50610141600480360381019061013c91906114e2565b610554565b60405161014e919061151e565b60405180910390f35b34801561016357600080fd5b5061017e60048036038101906101799190611539565b610591565b60405161018b9190611575565b60405180910390f35b3480156101a057600080fd5b506101a96105da565b005b3480156101b757600080fd5b506101d260048036038101906101cd91906116d6565b6106a9565b005b6101ee60048036038101906101e991906114e2565b61072a565b005b3480156101fc57600080fd5b50610205610816565b604051610212919061151e565b60405180910390f35b34801561022757600080fd5b5061023061083f565b60405161023d919061173a565b60405180910390f35b34801561025257600080fd5b5061026d600480360381019061026891906114e2565b610896565b60405161027d94939291906117fa565b60405180910390f35b34801561029257600080fd5b506102ad60048036038101906102a89190611539565b61097a565b6040516102ba9190611904565b60405180910390f35b3480156102cf57600080fd5b506102ea60048036038101906102e591906114e2565b610acc565b6040516102f7919061151e565b60405180910390f35b34801561030c57600080fd5b50610327600480360381019061032291906114e2565b610aff565b005b34801561033557600080fd5b50610350600480360381019061034b9190611539565b610b1a565b005b806004600082815260200190815260200160002060009054906101000a900473ffffffffffffffffffffffffffffffffffffffff1673ffffffffffffffffffffffffffffffffffffffff163373ffffffffffffffffffffffffffffffffffffffff16146103be57600080fd5b826010600084815260200190815260200160002060006101000a81548173ffffffffffffffffffffffffffffffffffffffff021916908373ffffffffffffffffffffffffffffffffffffffff160217905550818373ffffffffffffffffffffffffffffffffffffffff163373ffffffffffffffffffffffffffffffffffffffff167f8c5be1e5ebec7d5bd14f71427d1e84f3dd0314c0f7b2291e5b200ac8c7c3b92560405160405180910390a4505050565b3373ffffffffffffffffffffffffffffffffffffffff166004600083815260200190815260200160002060009054906101000a900473ffffffffffffffffffffffffffffffffffffffff1673ffffffffffffffffffffffffffffffffffffffff16148061053b57503373ffffffffffffffffffffffffffffffffffffffff166010600083815260200190815260200160002060009054906101000a900473ffffffffffffffffffffffffffffffffffffffff1673ffffffffffffffffffffffffffffffffffffffff16145b61054457600080fd5b61054f838383610b37565b505050565b60006004600083815260200190815260200160002060009054906101000a900473ffffffffffffffffffffffffffffffffffffffff169050919050565b6000600560008373ffffffffffffffffffffffffffffffffffffffff1673ffffffffffffffffffffffffffffffffffffffff168152602001908152602001600020549050919050565b6105e261083f565b6105eb57600080fd5b600073ffffffffffffffffffffffffffffffffffffffff1660008054906101000a900473ffffffffffffffffffffffffffffffffffffffff1673ffffffffffffffffffffffffffffffffffffffff167f8be0079c531659141344cd1fd0a4f28419497f9722a3daafe3b4186f6b6457e060405160405180910390a360008060006101000a81548173ffffffffffffffffffffffffffffffffffffffff021916908373ffffffffffffffffffffffffffffffffffffffff160217905550565b6000600560003373ffffffffffffffffffffffffffffffffffffffff1673ffffffffffffffffffffffffffffffffffffffff16815260200190815260200160002054146106f557600080fd5b600061070082610d15565b905060648161070f9190611955565b8161071a91906119b5565b90506107268282610d5a565b5050565b806004600082815260200190815260200160002060009054906101000a900473ffffffffffffffffffffffffffffffffffffffff1673ffffffffffffffffffffffffffffffffffffffff163373ffffffffffffffffffffffffffffffffffffffff161461079657600080fd5b60065434146107a457600080fd5b600160076107b291906119b5565b600e54106107bf57600080fd5b816007600e54600781106107d6576107d56119e9565b5b0181905550600e60008154809291906107ee90611a18565b91905055506001600761080191906119b5565b600e540361081257610811610f5d565b5b5050565b60008060009054906101000a900473ffffffffffffffffffffffffffffffffffffffff16905090565b60008060009054906101000a900473ffffffffffffffffffffffffffffffffffffffff1673ffffffffffffffffffffffffffffffffffffffff163373ffffffffffffffffffffffffffffffffffffffff1614905090565b600381815481106108a657600080fd5b90600052602060002090600302016000915090508060000180546108c990611a8f565b80601f01602080910402602001604051908101604052809291908181526020018280546108f590611a8f565b80156109425780601f1061091757610100808354040283529160200191610942565b820191906000526020600020905b81548152906001019060200180831161092557829003601f168201915b5050505050908060010154908060020160009054906101000a900461ffff16908060020160029054906101000a900461ffff16905084565b60606000600560008473ffffffffffffffffffffffffffffffffffffffff1673ffffffffffffffffffffffffffffffffffffffff1681526020019081526020016000205467ffffffffffffffff8111156109d7576109d66115ab565b5b604051908082528060200260200182016040528015610a055781602001602082028036833780820191505090505b5090506000805b600380549050811015610ac1578473ffffffffffffffffffffffffffffffffffffffff166004600083815260200190815260200160002060009054906101000a900473ffffffffffffffffffffffffffffffffffffffff1673ffffffffffffffffffffffffffffffffffffffff1603610aae5780838381518110610a9357610a926119e9565b5b6020026020010181815250508180610aaa90611a18565b9250505b8080610ab990611a18565b915050610a0c565b508192505050919050565b60046020528060005260406000206000915054906101000a900473ffffffffffffffffffffffffffffffffffffffff1681565b610b0761083f565b610b1057600080fd5b8060068190555050565b610b2261083f565b610b2b57600080fd5b610b3481611162565b50565b610b8a6001600560008573ffffffffffffffffffffffffffffffffffffffff1673ffffffffffffffffffffffffffffffffffffffff1681526020019081526020016000205461125890919063ffffffff16565b600560008473ffffffffffffffffffffffffffffffffffffffff1673ffffffffffffffffffffffffffffffffffffffff16815260200190815260200160002081905550610c206001600560003373ffffffffffffffffffffffffffffffffffffffff1673ffffffffffffffffffffffffffffffffffffffff1681526020019081526020016000205461128490919063ffffffff16565b600560003373ffffffffffffffffffffffffffffffffffffffff1673ffffffffffffffffffffffffffffffffffffffff16815260200190815260200160002081905550816004600083815260200190815260200160002060006101000a81548173ffffffffffffffffffffffffffffffffffffffff021916908373ffffffffffffffffffffffffffffffffffffffff160217905550808273ffffffffffffffffffffffffffffffffffffffff168473ffffffffffffffffffffffffffffffffffffffff167fddf252ad1be2c89b69c2b068fc378daa952ba7f163c4a11628f55a4df523b3ef60405160405180910390a4505050565b60008082604051602001610d299190611afc565b6040516020818303038152906040528051906020012060001c905060025481610d529190611955565b915050919050565b60036040518060800160405280848152602001838152602001600061ffff168152602001600061ffff1681525090806001815401808255809150506001900390600052602060002090600302016000909190919091506000820151816000019080519060200190610dcc929190611304565b506020820151816001015560408201518160020160006101000a81548161ffff021916908361ffff16021790555060608201518160020160026101000a81548161ffff021916908361ffff160217905550505060006001600380549050610e3391906119b5565b9050336004600083815260200190815260200160002060006101000a81548173ffffffffffffffffffffffffffffffffffffffff021916908373ffffffffffffffffffffffffffffffffffffffff160217905550610eda6001600560003373ffffffffffffffffffffffffffffffffffffffff1673ffffffffffffffffffffffffffffffffffffffff1681526020019081526020016000205461125890919063ffffffff16565b600560003373ffffffffffffffffffffffffffffffffffffffff1673ffffffffffffffffffffffffffffffffffffffff168152602001908152602001600020819055507f7512d04afc710279875c44ad61b2e78695e3824abb3178ec09c9199e13314c5d818484604051610f5093929190611b13565b60405180910390a1505050565b60006007610f6b60076112ab565b60078110610f7c57610f7b6119e9565b5b0154905060038181548110610f9457610f936119e9565b5b9060005260206000209060030201600201600081819054906101000a900461ffff1680929190610fc390611b51565b91906101000a81548161ffff021916908361ffff1602179055505060005b60078110156110705760036007826007811061100057610fff6119e9565b5b015481548110611013576110126119e9565b5b9060005260206000209060030201600201600281819054906101000a900461ffff168092919061104290611b51565b91906101000a81548161ffff021916908361ffff16021790555050808061106890611a18565b915050610fe1565b5060038181548110611085576110846119e9565b5b9060005260206000209060030201600201600281819054906101000a900461ffff16809291906110b490611b7b565b91906101000a81548161ffff021916908361ffff160217905550506004600082815260200190815260200160002060009054906101000a900473ffffffffffffffffffffffffffffffffffffffff1673ffffffffffffffffffffffffffffffffffffffff166108fc600760065461112b9190611ba4565b9081150290604051600060405180830381858888f19350505050158015611156573d6000803e3d6000fd5b506000600e8190555050565b600073ffffffffffffffffffffffffffffffffffffffff168173ffffffffffffffffffffffffffffffffffffffff160361119b57600080fd5b8073ffffffffffffffffffffffffffffffffffffffff1660008054906101000a900473ffffffffffffffffffffffffffffffffffffffff1673ffffffffffffffffffffffffffffffffffffffff167f8be0079c531659141344cd1fd0a4f28419497f9722a3daafe3b4186f6b6457e060405160405180910390a3806000806101000a81548173ffffffffffffffffffffffffffffffffffffffff021916908373ffffffffffffffffffffffffffffffffffffffff16021790555050565b60008082846112679190611bfe565b90508381101561127a57611279611c54565b5b8091505092915050565b60008282111561129757611296611c54565b5b81836112a391906119b5565b905092915050565b60006001600f546112bc9190611bfe565b600f81905550814233600f546040516020016112da93929190611cec565b6040516020818303038152906040528051906020012060001c6112fd9190611955565b9050919050565b82805461131090611a8f565b90600052602060002090601f0160209004810192826113325760008555611379565b82601f1061134b57805160ff1916838001178555611379565b82800160010185558215611379579182015b8281111561137857825182559160200191906001019061135d565b5b509050611386919061138a565b5090565b5b808211156113a357600081600090555060010161138b565b5090565b6000604051905090565b600080fd5b600080fd5b600073ffffffffffffffffffffffffffffffffffffffff82169050919050565b60006113e6826113bb565b9050919050565b6113f6816113db565b811461140157600080fd5b50565b600081359050611413816113ed565b92915050565b6000819050919050565b61142c81611419565b811461143757600080fd5b50565b60008135905061144981611423565b92915050565b60008060408385031215611466576114656113b1565b5b600061147485828601611404565b92505060206114858582860161143a565b9150509250929050565b6000806000606084860312156114a8576114a76113b1565b5b60006114b686828701611404565b93505060206114c786828701611404565b92505060406114d88682870161143a565b9150509250925092565b6000602082840312156114f8576114f76113b1565b5b60006115068482850161143a565b91505092915050565b611518816113db565b82525050565b6000602082019050611533600083018461150f565b92915050565b60006020828403121561154f5761154e6113b1565b5b600061155d84828501611404565b91505092915050565b61156f81611419565b82525050565b600060208201905061158a6000830184611566565b92915050565b600080fd5b600080fd5b6000601f19601f8301169050919050565b7f4e487b7100000000000000000000000000000000000000000000000000000000600052604160045260246000fd5b6115e38261159a565b810181811067ffffffffffffffff82111715611602576116016115ab565b5b80604052505050565b60006116156113a7565b905061162182826115da565b919050565b600067ffffffffffffffff821115611641576116406115ab565b5b61164a8261159a565b9050602081019050919050565b82818337600083830152505050565b600061167961167484611626565b61160b565b90508281526020810184848401111561169557611694611595565b5b6116a0848285611657565b509392505050565b600082601f8301126116bd576116bc611590565b5b81356116cd848260208601611666565b91505092915050565b6000602082840312156116ec576116eb6113b1565b5b600082013567ffffffffffffffff81111561170a576117096113b6565b5b611716848285016116a8565b91505092915050565b60008115159050919050565b6117348161171f565b82525050565b600060208201905061174f600083018461172b565b92915050565b600081519050919050565b600082825260208201905092915050565b60005b8381101561178f578082015181840152602081019050611774565b8381111561179e576000848401525b50505050565b60006117af82611755565b6117b98185611760565b93506117c9818560208601611771565b6117d28161159a565b840191505092915050565b600061ffff82169050919050565b6117f4816117dd565b82525050565b6000608082019050818103600083015261181481876117a4565b90506118236020830186611566565b61183060408301856117eb565b61183d60608301846117eb565b95945050505050565b600081519050919050565b600082825260208201905092915050565b6000819050602082019050919050565b61187b81611419565b82525050565b600061188d8383611872565b60208301905092915050565b6000602082019050919050565b60006118b182611846565b6118bb8185611851565b93506118c683611862565b8060005b838110156118f75781516118de8882611881565b97506118e983611899565b9250506001810190506118ca565b5085935050505092915050565b6000602082019050818103600083015261191e81846118a6565b905092915050565b7f4e487b7100000000000000000000000000000000000000000000000000000000600052601260045260246000fd5b600061196082611419565b915061196b83611419565b92508261197b5761197a611926565b5b828206905092915050565b7f4e487b7100000000000000000000000000000000000000000000000000000000600052601160045260246000fd5b60006119c082611419565b91506119cb83611419565b9250828210156119de576119dd611986565b5b828203905092915050565b7f4e487b7100000000000000000000000000000000000000000000000000000000600052603260045260246000fd5b6000611a2382611419565b91507fffffffffffffffffffffffffffffffffffffffffffffffffffffffffffffffff8203611a5557611a54611986565b5b600182019050919050565b7f4e487b7100000000000000000000000000000000000000000000000000000000600052602260045260246000fd5b60006002820490506001821680611aa757607f821691505b602082108103611aba57611ab9611a60565b5b50919050565b600081905092915050565b6000611ad682611755565b611ae08185611ac0565b9350611af0818560208601611771565b80840191505092915050565b6000611b088284611acb565b915081905092915050565b6000606082019050611b286000830186611566565b8181036020830152611b3a81856117a4565b9050611b496040830184611566565b949350505050565b6000611b5c826117dd565b915061ffff8203611b7057611b6f611986565b5b600182019050919050565b6000611b86826117dd565b915060008203611b9957611b98611986565b5b600182039050919050565b6000611baf82611419565b9150611bba83611419565b9250817fffffffffffffffffffffffffffffffffffffffffffffffffffffffffffffffff0483118215151615611bf357611bf2611986565b5b828202905092915050565b6000611c0982611419565b9150611c1483611419565b9250827fffffffffffffffffffffffffffffffffffffffffffffffffffffffffffffffff03821115611c4957611c48611986565b5b828201905092915050565b7f4e487b7100000000000000000000000000000000000000000000000000000000600052600160045260246000fd5b6000819050919050565b611c9e611c9982611419565b611c83565b82525050565b60008160601b9050919050565b6000611cbc82611ca4565b9050919050565b6000611cce82611cb1565b9050919050565b611ce6611ce1826113db565b611cc3565b82525050565b6000611cf88286611c8d565b602082019150611d088285611cd5565b601482019150611d188284611c8d565b60208201915081905094935050505056fea2646970667358221220991dabd36dfdd22dab2c32d999c39445b5cad15c82decf32a06376ab5ae8309664736f6c634300080e0033",
  "immutableReferences": {},
  "source": "// SPDX-License-Identifier: GPL-3.0\r\npragma solidity >=0.7.0 <0.9.0;\r\n\r\nimport \"./horseracing.sol\";\r\nimport \"./erc721.sol\";\r\nimport \"./safemath.sol\";\r\n\r\ncontract HorseOwnership is HorseRacing, ERC721 {\r\n    using SafeMath for uint256;\r\n\r\n    mapping(uint256 => address) horseApprovals;\r\n\r\n    function balanceOf(address _owner) external view override returns (uint256) {\r\n        return ownerHorseCount[_owner];\r\n    }\r\n\r\n    function ownerOf(uint256 _tokenId) external view override returns (address) {\r\n        return horseToOwner[_tokenId];\r\n    }\r\n\r\n    function _transfer(\r\n        address _from,\r\n        address _to,\r\n        uint256 _tokenId\r\n    ) private {\r\n        ownerHorseCount[_to] = ownerHorseCount[_to].add(1);\r\n        ownerHorseCount[msg.sender] = ownerHorseCount[msg.sender].sub(1);\r\n        horseToOwner[_tokenId] = _to;\r\n        emit Transfer(_from, _to, _tokenId);\r\n    }\r\n\r\n    function transferFrom(\r\n        address _from,\r\n        address _to,\r\n        uint256 _tokenId\r\n    ) external payable override {\r\n        require(\r\n            horseToOwner[_tokenId] == msg.sender ||\r\n                horseApprovals[_tokenId] == msg.sender\r\n        );\r\n        _transfer(_from, _to, _tokenId);\r\n    }\r\n\r\n    function approve(address _approved, uint256 _tokenId)\r\n        external\r\n        payable\r\n        override\r\n        onlyOwnerOf(_tokenId)\r\n    {\r\n        horseApprovals[_tokenId] = _approved;\r\n        emit Approval(msg.sender, _approved, _tokenId);\r\n    }\r\n}\r\n",
  "sourcePath": "C:\\Users\\Dante\\Documents\\GitHub\\TDL-SinoKa-La-Ferrigneta\\contracts\\racing\\horseownership.sol",
  "compiler": {
    "name": "solc",
    "version": "0.8.14+commit.80d49f37.Emscripten.clang"
  },
  "schemaVersion": "3.4.4",
  "updatedAt": "2022-06-22T02:10:44.834Z",
  "devdoc": {
    "kind": "dev",
    "methods": {
      "isOwner()": {
        "returns": {
          "_0": "true if `msg.sender` is the owner of the contract."
        }
      },
      "owner()": {
        "returns": {
          "_0": "the address of the owner."
        }
      },
      "renounceOwnership()": {
        "details": "Allows the current owner to relinquish control of the contract."
      },
      "transferOwnership(address)": {
        "details": "Allows the current owner to transfer control of the contract to a newOwner.",
        "params": {
          "newOwner": "The address to transfer ownership to."
        }
      }
    },
    "version": 1
  },
  "userdoc": {
    "kind": "user",
    "methods": {
      "renounceOwnership()": {
        "notice": "Renouncing to ownership will leave the contract without an owner. It will not be possible to call the functions with the `onlyOwner` modifier anymore."
      }
    },
    "version": 1
  }
}