{
  "contractName": "HorseOwnership",
  "abi": [
    {
      "anonymous": false,
      "inputs": [
        {
          "indexed": true,
          "internalType": "address",
          "name": "_owner",
          "type": "address"
        },
        {
          "indexed": true,
          "internalType": "address",
          "name": "_approved",
          "type": "address"
        },
        {
          "indexed": true,
          "internalType": "uint256",
          "name": "_tokenId",
          "type": "uint256"
        }
      ],
      "name": "Approval",
      "type": "event"
    },
    {
      "anonymous": false,
      "inputs": [
        {
          "indexed": false,
          "internalType": "address",
          "name": "buyer",
          "type": "address"
        },
        {
          "indexed": false,
          "internalType": "uint256",
          "name": "amountOfETH",
          "type": "uint256"
        },
        {
          "indexed": false,
          "internalType": "uint256",
          "name": "amountOfTokens",
          "type": "uint256"
        }
      ],
      "name": "BuyTokens",
      "type": "event"
    },
    {
      "anonymous": false,
      "inputs": [
        {
          "indexed": false,
          "internalType": "uint256",
          "name": "horseId",
          "type": "uint256"
        },
        {
          "indexed": false,
          "internalType": "string",
          "name": "name",
          "type": "string"
        },
        {
          "indexed": false,
          "internalType": "uint256",
          "name": "dna",
          "type": "uint256"
        }
      ],
      "name": "NewHorse",
      "type": "event"
    },
    {
      "anonymous": false,
      "inputs": [
        {
          "indexed": true,
          "internalType": "address",
          "name": "previousOwner",
          "type": "address"
        },
        {
          "indexed": true,
          "internalType": "address",
          "name": "newOwner",
          "type": "address"
        }
      ],
      "name": "OwnershipTransferred",
      "type": "event"
    },
    {
      "anonymous": false,
      "inputs": [
        {
          "indexed": false,
          "internalType": "uint256",
          "name": "_betAmount",
          "type": "uint256"
        },
        {
          "indexed": false,
          "internalType": "uint256",
          "name": "_numberOfParticipants",
          "type": "uint256"
        },
        {
          "indexed": false,
          "internalType": "uint256[4]",
          "name": "_participants",
          "type": "uint256[4]"
        },
        {
          "indexed": false,
          "internalType": "address",
          "name": "_winner",
          "type": "address"
        },
        {
          "indexed": false,
          "internalType": "uint256",
          "name": "_winnerHorseId",
          "type": "uint256"
        }
      ],
      "name": "Race",
      "type": "event"
    },
    {
      "anonymous": false,
      "inputs": [
        {
          "indexed": true,
          "internalType": "address",
          "name": "_from",
          "type": "address"
        },
        {
          "indexed": true,
          "internalType": "address",
          "name": "_to",
          "type": "address"
        },
        {
          "indexed": true,
          "internalType": "uint256",
          "name": "_tokenId",
          "type": "uint256"
        }
      ],
      "name": "Transfer",
      "type": "event"
    },
    {
      "inputs": [
        {
          "internalType": "uint256",
          "name": "_horseId",
          "type": "uint256"
        }
      ],
      "name": "bet",
      "outputs": [],
      "stateMutability": "nonpayable",
      "type": "function"
    },
    {
      "inputs": [],
      "name": "buyTokens",
      "outputs": [
        {
          "internalType": "uint256",
          "name": "tokenAmount",
          "type": "uint256"
        }
      ],
      "stateMutability": "payable",
      "type": "function"
    },
    {
      "inputs": [
        {
          "internalType": "string",
          "name": "_name",
          "type": "string"
        }
      ],
      "name": "createRandomHorse",
      "outputs": [],
      "stateMutability": "nonpayable",
      "type": "function"
    },
    {
      "inputs": [
        {
          "internalType": "address",
          "name": "_owner",
          "type": "address"
        }
      ],
      "name": "getHorsesByOwner",
      "outputs": [
        {
          "internalType": "uint256[]",
          "name": "",
          "type": "uint256[]"
        }
      ],
      "stateMutability": "view",
      "type": "function"
    },
    {
      "inputs": [
        {
          "internalType": "uint256",
          "name": "",
          "type": "uint256"
        }
      ],
      "name": "horseToOwner",
      "outputs": [
        {
          "internalType": "address",
          "name": "",
          "type": "address"
        }
      ],
      "stateMutability": "view",
      "type": "function"
    },
    {
      "inputs": [
        {
          "internalType": "uint256",
          "name": "",
          "type": "uint256"
        }
      ],
      "name": "horses",
      "outputs": [
        {
          "internalType": "string",
          "name": "name",
          "type": "string"
        },
        {
          "internalType": "uint256",
          "name": "dna",
          "type": "uint256"
        },
        {
          "internalType": "uint16",
          "name": "winCount",
          "type": "uint16"
        },
        {
          "internalType": "uint16",
          "name": "lossCount",
          "type": "uint16"
        }
      ],
      "stateMutability": "view",
      "type": "function"
    },
    {
      "inputs": [],
      "name": "isOwner",
      "outputs": [
        {
          "internalType": "bool",
          "name": "",
          "type": "bool"
        }
      ],
      "stateMutability": "view",
      "type": "function"
    },
    {
      "inputs": [
        {
          "internalType": "uint256",
          "name": "winner",
          "type": "uint256"
        }
      ],
      "name": "mock_race",
      "outputs": [
        {
          "internalType": "uint256",
          "name": "",
          "type": "uint256"
        }
      ],
      "stateMutability": "nonpayable",
      "type": "function"
    },
    {
      "inputs": [],
      "name": "owner",
      "outputs": [
        {
          "internalType": "address",
          "name": "",
          "type": "address"
        }
      ],
      "stateMutability": "view",
      "type": "function"
    },
    {
      "inputs": [],
      "name": "race",
      "outputs": [],
      "stateMutability": "nonpayable",
      "type": "function"
    },
    {
      "inputs": [],
      "name": "renounceOwnership",
      "outputs": [],
      "stateMutability": "nonpayable",
      "type": "function"
    },
    {
      "inputs": [
        {
          "internalType": "address",
          "name": "tokenOwner",
          "type": "address"
        }
      ],
      "name": "returnBalanceOf",
      "outputs": [
        {
          "internalType": "uint256",
          "name": "",
          "type": "uint256"
        }
      ],
      "stateMutability": "view",
      "type": "function"
    },
    {
      "inputs": [],
      "name": "returnRaceBet",
      "outputs": [
        {
          "internalType": "uint256",
          "name": "",
          "type": "uint256"
        }
      ],
      "stateMutability": "view",
      "type": "function"
    },
    {
      "inputs": [],
      "name": "returnRaceLength",
      "outputs": [
        {
          "internalType": "uint256",
          "name": "",
          "type": "uint256"
        }
      ],
      "stateMutability": "view",
      "type": "function"
    },
    {
      "inputs": [],
      "name": "returnTotalBet",
      "outputs": [
        {
          "internalType": "uint256",
          "name": "",
          "type": "uint256"
        }
      ],
      "stateMutability": "view",
      "type": "function"
    },
    {
      "inputs": [
        {
          "internalType": "uint256",
          "name": "_bet",
          "type": "uint256"
        }
      ],
      "name": "setBet",
      "outputs": [],
      "stateMutability": "nonpayable",
      "type": "function"
    },
    {
      "inputs": [],
      "name": "tokensPerEth",
      "outputs": [
        {
          "internalType": "uint256",
          "name": "",
          "type": "uint256"
        }
      ],
      "stateMutability": "view",
      "type": "function"
    },
    {
      "inputs": [
        {
          "internalType": "address",
          "name": "newOwner",
          "type": "address"
        }
      ],
      "name": "transferOwnership",
      "outputs": [],
      "stateMutability": "nonpayable",
      "type": "function"
    },
    {
      "inputs": [
        {
          "internalType": "address",
          "name": "to",
          "type": "address"
        },
        {
          "internalType": "uint256",
          "name": "tokens",
          "type": "uint256"
        }
      ],
      "name": "transferToken",
      "outputs": [
        {
          "internalType": "bool",
          "name": "success",
          "type": "bool"
        }
      ],
      "stateMutability": "nonpayable",
      "type": "function"
    },
    {
      "inputs": [
        {
          "internalType": "address",
          "name": "_owner",
          "type": "address"
        }
      ],
      "name": "balanceOf",
      "outputs": [
        {
          "internalType": "uint256",
          "name": "",
          "type": "uint256"
        }
      ],
      "stateMutability": "view",
      "type": "function"
    },
    {
      "inputs": [
        {
          "internalType": "uint256",
          "name": "_tokenId",
          "type": "uint256"
        }
      ],
      "name": "ownerOf",
      "outputs": [
        {
          "internalType": "address",
          "name": "",
          "type": "address"
        }
      ],
      "stateMutability": "view",
      "type": "function"
    },
    {
      "inputs": [
        {
          "internalType": "address",
          "name": "_from",
          "type": "address"
        },
        {
          "internalType": "address",
          "name": "_to",
          "type": "address"
        },
        {
          "internalType": "uint256",
          "name": "_tokenId",
          "type": "uint256"
        }
      ],
      "name": "transferFrom",
      "outputs": [],
      "stateMutability": "payable",
      "type": "function"
    },
    {
      "inputs": [
        {
          "internalType": "address",
          "name": "_approved",
          "type": "address"
        },
        {
          "internalType": "uint256",
          "name": "_tokenId",
          "type": "uint256"
        }
      ],
      "name": "approve",
      "outputs": [],
      "stateMutability": "payable",
      "type": "function"
    }
  ],
  "bytecode": "0x60806040526010600155600154600a6200001a919062000364565b600255600a60065560046007556000600c556000600d556000600e5560646011553480156200004857600080fd5b50336000806101000a81548173ffffffffffffffffffffffffffffffffffffffff021916908373ffffffffffffffffffffffffffffffffffffffff16021790555060008054906101000a900473ffffffffffffffffffffffffffffffffffffffff1673ffffffffffffffffffffffffffffffffffffffff16600073ffffffffffffffffffffffffffffffffffffffff167f8be0079c531659141344cd1fd0a4f28419497f9722a3daafe3b4186f6b6457e060405160405180910390a3620f4240336040516200011790620001c9565b6200012492919062000447565b604051809103906000f08015801562000141573d6000803e3d6000fd5b50600f60006101000a81548173ffffffffffffffffffffffffffffffffffffffff021916908373ffffffffffffffffffffffffffffffffffffffff16021790555033601060006101000a81548173ffffffffffffffffffffffffffffffffffffffff021916908373ffffffffffffffffffffffffffffffffffffffff16021790555062000474565b610fce8062002ec583390190565b7f4e487b7100000000000000000000000000000000000000000000000000000000600052601160045260246000fd5b60008160011c9050919050565b6000808291508390505b600185111562000265578086048111156200023d576200023c620001d7565b5b60018516156200024d5780820291505b80810290506200025d8562000206565b94506200021d565b94509492505050565b60008262000280576001905062000353565b8162000290576000905062000353565b8160018114620002a95760028114620002b457620002ea565b600191505062000353565b60ff841115620002c957620002c8620001d7565b5b8360020a915084821115620002e357620002e2620001d7565b5b5062000353565b5060208310610133831016604e8410600b8410161715620003245782820a9050838111156200031e576200031d620001d7565b5b62000353565b62000333848484600162000213565b925090508184048111156200034d576200034c620001d7565b5b81810290505b9392505050565b6000819050919050565b600062000371826200035a565b91506200037e836200035a565b9250620003ad7fffffffffffffffffffffffffffffffffffffffffffffffffffffffffffffffff84846200026e565b905092915050565b6000819050919050565b6000819050919050565b6000620003ea620003e4620003de84620003b5565b620003bf565b6200035a565b9050919050565b620003fc81620003c9565b82525050565b600073ffffffffffffffffffffffffffffffffffffffff82169050919050565b60006200042f8262000402565b9050919050565b620004418162000422565b82525050565b60006040820190506200045e6000830185620003f1565b6200046d602083018462000436565b9392505050565b612a4180620004846000396000f3fe6080604052600436106101405760003560e01c80638f32d59b116100b6578063cbdd69b51161006f578063cbdd69b514610457578063ce3078fd14610482578063d0febe4c146104ad578063da677fa2146104cb578063e8399cc614610508578063f2fde38b1461053157610140565b80638f32d59b1461031c5780638f8b5cde14610347578063a3f07d4b14610387578063bbe8f712146103b2578063bed1b6e1146103dd578063c8b62d641461041a57610140565b8063691ba73a11610108578063691ba73a1461023457806370a082311461024b578063715018a614610288578063735e9c501461029f5780637365870b146102c85780638da5cb5b146102f157610140565b8063095ea7b3146101455780631072cbea1461016157806323b872dd1461019e5780633758042e146101ba5780636352211e146101f7575b600080fd5b61015f600480360381019061015a9190611edc565b61055a565b005b34801561016d57600080fd5b5061018860048036038101906101839190611edc565b610678565b6040516101959190611f37565b60405180910390f35b6101b860048036038101906101b39190611f52565b610722565b005b3480156101c657600080fd5b506101e160048036038101906101dc9190611fa5565b610806565b6040516101ee9190611fe1565b60405180910390f35b34801561020357600080fd5b5061021e60048036038101906102199190611ffc565b6108ab565b60405161022b9190612038565b60405180910390f35b34801561024057600080fd5b506102496108e8565b005b34801561025757600080fd5b50610272600480360381019061026d9190611fa5565b610cf0565b60405161027f9190611fe1565b60405180910390f35b34801561029457600080fd5b5061029d610d39565b005b3480156102ab57600080fd5b506102c660048036038101906102c19190612199565b610e08565b005b3480156102d457600080fd5b506102ef60048036038101906102ea9190611ffc565b610e89565b005b3480156102fd57600080fd5b506103066110ae565b6040516103139190612038565b60405180910390f35b34801561032857600080fd5b506103316110d7565b60405161033e9190611f37565b60405180910390f35b34801561035357600080fd5b5061036e60048036038101906103699190611ffc565b61112e565b60405161037e9493929190612287565b60405180910390f35b34801561039357600080fd5b5061039c611212565b6040516103a99190611fe1565b60405180910390f35b3480156103be57600080fd5b506103c761121c565b6040516103d49190611fe1565b60405180910390f35b3480156103e957600080fd5b5061040460048036038101906103ff9190611ffc565b611226565b6040516104119190611fe1565b60405180910390f35b34801561042657600080fd5b50610441600480360381019061043c9190611fa5565b61143f565b60405161044e9190612391565b60405180910390f35b34801561046357600080fd5b5061046c611591565b6040516104799190611fe1565b60405180910390f35b34801561048e57600080fd5b50610497611597565b6040516104a49190611fe1565b60405180910390f35b6104b56115a1565b6040516104c29190611fe1565b60405180910390f35b3480156104d757600080fd5b506104f260048036038101906104ed9190611ffc565b61175e565b6040516104ff9190612038565b60405180910390f35b34801561051457600080fd5b5061052f600480360381019061052a9190611ffc565b611791565b005b34801561053d57600080fd5b5061055860048036038101906105539190611fa5565b6117ac565b005b806004600082815260200190815260200160002060009054906101000a900473ffffffffffffffffffffffffffffffffffffffff1673ffffffffffffffffffffffffffffffffffffffff163373ffffffffffffffffffffffffffffffffffffffff16146105c657600080fd5b826012600084815260200190815260200160002060006101000a81548173ffffffffffffffffffffffffffffffffffffffff021916908373ffffffffffffffffffffffffffffffffffffffff160217905550818373ffffffffffffffffffffffffffffffffffffffff163373ffffffffffffffffffffffffffffffffffffffff167f8c5be1e5ebec7d5bd14f71427d1e84f3dd0314c0f7b2291e5b200ac8c7c3b92560405160405180910390a4505050565b6000600f60009054906101000a900473ffffffffffffffffffffffffffffffffffffffff1673ffffffffffffffffffffffffffffffffffffffff1663a9059cbb84846040518363ffffffff1660e01b81526004016106d79291906123b3565b6020604051808303816000875af11580156106f6573d6000803e3d6000fd5b505050506040513d601f19601f8201168201806040525081019061071a9190612408565b905092915050565b3373ffffffffffffffffffffffffffffffffffffffff166004600083815260200190815260200160002060009054906101000a900473ffffffffffffffffffffffffffffffffffffffff1673ffffffffffffffffffffffffffffffffffffffff1614806107ed57503373ffffffffffffffffffffffffffffffffffffffff166012600083815260200190815260200160002060009054906101000a900473ffffffffffffffffffffffffffffffffffffffff1673ffffffffffffffffffffffffffffffffffffffff16145b6107f657600080fd5b6108018383836117c9565b505050565b6000600f60009054906101000a900473ffffffffffffffffffffffffffffffffffffffff1673ffffffffffffffffffffffffffffffffffffffff166370a08231836040518263ffffffff1660e01b81526004016108639190612038565b602060405180830381865afa158015610880573d6000803e3d6000fd5b505050506040513d601f19601f820116820180604052508101906108a4919061244a565b9050919050565b60006004600083815260200190815260200160002060009054906101000a900473ffffffffffffffffffffffffffffffffffffffff169050919050565b6108f06110d7565b6108f957600080fd5b601060009054906101000a900473ffffffffffffffffffffffffffffffffffffffff1673ffffffffffffffffffffffffffffffffffffffff163373ffffffffffffffffffffffffffffffffffffffff161461095357600080fd5b600e54600f60009054906101000a900473ffffffffffffffffffffffffffffffffffffffff1673ffffffffffffffffffffffffffffffffffffffff166370a08231336040518263ffffffff1660e01b81526004016109b19190612038565b602060405180830381865afa1580156109ce573d6000803e3d6000fd5b505050506040513d601f19601f820116820180604052508101906109f2919061244a565b10156109fd57600080fd5b600754600c5414610a0d57600080fd5b60006008610a1b60046119a7565b60048110610a2c57610a2b612477565b5b0154905060038181548110610a4457610a43612477565b5b9060005260206000209060030201600201600081819054906101000a900461ffff1680929190610a73906124d5565b91906101000a81548161ffff021916908361ffff1602179055505060005b6004811015610b2057600360088260048110610ab057610aaf612477565b5b015481548110610ac357610ac2612477565b5b9060005260206000209060030201600201600281819054906101000a900461ffff1680929190610af2906124d5565b91906101000a81548161ffff021916908361ffff160217905550508080610b18906124ff565b915050610a91565b5060038181548110610b3557610b34612477565b5b9060005260206000209060030201600201600281819054906101000a900461ffff1680929190610b6490612547565b91906101000a81548161ffff021916908361ffff1602179055505060006004600083815260200190815260200160002060009054906101000a900473ffffffffffffffffffffffffffffffffffffffff169050600f60009054906101000a900473ffffffffffffffffffffffffffffffffffffffff1673ffffffffffffffffffffffffffffffffffffffff1663a9059cbb82600e546040518363ffffffff1660e01b8152600401610c169291906123b3565b6020604051808303816000875af1158015610c35573d6000803e3d6000fd5b505050506040513d601f19601f82011682018060405250810190610c599190612408565b507ff9551cded3b623d6e227f21e2c17bc856565662bcfc6c6bfbe9020c91659850b6004600654610c8a9190612570565b600460086004600087815260200190815260200160002060009054906101000a900473ffffffffffffffffffffffffffffffffffffffff1686604051610cd4959493929190612699565b60405180910390a16000600c819055506000600e819055505050565b6000600560008373ffffffffffffffffffffffffffffffffffffffff1673ffffffffffffffffffffffffffffffffffffffff168152602001908152602001600020549050919050565b610d416110d7565b610d4a57600080fd5b600073ffffffffffffffffffffffffffffffffffffffff1660008054906101000a900473ffffffffffffffffffffffffffffffffffffffff1673ffffffffffffffffffffffffffffffffffffffff167f8be0079c531659141344cd1fd0a4f28419497f9722a3daafe3b4186f6b6457e060405160405180910390a360008060006101000a81548173ffffffffffffffffffffffffffffffffffffffff021916908373ffffffffffffffffffffffffffffffffffffffff160217905550565b6000600560003373ffffffffffffffffffffffffffffffffffffffff1673ffffffffffffffffffffffffffffffffffffffff1681526020019081526020016000205414610e5457600080fd5b6000610e5f82611a00565b9050606481610e6e919061271c565b81610e79919061274d565b9050610e858282611a45565b5050565b806004600082815260200190815260200160002060009054906101000a900473ffffffffffffffffffffffffffffffffffffffff1673ffffffffffffffffffffffffffffffffffffffff163373ffffffffffffffffffffffffffffffffffffffff1614610ef557600080fd5b600654600f60009054906101000a900473ffffffffffffffffffffffffffffffffffffffff1673ffffffffffffffffffffffffffffffffffffffff166370a08231336040518263ffffffff1660e01b8152600401610f539190612038565b602060405180830381865afa158015610f70573d6000803e3d6000fd5b505050506040513d601f19601f82011682018060405250810190610f94919061244a565b1015610f9f57600080fd5b600754600c5410610faf57600080fd5b816008600c5460048110610fc657610fc5612477565b5b0181905550600c6000815480929190610fde906124ff565b9190505550600f60009054906101000a900473ffffffffffffffffffffffffffffffffffffffff1673ffffffffffffffffffffffffffffffffffffffff166323b872dd33601060009054906101000a900473ffffffffffffffffffffffffffffffffffffffff166006546040518463ffffffff1660e01b815260040161106693929190612781565b6020604051808303816000875af1158015611085573d6000803e3d6000fd5b505050506040513d601f19601f820116820180604052508101906110a99190612408565b505050565b60008060009054906101000a900473ffffffffffffffffffffffffffffffffffffffff16905090565b60008060009054906101000a900473ffffffffffffffffffffffffffffffffffffffff1673ffffffffffffffffffffffffffffffffffffffff163373ffffffffffffffffffffffffffffffffffffffff1614905090565b6003818154811061113e57600080fd5b9060005260206000209060030201600091509050806000018054611161906127e7565b80601f016020809104026020016040519081016040528092919081815260200182805461118d906127e7565b80156111da5780601f106111af576101008083540402835291602001916111da565b820191906000526020600020905b8154815290600101906020018083116111bd57829003601f168201915b5050505050908060010154908060020160009054906101000a900461ffff16908060020160029054906101000a900461ffff16905084565b6000600c54905090565b6000600e54905090565b60006112306110d7565b61123957600080fd5b600754600c541461124957600080fd5b60006008836004811061125f5761125e612477565b5b015490506003818154811061127757611276612477565b5b9060005260206000209060030201600201600081819054906101000a900461ffff16809291906112a6906124d5565b91906101000a81548161ffff021916908361ffff1602179055505060005b6004811015611353576003600882600481106112e3576112e2612477565b5b0154815481106112f6576112f5612477565b5b9060005260206000209060030201600201600281819054906101000a900461ffff1680929190611325906124d5565b91906101000a81548161ffff021916908361ffff16021790555050808061134b906124ff565b9150506112c4565b506003818154811061136857611367612477565b5b9060005260206000209060030201600201600281819054906101000a900461ffff168092919061139790612547565b91906101000a81548161ffff021916908361ffff160217905550506004600082815260200190815260200160002060009054906101000a900473ffffffffffffffffffffffffffffffffffffffff1673ffffffffffffffffffffffffffffffffffffffff166108fc600e549081150290604051600060405180830381858888f1935050505015801561142d573d6000803e3d6000fd5b506000600c8190555080915050919050565b60606000600560008473ffffffffffffffffffffffffffffffffffffffff1673ffffffffffffffffffffffffffffffffffffffff1681526020019081526020016000205467ffffffffffffffff81111561149c5761149b61206e565b5b6040519080825280602002602001820160405280156114ca5781602001602082028036833780820191505090505b5090506000805b600380549050811015611586578473ffffffffffffffffffffffffffffffffffffffff166004600083815260200190815260200160002060009054906101000a900473ffffffffffffffffffffffffffffffffffffffff1673ffffffffffffffffffffffffffffffffffffffff1603611573578083838151811061155857611557612477565b5b602002602001018181525050818061156f906124ff565b9250505b808061157e906124ff565b9150506114d1565b508192505050919050565b60115481565b6000600654905090565b600080601154346115b29190612570565b90506000600f60009054906101000a900473ffffffffffffffffffffffffffffffffffffffff1673ffffffffffffffffffffffffffffffffffffffff166370a08231601060009054906101000a900473ffffffffffffffffffffffffffffffffffffffff166040518263ffffffff1660e01b81526004016116339190612038565b602060405180830381865afa158015611650573d6000803e3d6000fd5b505050506040513d601f19601f82011682018060405250810190611674919061244a565b90506000600f60009054906101000a900473ffffffffffffffffffffffffffffffffffffffff1673ffffffffffffffffffffffffffffffffffffffff1663a9059cbb33856040518363ffffffff1660e01b81526004016116d59291906123b3565b6020604051808303816000875af11580156116f4573d6000803e3d6000fd5b505050506040513d601f19601f820116820180604052508101906117189190612408565b90507f0a37b72bb67eee30e09084cf386f8a17817c57f620c3ab95fb25d6a20356ec7733348560405161174d93929190612818565b60405180910390a182935050505090565b60046020528060005260406000206000915054906101000a900473ffffffffffffffffffffffffffffffffffffffff1681565b6117996110d7565b6117a257600080fd5b8060068190555050565b6117b46110d7565b6117bd57600080fd5b6117c681611c48565b50565b61181c6001600560008573ffffffffffffffffffffffffffffffffffffffff1673ffffffffffffffffffffffffffffffffffffffff16815260200190815260200160002054611d3e90919063ffffffff16565b600560008473ffffffffffffffffffffffffffffffffffffffff1673ffffffffffffffffffffffffffffffffffffffff168152602001908152602001600020819055506118b26001600560003373ffffffffffffffffffffffffffffffffffffffff1673ffffffffffffffffffffffffffffffffffffffff16815260200190815260200160002054611d6a90919063ffffffff16565b600560003373ffffffffffffffffffffffffffffffffffffffff1673ffffffffffffffffffffffffffffffffffffffff16815260200190815260200160002081905550816004600083815260200190815260200160002060006101000a81548173ffffffffffffffffffffffffffffffffffffffff021916908373ffffffffffffffffffffffffffffffffffffffff160217905550808273ffffffffffffffffffffffffffffffffffffffff168473ffffffffffffffffffffffffffffffffffffffff167fddf252ad1be2c89b69c2b068fc378daa952ba7f163c4a11628f55a4df523b3ef60405160405180910390a4505050565b60006001600d546119b8919061284f565b600d81905550814233600d546040516020016119d69392919061290e565b6040516020818303038152906040528051906020012060001c6119f9919061271c565b9050919050565b60008082604051602001611a149190612987565b6040516020818303038152906040528051906020012060001c905060025481611a3d919061271c565b915050919050565b60036040518060800160405280848152602001838152602001600061ffff168152602001600061ffff1681525090806001815401808255809150506001900390600052602060002090600302016000909190919091506000820151816000019080519060200190611ab7929190611d91565b506020820151816001015560408201518160020160006101000a81548161ffff021916908361ffff16021790555060608201518160020160026101000a81548161ffff021916908361ffff160217905550505060006001600380549050611b1e919061274d565b9050336004600083815260200190815260200160002060006101000a81548173ffffffffffffffffffffffffffffffffffffffff021916908373ffffffffffffffffffffffffffffffffffffffff160217905550611bc56001600560003373ffffffffffffffffffffffffffffffffffffffff1673ffffffffffffffffffffffffffffffffffffffff16815260200190815260200160002054611d3e90919063ffffffff16565b600560003373ffffffffffffffffffffffffffffffffffffffff1673ffffffffffffffffffffffffffffffffffffffff168152602001908152602001600020819055507f7512d04afc710279875c44ad61b2e78695e3824abb3178ec09c9199e13314c5d818484604051611c3b9392919061299e565b60405180910390a1505050565b600073ffffffffffffffffffffffffffffffffffffffff168173ffffffffffffffffffffffffffffffffffffffff1603611c8157600080fd5b8073ffffffffffffffffffffffffffffffffffffffff1660008054906101000a900473ffffffffffffffffffffffffffffffffffffffff1673ffffffffffffffffffffffffffffffffffffffff167f8be0079c531659141344cd1fd0a4f28419497f9722a3daafe3b4186f6b6457e060405160405180910390a3806000806101000a81548173ffffffffffffffffffffffffffffffffffffffff021916908373ffffffffffffffffffffffffffffffffffffffff16021790555050565b6000808284611d4d919061284f565b905083811015611d6057611d5f6129dc565b5b8091505092915050565b600082821115611d7d57611d7c6129dc565b5b8183611d89919061274d565b905092915050565b828054611d9d906127e7565b90600052602060002090601f016020900481019282611dbf5760008555611e06565b82601f10611dd857805160ff1916838001178555611e06565b82800160010185558215611e06579182015b82811115611e05578251825591602001919060010190611dea565b5b509050611e139190611e17565b5090565b5b80821115611e30576000816000905550600101611e18565b5090565b6000604051905090565b600080fd5b600080fd5b600073ffffffffffffffffffffffffffffffffffffffff82169050919050565b6000611e7382611e48565b9050919050565b611e8381611e68565b8114611e8e57600080fd5b50565b600081359050611ea081611e7a565b92915050565b6000819050919050565b611eb981611ea6565b8114611ec457600080fd5b50565b600081359050611ed681611eb0565b92915050565b60008060408385031215611ef357611ef2611e3e565b5b6000611f0185828601611e91565b9250506020611f1285828601611ec7565b9150509250929050565b60008115159050919050565b611f3181611f1c565b82525050565b6000602082019050611f4c6000830184611f28565b92915050565b600080600060608486031215611f6b57611f6a611e3e565b5b6000611f7986828701611e91565b9350506020611f8a86828701611e91565b9250506040611f9b86828701611ec7565b9150509250925092565b600060208284031215611fbb57611fba611e3e565b5b6000611fc984828501611e91565b91505092915050565b611fdb81611ea6565b82525050565b6000602082019050611ff66000830184611fd2565b92915050565b60006020828403121561201257612011611e3e565b5b600061202084828501611ec7565b91505092915050565b61203281611e68565b82525050565b600060208201905061204d6000830184612029565b92915050565b600080fd5b600080fd5b6000601f19601f8301169050919050565b7f4e487b7100000000000000000000000000000000000000000000000000000000600052604160045260246000fd5b6120a68261205d565b810181811067ffffffffffffffff821117156120c5576120c461206e565b5b80604052505050565b60006120d8611e34565b90506120e4828261209d565b919050565b600067ffffffffffffffff8211156121045761210361206e565b5b61210d8261205d565b9050602081019050919050565b82818337600083830152505050565b600061213c612137846120e9565b6120ce565b90508281526020810184848401111561215857612157612058565b5b61216384828561211a565b509392505050565b600082601f8301126121805761217f612053565b5b8135612190848260208601612129565b91505092915050565b6000602082840312156121af576121ae611e3e565b5b600082013567ffffffffffffffff8111156121cd576121cc611e43565b5b6121d98482850161216b565b91505092915050565b600081519050919050565b600082825260208201905092915050565b60005b8381101561221c578082015181840152602081019050612201565b8381111561222b576000848401525b50505050565b600061223c826121e2565b61224681856121ed565b93506122568185602086016121fe565b61225f8161205d565b840191505092915050565b600061ffff82169050919050565b6122818161226a565b82525050565b600060808201905081810360008301526122a18187612231565b90506122b06020830186611fd2565b6122bd6040830185612278565b6122ca6060830184612278565b95945050505050565b600081519050919050565b600082825260208201905092915050565b6000819050602082019050919050565b61230881611ea6565b82525050565b600061231a83836122ff565b60208301905092915050565b6000602082019050919050565b600061233e826122d3565b61234881856122de565b9350612353836122ef565b8060005b8381101561238457815161236b888261230e565b975061237683612326565b925050600181019050612357565b5085935050505092915050565b600060208201905081810360008301526123ab8184612333565b905092915050565b60006040820190506123c86000830185612029565b6123d56020830184611fd2565b9392505050565b6123e581611f1c565b81146123f057600080fd5b50565b600081519050612402816123dc565b92915050565b60006020828403121561241e5761241d611e3e565b5b600061242c848285016123f3565b91505092915050565b60008151905061244481611eb0565b92915050565b6000602082840312156124605761245f611e3e565b5b600061246e84828501612435565b91505092915050565b7f4e487b7100000000000000000000000000000000000000000000000000000000600052603260045260246000fd5b7f4e487b7100000000000000000000000000000000000000000000000000000000600052601160045260246000fd5b60006124e08261226a565b915061ffff82036124f4576124f36124a6565b5b600182019050919050565b600061250a82611ea6565b91507fffffffffffffffffffffffffffffffffffffffffffffffffffffffffffffffff820361253c5761253b6124a6565b5b600182019050919050565b60006125528261226a565b915060008203612565576125646124a6565b5b600182039050919050565b600061257b82611ea6565b915061258683611ea6565b9250817fffffffffffffffffffffffffffffffffffffffffffffffffffffffffffffffff04831182151516156125bf576125be6124a6565b5b828202905092915050565b600060049050919050565b600081905092915050565b6000819050919050565b60008160001c9050919050565b6000819050919050565b600061261461260f836125ea565b6125f7565b9050919050565b60006126278254612601565b9050919050565b6000600182019050919050565b612644816125ca565b61264e81846125d5565b9250612659826125e0565b8060005b838110156126915761266e8261261b565b612678878261230e565b96506126838361262e565b92505060018101905061265d565b505050505050565b6000610100820190506126af6000830188611fd2565b6126bc6020830187611fd2565b6126c9604083018661263b565b6126d660c0830185612029565b6126e360e0830184611fd2565b9695505050505050565b7f4e487b7100000000000000000000000000000000000000000000000000000000600052601260045260246000fd5b600061272782611ea6565b915061273283611ea6565b925082612742576127416126ed565b5b828206905092915050565b600061275882611ea6565b915061276383611ea6565b925082821015612776576127756124a6565b5b828203905092915050565b60006060820190506127966000830186612029565b6127a36020830185612029565b6127b06040830184611fd2565b949350505050565b7f4e487b7100000000000000000000000000000000000000000000000000000000600052602260045260246000fd5b600060028204905060018216806127ff57607f821691505b602082108103612812576128116127b8565b5b50919050565b600060608201905061282d6000830186612029565b61283a6020830185611fd2565b6128476040830184611fd2565b949350505050565b600061285a82611ea6565b915061286583611ea6565b9250827fffffffffffffffffffffffffffffffffffffffffffffffffffffffffffffffff0382111561289a576128996124a6565b5b828201905092915050565b6000819050919050565b6128c06128bb82611ea6565b6128a5565b82525050565b60008160601b9050919050565b60006128de826128c6565b9050919050565b60006128f0826128d3565b9050919050565b61290861290382611e68565b6128e5565b82525050565b600061291a82866128af565b60208201915061292a82856128f7565b60148201915061293a82846128af565b602082019150819050949350505050565b600081905092915050565b6000612961826121e2565b61296b818561294b565b935061297b8185602086016121fe565b80840191505092915050565b60006129938284612956565b915081905092915050565b60006060820190506129b36000830186611fd2565b81810360208301526129c58185612231565b90506129d46040830184611fd2565b949350505050565b7f4e487b7100000000000000000000000000000000000000000000000000000000600052600160045260246000fdfea2646970667358221220e9fcfacb8161a91387e0d382c9eb69d055d8726e7ac167a19962675b2b5803cb64736f6c634300080e003360806040523480156200001157600080fd5b5060405162000fce38038062000fce833981810160405281019062000037919062000172565b8160008190555080600160006101000a81548173ffffffffffffffffffffffffffffffffffffffff021916908373ffffffffffffffffffffffffffffffffffffffff160217905550600054600260008373ffffffffffffffffffffffffffffffffffffffff1673ffffffffffffffffffffffffffffffffffffffff168152602001908152602001600020819055505050620001b9565b600080fd5b6000819050919050565b620000e781620000d2565b8114620000f357600080fd5b50565b6000815190506200010781620000dc565b92915050565b600073ffffffffffffffffffffffffffffffffffffffff82169050919050565b60006200013a826200010d565b9050919050565b6200014c816200012d565b81146200015857600080fd5b50565b6000815190506200016c8162000141565b92915050565b600080604083850312156200018c576200018b620000cd565b5b60006200019c85828601620000f6565b9250506020620001af858286016200015b565b9150509250929050565b610e0580620001c96000396000f3fe608060405234801561001057600080fd5b50600436106100935760003560e01c8063313ce56711610066578063313ce5671461013457806370a082311461015257806395d89b4114610182578063a9059cbb146101a0578063dd62ed3e146101d057610093565b806306fdde0314610098578063095ea7b3146100b657806318160ddd146100e657806323b872dd14610104575b600080fd5b6100a0610200565b6040516100ad9190610a95565b60405180910390f35b6100d060048036038101906100cb9190610b50565b610239565b6040516100dd9190610bab565b60405180910390f35b6100ee61032b565b6040516100fb9190610bd5565b60405180910390f35b61011e60048036038101906101199190610bf0565b610334565b60405161012b9190610bab565b60405180910390f35b61013c6106b4565b6040516101499190610c5f565b60405180910390f35b61016c60048036038101906101679190610c7a565b6106b9565b6040516101799190610bd5565b60405180910390f35b61018a610702565b6040516101979190610a95565b60405180910390f35b6101ba60048036038101906101b59190610b50565b61073b565b6040516101c79190610bab565b60405180910390f35b6101ea60048036038101906101e59190610ca7565b610922565b6040516101f79190610bd5565b60405180910390f35b6040518060400160405280600981526020017f486f727365436f696e000000000000000000000000000000000000000000000081525081565b600081600360003373ffffffffffffffffffffffffffffffffffffffff1673ffffffffffffffffffffffffffffffffffffffff16815260200190815260200160002060008573ffffffffffffffffffffffffffffffffffffffff1673ffffffffffffffffffffffffffffffffffffffff168152602001908152602001600020819055508273ffffffffffffffffffffffffffffffffffffffff163373ffffffffffffffffffffffffffffffffffffffff167f8c5be1e5ebec7d5bd14f71427d1e84f3dd0314c0f7b2291e5b200ac8c7c3b925846040516103199190610bd5565b60405180910390a36001905092915050565b60008054905090565b6000600260008573ffffffffffffffffffffffffffffffffffffffff1673ffffffffffffffffffffffffffffffffffffffff1681526020019081526020016000205482111561038257600080fd5b600360008573ffffffffffffffffffffffffffffffffffffffff1673ffffffffffffffffffffffffffffffffffffffff16815260200190815260200160002060003373ffffffffffffffffffffffffffffffffffffffff1673ffffffffffffffffffffffffffffffffffffffff1681526020019081526020016000205482111561040b57600080fd5b61045d82600260008773ffffffffffffffffffffffffffffffffffffffff1673ffffffffffffffffffffffffffffffffffffffff168152602001908152602001600020546109a990919063ffffffff16565b600260008673ffffffffffffffffffffffffffffffffffffffff1673ffffffffffffffffffffffffffffffffffffffff1681526020019081526020016000208190555061052f82600360008773ffffffffffffffffffffffffffffffffffffffff1673ffffffffffffffffffffffffffffffffffffffff16815260200190815260200160002060003373ffffffffffffffffffffffffffffffffffffffff1673ffffffffffffffffffffffffffffffffffffffff168152602001908152602001600020546109a990919063ffffffff16565b600360008673ffffffffffffffffffffffffffffffffffffffff1673ffffffffffffffffffffffffffffffffffffffff16815260200190815260200160002060003373ffffffffffffffffffffffffffffffffffffffff1673ffffffffffffffffffffffffffffffffffffffff1681526020019081526020016000208190555061060182600260008673ffffffffffffffffffffffffffffffffffffffff1673ffffffffffffffffffffffffffffffffffffffff168152602001908152602001600020546109d090919063ffffffff16565b600260008573ffffffffffffffffffffffffffffffffffffffff1673ffffffffffffffffffffffffffffffffffffffff168152602001908152602001600020819055508273ffffffffffffffffffffffffffffffffffffffff168473ffffffffffffffffffffffffffffffffffffffff167fddf252ad1be2c89b69c2b068fc378daa952ba7f163c4a11628f55a4df523b3ef846040516106a19190610bd5565b60405180910390a3600190509392505050565b600281565b6000600260008373ffffffffffffffffffffffffffffffffffffffff1673ffffffffffffffffffffffffffffffffffffffff168152602001908152602001600020549050919050565b6040518060400160405280600381526020017f485253000000000000000000000000000000000000000000000000000000000081525081565b6000600260003373ffffffffffffffffffffffffffffffffffffffff1673ffffffffffffffffffffffffffffffffffffffff1681526020019081526020016000205482111561078957600080fd5b6107db82600260003373ffffffffffffffffffffffffffffffffffffffff1673ffffffffffffffffffffffffffffffffffffffff168152602001908152602001600020546109a990919063ffffffff16565b600260003373ffffffffffffffffffffffffffffffffffffffff1673ffffffffffffffffffffffffffffffffffffffff1681526020019081526020016000208190555061087082600260008673ffffffffffffffffffffffffffffffffffffffff1673ffffffffffffffffffffffffffffffffffffffff168152602001908152602001600020546109d090919063ffffffff16565b600260008573ffffffffffffffffffffffffffffffffffffffff1673ffffffffffffffffffffffffffffffffffffffff168152602001908152602001600020819055508273ffffffffffffffffffffffffffffffffffffffff163373ffffffffffffffffffffffffffffffffffffffff167fddf252ad1be2c89b69c2b068fc378daa952ba7f163c4a11628f55a4df523b3ef846040516109109190610bd5565b60405180910390a36001905092915050565b6000600360008473ffffffffffffffffffffffffffffffffffffffff1673ffffffffffffffffffffffffffffffffffffffff16815260200190815260200160002060008373ffffffffffffffffffffffffffffffffffffffff1673ffffffffffffffffffffffffffffffffffffffff16815260200190815260200160002054905092915050565b6000828211156109bc576109bb610ce7565b5b81836109c89190610d45565b905092915050565b60008082846109df9190610d79565b9050838110156109f2576109f1610ce7565b5b8091505092915050565b600081519050919050565b600082825260208201905092915050565b60005b83811015610a36578082015181840152602081019050610a1b565b83811115610a45576000848401525b50505050565b6000601f19601f8301169050919050565b6000610a67826109fc565b610a718185610a07565b9350610a81818560208601610a18565b610a8a81610a4b565b840191505092915050565b60006020820190508181036000830152610aaf8184610a5c565b905092915050565b600080fd5b600073ffffffffffffffffffffffffffffffffffffffff82169050919050565b6000610ae782610abc565b9050919050565b610af781610adc565b8114610b0257600080fd5b50565b600081359050610b1481610aee565b92915050565b6000819050919050565b610b2d81610b1a565b8114610b3857600080fd5b50565b600081359050610b4a81610b24565b92915050565b60008060408385031215610b6757610b66610ab7565b5b6000610b7585828601610b05565b9250506020610b8685828601610b3b565b9150509250929050565b60008115159050919050565b610ba581610b90565b82525050565b6000602082019050610bc06000830184610b9c565b92915050565b610bcf81610b1a565b82525050565b6000602082019050610bea6000830184610bc6565b92915050565b600080600060608486031215610c0957610c08610ab7565b5b6000610c1786828701610b05565b9350506020610c2886828701610b05565b9250506040610c3986828701610b3b565b9150509250925092565b600060ff82169050919050565b610c5981610c43565b82525050565b6000602082019050610c746000830184610c50565b92915050565b600060208284031215610c9057610c8f610ab7565b5b6000610c9e84828501610b05565b91505092915050565b60008060408385031215610cbe57610cbd610ab7565b5b6000610ccc85828601610b05565b9250506020610cdd85828601610b05565b9150509250929050565b7f4e487b7100000000000000000000000000000000000000000000000000000000600052600160045260246000fd5b7f4e487b7100000000000000000000000000000000000000000000000000000000600052601160045260246000fd5b6000610d5082610b1a565b9150610d5b83610b1a565b925082821015610d6e57610d6d610d16565b5b828203905092915050565b6000610d8482610b1a565b9150610d8f83610b1a565b9250827fffffffffffffffffffffffffffffffffffffffffffffffffffffffffffffffff03821115610dc457610dc3610d16565b5b82820190509291505056fea26469706673582212209a6b7b288f426dde6ce2b7609b77436528a93b9d742531017c7a5a0f13edcc1464736f6c634300080e0033",
  "immutableReferences": {},
  "source": "// SPDX-License-Identifier: GPL-3.0\r\npragma solidity >=0.7.0 <0.9.0;\r\n\r\nimport \"./horseracing.sol\";\r\nimport \"./erc721.sol\";\r\nimport \"./safemath.sol\";\r\n\r\ncontract HorseOwnership is HorseRacing, ERC721 {\r\n    using SafeMath for uint256;\r\n\r\n    mapping(uint256 => address) horseApprovals;\r\n\r\n    function balanceOf(address _owner) external view override returns (uint256) {\r\n        return ownerHorseCount[_owner];\r\n    }\r\n\r\n    function ownerOf(uint256 _tokenId) external view override returns (address) {\r\n        return horseToOwner[_tokenId];\r\n    }\r\n\r\n    function _transfer(\r\n        address _from,\r\n        address _to,\r\n        uint256 _tokenId\r\n    ) private {\r\n        ownerHorseCount[_to] = ownerHorseCount[_to].add(1);\r\n        ownerHorseCount[msg.sender] = ownerHorseCount[msg.sender].sub(1);\r\n        horseToOwner[_tokenId] = _to;\r\n        emit Transfer(_from, _to, _tokenId);\r\n    }\r\n\r\n    function transferFrom(\r\n        address _from,\r\n        address _to,\r\n        uint256 _tokenId\r\n    ) external payable override {\r\n        require(\r\n            horseToOwner[_tokenId] == msg.sender ||\r\n                horseApprovals[_tokenId] == msg.sender\r\n        );\r\n        _transfer(_from, _to, _tokenId);\r\n    }\r\n\r\n    function approve(address _approved, uint256 _tokenId)\r\n        external\r\n        payable\r\n        override\r\n        onlyOwnerOf(_tokenId)\r\n    {\r\n        horseApprovals[_tokenId] = _approved;\r\n        emit Approval(msg.sender, _approved, _tokenId);\r\n    }\r\n}\r\n",
  "sourcePath": "C:\\Users\\Dante\\Documents\\GitHub\\TDL-SinoKa-La-Ferrigneta\\contracts\\racing\\horseownership.sol",
  "compiler": {
    "name": "solc",
    "version": "0.8.14+commit.80d49f37.Emscripten.clang"
  },
  "schemaVersion": "3.4.4",
  "updatedAt": "2022-06-29T15:36:45.111Z",
  "devdoc": {
    "kind": "dev",
    "methods": {
      "isOwner()": {
        "returns": {
          "_0": "true if `msg.sender` is the owner of the contract."
        }
      },
      "owner()": {
        "returns": {
          "_0": "the address of the owner."
        }
      },
      "renounceOwnership()": {
        "details": "Allows the current owner to relinquish control of the contract."
      },
      "transferOwnership(address)": {
        "details": "Allows the current owner to transfer control of the contract to a newOwner.",
        "params": {
          "newOwner": "The address to transfer ownership to."
        }
      }
    },
    "version": 1
  },
  "userdoc": {
    "kind": "user",
    "methods": {
      "renounceOwnership()": {
        "notice": "Renouncing to ownership will leave the contract without an owner. It will not be possible to call the functions with the `onlyOwner` modifier anymore."
      }
    },
    "version": 1
  }
}