{
  "contractName": "HorseRace",
  "abi": [
    {
      "inputs": [
        {
          "internalType": "uint256",
          "name": "_betAmount",
          "type": "uint256"
        }
      ],
      "stateMutability": "nonpayable",
      "type": "constructor"
    },
    {
      "anonymous": false,
      "inputs": [
        {
          "indexed": false,
          "internalType": "uint256",
          "name": "horseId",
          "type": "uint256"
        },
        {
          "indexed": false,
          "internalType": "string",
          "name": "name",
          "type": "string"
        },
        {
          "indexed": false,
          "internalType": "uint256",
          "name": "dna",
          "type": "uint256"
        }
      ],
      "name": "NewHorse",
      "type": "event"
    },
    {
      "anonymous": false,
      "inputs": [
        {
          "indexed": true,
          "internalType": "address",
          "name": "previousOwner",
          "type": "address"
        },
        {
          "indexed": true,
          "internalType": "address",
          "name": "newOwner",
          "type": "address"
        }
      ],
      "name": "OwnershipTransferred",
      "type": "event"
    },
    {
      "inputs": [
        {
          "internalType": "string",
          "name": "_name",
          "type": "string"
        }
      ],
      "name": "createRandomHorse",
      "outputs": [],
      "stateMutability": "nonpayable",
      "type": "function"
    },
    {
      "inputs": [
        {
          "internalType": "address",
          "name": "_owner",
          "type": "address"
        }
      ],
      "name": "getHorsesByOwner",
      "outputs": [
        {
          "internalType": "uint256[]",
          "name": "",
          "type": "uint256[]"
        }
      ],
      "stateMutability": "view",
      "type": "function"
    },
    {
      "inputs": [
        {
          "internalType": "uint256",
          "name": "",
          "type": "uint256"
        }
      ],
      "name": "horseToOwner",
      "outputs": [
        {
          "internalType": "address",
          "name": "",
          "type": "address"
        }
      ],
      "stateMutability": "view",
      "type": "function"
    },
    {
      "inputs": [
        {
          "internalType": "uint256",
          "name": "",
          "type": "uint256"
        }
      ],
      "name": "horses",
      "outputs": [
        {
          "internalType": "string",
          "name": "name",
          "type": "string"
        },
        {
          "internalType": "uint256",
          "name": "dna",
          "type": "uint256"
        },
        {
          "internalType": "uint16",
          "name": "winCount",
          "type": "uint16"
        },
        {
          "internalType": "uint16",
          "name": "lossCount",
          "type": "uint16"
        }
      ],
      "stateMutability": "view",
      "type": "function"
    },
    {
      "inputs": [],
      "name": "isOwner",
      "outputs": [
        {
          "internalType": "bool",
          "name": "",
          "type": "bool"
        }
      ],
      "stateMutability": "view",
      "type": "function"
    },
    {
      "inputs": [],
      "name": "owner",
      "outputs": [
        {
          "internalType": "address",
          "name": "",
          "type": "address"
        }
      ],
      "stateMutability": "view",
      "type": "function"
    },
    {
      "inputs": [],
      "name": "renounceOwnership",
      "outputs": [],
      "stateMutability": "nonpayable",
      "type": "function"
    },
    {
      "inputs": [
        {
          "internalType": "address",
          "name": "newOwner",
          "type": "address"
        }
      ],
      "name": "transferOwnership",
      "outputs": [],
      "stateMutability": "nonpayable",
      "type": "function"
    },
    {
      "inputs": [
        {
          "internalType": "uint256",
          "name": "_bet",
          "type": "uint256"
        }
      ],
      "name": "setBet",
      "outputs": [],
      "stateMutability": "nonpayable",
      "type": "function"
    },
    {
      "inputs": [
        {
          "internalType": "uint256",
          "name": "_horseId",
          "type": "uint256"
        }
      ],
      "name": "bet",
      "outputs": [],
      "stateMutability": "payable",
      "type": "function"
    },
    {
      "inputs": [
        {
          "internalType": "uint256",
          "name": "_horseId",
          "type": "uint256"
        }
      ],
      "name": "mock_bet",
      "outputs": [],
      "stateMutability": "payable",
      "type": "function"
    }
  ],
  "bytecode": "0x60806040526010600155600154600a6200001a9190620002b0565b6002556000600b556000600c553480156200003457600080fd5b5060405162001db238038062001db283398181016040528101906200005a919062000337565b336000806101000a81548173ffffffffffffffffffffffffffffffffffffffff021916908373ffffffffffffffffffffffffffffffffffffffff16021790555060008054906101000a900473ffffffffffffffffffffffffffffffffffffffff1673ffffffffffffffffffffffffffffffffffffffff16600073ffffffffffffffffffffffffffffffffffffffff167f8be0079c531659141344cd1fd0a4f28419497f9722a3daafe3b4186f6b6457e060405160405180910390a3806006819055505062000369565b7f4e487b7100000000000000000000000000000000000000000000000000000000600052601160045260246000fd5b60008160011c9050919050565b6000808291508390505b6001851115620001b15780860481111562000189576200018862000123565b5b6001851615620001995780820291505b8081029050620001a98562000152565b945062000169565b94509492505050565b600082620001cc57600190506200029f565b81620001dc57600090506200029f565b8160018114620001f55760028114620002005762000236565b60019150506200029f565b60ff84111562000215576200021462000123565b5b8360020a9150848211156200022f576200022e62000123565b5b506200029f565b5060208310610133831016604e8410600b8410161715620002705782820a9050838111156200026a576200026962000123565b5b6200029f565b6200027f84848460016200015f565b9250905081840481111562000299576200029862000123565b5b81810290505b9392505050565b6000819050919050565b6000620002bd82620002a6565b9150620002ca83620002a6565b9250620002f97fffffffffffffffffffffffffffffffffffffffffffffffffffffffffffffffff8484620001ba565b905092915050565b600080fd5b6200031181620002a6565b81146200031d57600080fd5b50565b600081519050620003318162000306565b92915050565b60006020828403121562000350576200034f62000301565b5b6000620003608482850162000320565b91505092915050565b611a3980620003796000396000f3fe60806040526004361061009c5760003560e01c80638f8b5cde116100645780638f8b5cde14610153578063c8b62d6414610193578063da677fa2146101d0578063dd021d3f1461020d578063e8399cc614610229578063f2fde38b146102525761009c565b8063715018a6146100a1578063735e9c50146100b85780637365870b146100e15780638da5cb5b146100fd5780638f32d59b14610128575b600080fd5b3480156100ad57600080fd5b506100b661027b565b005b3480156100c457600080fd5b506100df60048036038101906100da9190611289565b61034a565b005b6100fb60048036038101906100f69190611308565b6103cb565b005b34801561010957600080fd5b506101126104b7565b60405161011f9190611376565b60405180910390f35b34801561013457600080fd5b5061013d6104e0565b60405161014a91906113ac565b60405180910390f35b34801561015f57600080fd5b5061017a60048036038101906101759190611308565b610537565b60405161018a949392919061147b565b60405180910390f35b34801561019f57600080fd5b506101ba60048036038101906101b591906114f3565b61061b565b6040516101c791906115de565b60405180910390f35b3480156101dc57600080fd5b506101f760048036038101906101f29190611308565b61076d565b6040516102049190611376565b60405180910390f35b61022760048036038101906102229190611308565b6107a0565b005b34801561023557600080fd5b50610250600480360381019061024b9190611308565b61088f565b005b34801561025e57600080fd5b50610279600480360381019061027491906114f3565b6108aa565b005b6102836104e0565b61028c57600080fd5b600073ffffffffffffffffffffffffffffffffffffffff1660008054906101000a900473ffffffffffffffffffffffffffffffffffffffff1673ffffffffffffffffffffffffffffffffffffffff167f8be0079c531659141344cd1fd0a4f28419497f9722a3daafe3b4186f6b6457e060405160405180910390a360008060006101000a81548173ffffffffffffffffffffffffffffffffffffffff021916908373ffffffffffffffffffffffffffffffffffffffff160217905550565b6000600560003373ffffffffffffffffffffffffffffffffffffffff1673ffffffffffffffffffffffffffffffffffffffff168152602001908152602001600020541461039657600080fd5b60006103a1826108c7565b90506064816103b0919061162f565b816103bb919061168f565b90506103c7828261090c565b5050565b806004600082815260200190815260200160002060009054906101000a900473ffffffffffffffffffffffffffffffffffffffff1673ffffffffffffffffffffffffffffffffffffffff163373ffffffffffffffffffffffffffffffffffffffff161461043757600080fd5b600654341461044557600080fd5b60016004610453919061168f565b600b541061046057600080fd5b816007600b5460048110610477576104766116c3565b5b0181905550600b600081548092919061048f906116f2565b9190505550600160046104a2919061168f565b600b54036104b3576104b2610b0f565b5b5050565b60008060009054906101000a900473ffffffffffffffffffffffffffffffffffffffff16905090565b60008060009054906101000a900473ffffffffffffffffffffffffffffffffffffffff1673ffffffffffffffffffffffffffffffffffffffff163373ffffffffffffffffffffffffffffffffffffffff1614905090565b6003818154811061054757600080fd5b906000526020600020906003020160009150905080600001805461056a90611769565b80601f016020809104026020016040519081016040528092919081815260200182805461059690611769565b80156105e35780601f106105b8576101008083540402835291602001916105e3565b820191906000526020600020905b8154815290600101906020018083116105c657829003601f168201915b5050505050908060010154908060020160009054906101000a900461ffff16908060020160029054906101000a900461ffff16905084565b60606000600560008473ffffffffffffffffffffffffffffffffffffffff1673ffffffffffffffffffffffffffffffffffffffff1681526020019081526020016000205467ffffffffffffffff8111156106785761067761115e565b5b6040519080825280602002602001820160405280156106a65781602001602082028036833780820191505090505b5090506000805b600380549050811015610762578473ffffffffffffffffffffffffffffffffffffffff166004600083815260200190815260200160002060009054906101000a900473ffffffffffffffffffffffffffffffffffffffff1673ffffffffffffffffffffffffffffffffffffffff160361074f5780838381518110610734576107336116c3565b5b602002602001018181525050818061074b906116f2565b9250505b808061075a906116f2565b9150506106ad565b508192505050919050565b60046020528060005260406000206000915054906101000a900473ffffffffffffffffffffffffffffffffffffffff1681565b806004600082815260200190815260200160002060009054906101000a900473ffffffffffffffffffffffffffffffffffffffff1673ffffffffffffffffffffffffffffffffffffffff163373ffffffffffffffffffffffffffffffffffffffff161461080c57600080fd5b600654341461081a57600080fd5b60016004610828919061168f565b600b541061083557600080fd5b816007600b546004811061084c5761084b6116c3565b5b0181905550600b6000815480929190610864906116f2565b919050555060016004610877919061168f565b600b540361088b5761088a600b54610d14565b5b5050565b6108976104e0565b6108a057600080fd5b8060068190555050565b6108b26104e0565b6108bb57600080fd5b6108c481610f11565b50565b600080826040516020016108db91906117d6565b6040516020818303038152906040528051906020012060001c905060025481610904919061162f565b915050919050565b60036040518060800160405280848152602001838152602001600061ffff168152602001600061ffff168152509080600181540180825580915050600190039060005260206000209060030201600090919091909150600082015181600001908051906020019061097e92919061108c565b506020820151816001015560408201518160020160006101000a81548161ffff021916908361ffff16021790555060608201518160020160026101000a81548161ffff021916908361ffff1602179055505050600060016003805490506109e5919061168f565b9050336004600083815260200190815260200160002060006101000a81548173ffffffffffffffffffffffffffffffffffffffff021916908373ffffffffffffffffffffffffffffffffffffffff160217905550610a8c6001600560003373ffffffffffffffffffffffffffffffffffffffff1673ffffffffffffffffffffffffffffffffffffffff1681526020019081526020016000205461100790919063ffffffff16565b600560003373ffffffffffffffffffffffffffffffffffffffff1673ffffffffffffffffffffffffffffffffffffffff168152602001908152602001600020819055507f7512d04afc710279875c44ad61b2e78695e3824abb3178ec09c9199e13314c5d818484604051610b02939291906117ed565b60405180910390a1505050565b60006007610b1d6004611033565b60048110610b2e57610b2d6116c3565b5b0154905060038181548110610b4657610b456116c3565b5b9060005260206000209060030201600201600081819054906101000a900461ffff1680929190610b759061182b565b91906101000a81548161ffff021916908361ffff1602179055505060005b6004811015610c2257600360078260048110610bb257610bb16116c3565b5b015481548110610bc557610bc46116c3565b5b9060005260206000209060030201600201600281819054906101000a900461ffff1680929190610bf49061182b565b91906101000a81548161ffff021916908361ffff160217905550508080610c1a906116f2565b915050610b93565b5060038181548110610c3757610c366116c3565b5b9060005260206000209060030201600201600281819054906101000a900461ffff1680929190610c6690611855565b91906101000a81548161ffff021916908361ffff160217905550506004600082815260200190815260200160002060009054906101000a900473ffffffffffffffffffffffffffffffffffffffff1673ffffffffffffffffffffffffffffffffffffffff166108fc6004600654610cdd919061187e565b9081150290604051600060405180830381858888f19350505050158015610d08573d6000803e3d6000fd5b506000600b8190555050565b600060078260048110610d2a57610d296116c3565b5b0154905060038181548110610d4257610d416116c3565b5b9060005260206000209060030201600201600081819054906101000a900461ffff1680929190610d719061182b565b91906101000a81548161ffff021916908361ffff1602179055505060005b6004811015610e1e57600360078260048110610dae57610dad6116c3565b5b015481548110610dc157610dc06116c3565b5b9060005260206000209060030201600201600281819054906101000a900461ffff1680929190610df09061182b565b91906101000a81548161ffff021916908361ffff160217905550508080610e16906116f2565b915050610d8f565b5060038181548110610e3357610e326116c3565b5b9060005260206000209060030201600201600281819054906101000a900461ffff1680929190610e6290611855565b91906101000a81548161ffff021916908361ffff160217905550506004600082815260200190815260200160002060009054906101000a900473ffffffffffffffffffffffffffffffffffffffff1673ffffffffffffffffffffffffffffffffffffffff166108fc6004600654610ed9919061187e565b9081150290604051600060405180830381858888f19350505050158015610f04573d6000803e3d6000fd5b506000600b819055505050565b600073ffffffffffffffffffffffffffffffffffffffff168173ffffffffffffffffffffffffffffffffffffffff1603610f4a57600080fd5b8073ffffffffffffffffffffffffffffffffffffffff1660008054906101000a900473ffffffffffffffffffffffffffffffffffffffff1673ffffffffffffffffffffffffffffffffffffffff167f8be0079c531659141344cd1fd0a4f28419497f9722a3daafe3b4186f6b6457e060405160405180910390a3806000806101000a81548173ffffffffffffffffffffffffffffffffffffffff021916908373ffffffffffffffffffffffffffffffffffffffff16021790555050565b600080828461101691906118d8565b9050838110156110295761102861192e565b5b8091505092915050565b60006001600c5461104491906118d8565b600c81905550814233600c54604051602001611062939291906119c6565b6040516020818303038152906040528051906020012060001c611085919061162f565b9050919050565b82805461109890611769565b90600052602060002090601f0160209004810192826110ba5760008555611101565b82601f106110d357805160ff1916838001178555611101565b82800160010185558215611101579182015b828111156111005782518255916020019190600101906110e5565b5b50905061110e9190611112565b5090565b5b8082111561112b576000816000905550600101611113565b5090565b6000604051905090565b600080fd5b600080fd5b600080fd5b600080fd5b6000601f19601f8301169050919050565b7f4e487b7100000000000000000000000000000000000000000000000000000000600052604160045260246000fd5b6111968261114d565b810181811067ffffffffffffffff821117156111b5576111b461115e565b5b80604052505050565b60006111c861112f565b90506111d4828261118d565b919050565b600067ffffffffffffffff8211156111f4576111f361115e565b5b6111fd8261114d565b9050602081019050919050565b82818337600083830152505050565b600061122c611227846111d9565b6111be565b90508281526020810184848401111561124857611247611148565b5b61125384828561120a565b509392505050565b600082601f8301126112705761126f611143565b5b8135611280848260208601611219565b91505092915050565b60006020828403121561129f5761129e611139565b5b600082013567ffffffffffffffff8111156112bd576112bc61113e565b5b6112c98482850161125b565b91505092915050565b6000819050919050565b6112e5816112d2565b81146112f057600080fd5b50565b600081359050611302816112dc565b92915050565b60006020828403121561131e5761131d611139565b5b600061132c848285016112f3565b91505092915050565b600073ffffffffffffffffffffffffffffffffffffffff82169050919050565b600061136082611335565b9050919050565b61137081611355565b82525050565b600060208201905061138b6000830184611367565b92915050565b60008115159050919050565b6113a681611391565b82525050565b60006020820190506113c1600083018461139d565b92915050565b600081519050919050565b600082825260208201905092915050565b60005b838110156114015780820151818401526020810190506113e6565b83811115611410576000848401525b50505050565b6000611421826113c7565b61142b81856113d2565b935061143b8185602086016113e3565b6114448161114d565b840191505092915050565b611458816112d2565b82525050565b600061ffff82169050919050565b6114758161145e565b82525050565b600060808201905081810360008301526114958187611416565b90506114a4602083018661144f565b6114b1604083018561146c565b6114be606083018461146c565b95945050505050565b6114d081611355565b81146114db57600080fd5b50565b6000813590506114ed816114c7565b92915050565b60006020828403121561150957611508611139565b5b6000611517848285016114de565b91505092915050565b600081519050919050565b600082825260208201905092915050565b6000819050602082019050919050565b611555816112d2565b82525050565b6000611567838361154c565b60208301905092915050565b6000602082019050919050565b600061158b82611520565b611595818561152b565b93506115a08361153c565b8060005b838110156115d15781516115b8888261155b565b97506115c383611573565b9250506001810190506115a4565b5085935050505092915050565b600060208201905081810360008301526115f88184611580565b905092915050565b7f4e487b7100000000000000000000000000000000000000000000000000000000600052601260045260246000fd5b600061163a826112d2565b9150611645836112d2565b92508261165557611654611600565b5b828206905092915050565b7f4e487b7100000000000000000000000000000000000000000000000000000000600052601160045260246000fd5b600061169a826112d2565b91506116a5836112d2565b9250828210156116b8576116b7611660565b5b828203905092915050565b7f4e487b7100000000000000000000000000000000000000000000000000000000600052603260045260246000fd5b60006116fd826112d2565b91507fffffffffffffffffffffffffffffffffffffffffffffffffffffffffffffffff820361172f5761172e611660565b5b600182019050919050565b7f4e487b7100000000000000000000000000000000000000000000000000000000600052602260045260246000fd5b6000600282049050600182168061178157607f821691505b6020821081036117945761179361173a565b5b50919050565b600081905092915050565b60006117b0826113c7565b6117ba818561179a565b93506117ca8185602086016113e3565b80840191505092915050565b60006117e282846117a5565b915081905092915050565b6000606082019050611802600083018661144f565b81810360208301526118148185611416565b9050611823604083018461144f565b949350505050565b60006118368261145e565b915061ffff820361184a57611849611660565b5b600182019050919050565b60006118608261145e565b91506000820361187357611872611660565b5b600182039050919050565b6000611889826112d2565b9150611894836112d2565b9250817fffffffffffffffffffffffffffffffffffffffffffffffffffffffffffffffff04831182151516156118cd576118cc611660565b5b828202905092915050565b60006118e3826112d2565b91506118ee836112d2565b9250827fffffffffffffffffffffffffffffffffffffffffffffffffffffffffffffffff0382111561192357611922611660565b5b828201905092915050565b7f4e487b7100000000000000000000000000000000000000000000000000000000600052600160045260246000fd5b6000819050919050565b611978611973826112d2565b61195d565b82525050565b60008160601b9050919050565b60006119968261197e565b9050919050565b60006119a88261198b565b9050919050565b6119c06119bb82611355565b61199d565b82525050565b60006119d28286611967565b6020820191506119e282856119af565b6014820191506119f28284611967565b60208201915081905094935050505056fea2646970667358221220da3817f3853803719b6bd75d8993ee941eda95f0f3a11fec0b25facb000ea21064736f6c634300080e0033",
  "immutableReferences": {},
  "source": "// SPDX-License-Identifier: GPL-3.0\npragma solidity >=0.7.0 <0.9.0;\n\nimport \"./horsehelper.sol\";\n\ncontract HorseRace is HorseHelper {\n    uint256 raceBet;\n    uint256[4] currentRace;\n    uint256 idx = 0;\n    uint256 randNonce = 0;\n\n    constructor (uint _betAmount) {\n        raceBet = _betAmount;\n    }\n\n    function randMod(uint256 _modulus) internal returns (uint256) {\n        randNonce = randNonce + 1;\n        return\n            uint256(\n                keccak256(\n                    abi.encodePacked(block.timestamp, msg.sender, randNonce)\n                )\n            ) % _modulus;\n    }\n\n    function setBet(uint256 _bet) external onlyOwner {\n        raceBet = _bet;\n    }\n\n    function bet(uint256 _horseId) external payable onlyOwnerOf(_horseId) {\n        require(msg.value == raceBet);\n        require(idx < currentRace.length - 1);\n        currentRace[idx] = _horseId;\n        idx++;\n\n        if (idx == currentRace.length - 1) {\n            // si se completan los caballos, se ejecuta la carrera\n            race();\n        }\n    }\n\n    function race() internal {\n        uint256 winnerId = currentRace[randMod(currentRace.length)];\n        horses[winnerId].winCount++;\n        for (uint256 i = 0; i < currentRace.length; i++) {\n            horses[currentRace[i]].lossCount++;\n        }\n        horses[winnerId].lossCount--;\n\n        // transferir el premio al ganador (chequear)\n        payable(horseToOwner[winnerId]).transfer(raceBet * currentRace.length);\n\n        // emitir evento de race para mostrarla en el front\n        idx = 0;\n    }\n\n\n   function mock_bet(uint256 _horseId) external payable onlyOwnerOf(_horseId) {\n        require(msg.value == raceBet);\n        require(idx < currentRace.length - 1);\n        currentRace[idx] = _horseId;\n        idx++;\n\n        if (idx == currentRace.length - 1) {\n            mock_race(idx);\n        }\n    }\n\n    function mock_race(uint256 winner) internal {\n        uint256 winnerId = currentRace[winner];\n        horses[winnerId].winCount++;\n        for (uint256 i = 0; i < currentRace.length; i++) {\n            horses[currentRace[i]].lossCount++;\n        }\n        horses[winnerId].lossCount--;\n\n        // transferir el premio al ganador (chequear)\n        payable(horseToOwner[winnerId]).transfer(raceBet * currentRace.length);\n\n        // emitir evento de race para mostrarla en el front\n        idx = 0;\n    }\n\n}\n",
  "sourcePath": "/home/matias/Desktop/Facultad/Teoria del Lenguaje/Repo/TDL-SinoKa-La-Ferrigneta/contracts/racing/horseRace.sol",
  "compiler": {
    "name": "solc",
    "version": "0.8.14+commit.80d49f37.Emscripten.clang"
  },
  "schemaVersion": "3.4.7",
  "updatedAt": "2022-06-27T21:52:31.438Z",
  "devdoc": {
    "kind": "dev",
    "methods": {
      "isOwner()": {
        "returns": {
          "_0": "true if `msg.sender` is the owner of the contract."
        }
      },
      "owner()": {
        "returns": {
          "_0": "the address of the owner."
        }
      },
      "renounceOwnership()": {
        "details": "Allows the current owner to relinquish control of the contract."
      },
      "transferOwnership(address)": {
        "details": "Allows the current owner to transfer control of the contract to a newOwner.",
        "params": {
          "newOwner": "The address to transfer ownership to."
        }
      }
    },
    "version": 1
  },
  "userdoc": {
    "kind": "user",
    "methods": {
      "renounceOwnership()": {
        "notice": "Renouncing to ownership will leave the contract without an owner. It will not be possible to call the functions with the `onlyOwner` modifier anymore."
      }
    },
    "version": 1
  }
}