{
  "contractName": "HorseRacing",
  "abi": [
    {
      "inputs": [],
      "stateMutability": "nonpayable",
      "type": "constructor"
    },
    {
      "anonymous": false,
      "inputs": [
        {
          "indexed": false,
          "internalType": "address",
          "name": "buyer",
          "type": "address"
        },
        {
          "indexed": false,
          "internalType": "uint256",
          "name": "amountOfETH",
          "type": "uint256"
        },
        {
          "indexed": false,
          "internalType": "uint256",
          "name": "amountOfTokens",
          "type": "uint256"
        }
      ],
      "name": "BuyTokens",
      "type": "event"
    },
    {
      "anonymous": false,
      "inputs": [
        {
          "indexed": false,
          "internalType": "uint256",
          "name": "horseId",
          "type": "uint256"
        },
        {
          "indexed": false,
          "internalType": "string",
          "name": "name",
          "type": "string"
        },
        {
          "indexed": false,
          "internalType": "uint256",
          "name": "dna",
          "type": "uint256"
        }
      ],
      "name": "NewHorse",
      "type": "event"
    },
    {
      "anonymous": false,
      "inputs": [
        {
          "indexed": true,
          "internalType": "address",
          "name": "previousOwner",
          "type": "address"
        },
        {
          "indexed": true,
          "internalType": "address",
          "name": "newOwner",
          "type": "address"
        }
      ],
      "name": "OwnershipTransferred",
      "type": "event"
    },
    {
      "anonymous": false,
      "inputs": [
        {
          "indexed": false,
          "internalType": "uint256",
          "name": "raceId",
          "type": "uint256"
        }
      ],
      "name": "RaceCreated",
      "type": "event"
    },
    {
      "inputs": [
        {
          "internalType": "string",
          "name": "_name",
          "type": "string"
        }
      ],
      "name": "createRandomHorse",
      "outputs": [],
      "stateMutability": "nonpayable",
      "type": "function"
    },
    {
      "inputs": [
        {
          "internalType": "address",
          "name": "_owner",
          "type": "address"
        }
      ],
      "name": "getHorsesByOwner",
      "outputs": [
        {
          "internalType": "uint256[]",
          "name": "",
          "type": "uint256[]"
        }
      ],
      "stateMutability": "view",
      "type": "function"
    },
    {
      "inputs": [
        {
          "internalType": "uint256",
          "name": "",
          "type": "uint256"
        }
      ],
      "name": "horseToOwner",
      "outputs": [
        {
          "internalType": "address",
          "name": "",
          "type": "address"
        }
      ],
      "stateMutability": "view",
      "type": "function"
    },
    {
      "inputs": [
        {
          "internalType": "uint256",
          "name": "",
          "type": "uint256"
        }
      ],
      "name": "horses",
      "outputs": [
        {
          "internalType": "string",
          "name": "name",
          "type": "string"
        },
        {
          "internalType": "uint256",
          "name": "dna",
          "type": "uint256"
        },
        {
          "internalType": "uint16",
          "name": "winCount",
          "type": "uint16"
        },
        {
          "internalType": "uint16",
          "name": "lossCount",
          "type": "uint16"
        }
      ],
      "stateMutability": "view",
      "type": "function"
    },
    {
      "inputs": [],
      "name": "isOwner",
      "outputs": [
        {
          "internalType": "bool",
          "name": "",
          "type": "bool"
        }
      ],
      "stateMutability": "view",
      "type": "function"
    },
    {
      "inputs": [],
      "name": "owner",
      "outputs": [
        {
          "internalType": "address",
          "name": "",
          "type": "address"
        }
      ],
      "stateMutability": "view",
      "type": "function"
    },
    {
      "inputs": [],
      "name": "renounceOwnership",
      "outputs": [],
      "stateMutability": "nonpayable",
      "type": "function"
    },
    {
      "inputs": [],
      "name": "tokensPerEth",
      "outputs": [
        {
          "internalType": "uint256",
          "name": "",
          "type": "uint256"
        }
      ],
      "stateMutability": "view",
      "type": "function"
    },
    {
      "inputs": [
        {
          "internalType": "address",
          "name": "newOwner",
          "type": "address"
        }
      ],
      "name": "transferOwnership",
      "outputs": [],
      "stateMutability": "nonpayable",
      "type": "function"
    },
    {
      "inputs": [
        {
          "internalType": "uint256",
          "name": "_betAmount",
          "type": "uint256"
        },
        {
          "internalType": "uint256",
          "name": "_maxAmountOfHorses",
          "type": "uint256"
        }
      ],
      "name": "newRace",
      "outputs": [
        {
          "internalType": "uint256",
          "name": "raceId",
          "type": "uint256"
        }
      ],
      "stateMutability": "nonpayable",
      "type": "function"
    },
    {
      "inputs": [
        {
          "internalType": "uint256",
          "name": "raceId",
          "type": "uint256"
        },
        {
          "internalType": "uint256",
          "name": "_horseId",
          "type": "uint256"
        }
      ],
      "name": "bet",
      "outputs": [],
      "stateMutability": "payable",
      "type": "function"
    },
    {
      "inputs": [
        {
          "internalType": "uint256",
          "name": "raceId",
          "type": "uint256"
        }
      ],
      "name": "simulateRace",
      "outputs": [],
      "stateMutability": "nonpayable",
      "type": "function"
    },
    {
      "inputs": [
        {
          "internalType": "uint256",
          "name": "raceId",
          "type": "uint256"
        },
        {
          "internalType": "uint256",
          "name": "winner",
          "type": "uint256"
        }
      ],
      "name": "mock_simulateRace",
      "outputs": [],
      "stateMutability": "nonpayable",
      "type": "function"
    },
    {
      "inputs": [
        {
          "internalType": "uint256",
          "name": "raceId",
          "type": "uint256"
        }
      ],
      "name": "isRaceCompleted",
      "outputs": [
        {
          "internalType": "bool",
          "name": "",
          "type": "bool"
        }
      ],
      "stateMutability": "view",
      "type": "function"
    },
    {
      "inputs": [
        {
          "internalType": "uint256",
          "name": "raceId",
          "type": "uint256"
        },
        {
          "internalType": "uint256",
          "name": "expectedAmount",
          "type": "uint256"
        }
      ],
      "name": "totalBetIsEqualTo",
      "outputs": [
        {
          "internalType": "bool",
          "name": "",
          "type": "bool"
        }
      ],
      "stateMutability": "view",
      "type": "function"
    },
    {
      "inputs": [
        {
          "internalType": "uint256",
          "name": "raceId",
          "type": "uint256"
        },
        {
          "internalType": "uint256",
          "name": "expectedAmount",
          "type": "uint256"
        }
      ],
      "name": "raceBetIsEqualTo",
      "outputs": [
        {
          "internalType": "bool",
          "name": "",
          "type": "bool"
        }
      ],
      "stateMutability": "view",
      "type": "function"
    },
    {
      "inputs": [
        {
          "internalType": "uint256",
          "name": "raceId",
          "type": "uint256"
        },
        {
          "internalType": "uint256",
          "name": "expectedLength",
          "type": "uint256"
        }
      ],
      "name": "raceLengthIsEqualTo",
      "outputs": [
        {
          "internalType": "bool",
          "name": "",
          "type": "bool"
        }
      ],
      "stateMutability": "view",
      "type": "function"
    },
    {
      "inputs": [
        {
          "internalType": "uint256",
          "name": "raceId",
          "type": "uint256"
        }
      ],
      "name": "returnTotalBet",
      "outputs": [
        {
          "internalType": "uint256",
          "name": "",
          "type": "uint256"
        }
      ],
      "stateMutability": "view",
      "type": "function"
    },
    {
      "inputs": [
        {
          "internalType": "uint256",
          "name": "raceId",
          "type": "uint256"
        }
      ],
      "name": "returnRaceBet",
      "outputs": [
        {
          "internalType": "uint256",
          "name": "",
          "type": "uint256"
        }
      ],
      "stateMutability": "view",
      "type": "function"
    },
    {
      "inputs": [
        {
          "internalType": "uint256",
          "name": "raceId",
          "type": "uint256"
        }
      ],
      "name": "returnRaceLength",
      "outputs": [
        {
          "internalType": "uint256",
          "name": "",
          "type": "uint256"
        }
      ],
      "stateMutability": "view",
      "type": "function"
    },
    {
      "inputs": [
        {
          "internalType": "address",
          "name": "from",
          "type": "address"
        },
        {
          "internalType": "address",
          "name": "to",
          "type": "address"
        },
        {
          "internalType": "uint256",
          "name": "tokens",
          "type": "uint256"
        }
      ],
      "name": "transferToken",
      "outputs": [
        {
          "internalType": "uint256",
          "name": "",
          "type": "uint256"
        }
      ],
      "stateMutability": "nonpayable",
      "type": "function"
    },
    {
      "inputs": [
        {
          "internalType": "address",
          "name": "tokenOwner",
          "type": "address"
        }
      ],
      "name": "returnBalanceOf",
      "outputs": [
        {
          "internalType": "uint256",
          "name": "",
          "type": "uint256"
        }
      ],
      "stateMutability": "view",
      "type": "function"
    },
    {
      "inputs": [],
      "name": "buyTokens",
      "outputs": [
        {
          "internalType": "uint256",
          "name": "tokenAmount",
          "type": "uint256"
        }
      ],
      "stateMutability": "payable",
      "type": "function"
    }
  ],
  "bytecode": "0x60806040526010600155600154600a6200001a91906200035a565b60025560006006556000600b556000600c556064600d553480156200003e57600080fd5b50336000806101000a81548173ffffffffffffffffffffffffffffffffffffffff021916908373ffffffffffffffffffffffffffffffffffffffff16021790555060008054906101000a900473ffffffffffffffffffffffffffffffffffffffff1673ffffffffffffffffffffffffffffffffffffffff16600073ffffffffffffffffffffffffffffffffffffffff167f8be0079c531659141344cd1fd0a4f28419497f9722a3daafe3b4186f6b6457e060405160405180910390a3620f4240336040516200010d90620001bf565b6200011a9291906200043d565b604051809103906000f08015801562000137573d6000803e3d6000fd5b50600760006101000a81548173ffffffffffffffffffffffffffffffffffffffff021916908373ffffffffffffffffffffffffffffffffffffffff16021790555033600860006101000a81548173ffffffffffffffffffffffffffffffffffffffff021916908373ffffffffffffffffffffffffffffffffffffffff1602179055506200046a565b6112b3806200332983390190565b7f4e487b7100000000000000000000000000000000000000000000000000000000600052601160045260246000fd5b60008160011c9050919050565b6000808291508390505b60018511156200025b57808604811115620002335762000232620001cd565b5b6001851615620002435780820291505b80810290506200025385620001fc565b945062000213565b94509492505050565b60008262000276576001905062000349565b8162000286576000905062000349565b81600181146200029f5760028114620002aa57620002e0565b600191505062000349565b60ff841115620002bf57620002be620001cd565b5b8360020a915084821115620002d957620002d8620001cd565b5b5062000349565b5060208310610133831016604e8410600b84101617156200031a5782820a905083811115620003145762000313620001cd565b5b62000349565b62000329848484600162000209565b92509050818404811115620003435762000342620001cd565b5b81810290505b9392505050565b6000819050919050565b6000620003678262000350565b9150620003748362000350565b9250620003a37fffffffffffffffffffffffffffffffffffffffffffffffffffffffffffffffff848462000264565b905092915050565b6000819050919050565b6000819050919050565b6000620003e0620003da620003d484620003ab565b620003b5565b62000350565b9050919050565b620003f281620003bf565b82525050565b600073ffffffffffffffffffffffffffffffffffffffff82169050919050565b60006200042582620003f8565b9050919050565b620004378162000418565b82525050565b6000604082019050620004546000830185620003e7565b6200046360208301846200042c565b9392505050565b612eaf806200047a6000396000f3fe6080604052600436106101405760003560e01c80638da5cb5b116100b6578063cbdd69b51161006f578063cbdd69b5146104ae578063d0febe4c146104d9578063da677fa2146104f7578063eb2a89a914610534578063f2fde38b14610571578063f5537ede1461059a57610140565b80638da5cb5b146103755780638f32d59b146103a05780638f8b5cde146103cb578063916a42721461040b578063b6ccf1a414610434578063c8b62d641461047157610140565b806363670e241161010857806363670e24146102765780636ffcc719146102b3578063715018a6146102cf578063735e9c50146102e657806373671d741461030f57806387db52961461034c57610140565b80630126179d146101455780630e03608f1461018257806316b3ede1146101bf5780633758042e146101fc5780634348f0ed14610239575b600080fd5b34801561015157600080fd5b5061016c600480360381019061016791906122ef565b6105d7565b604051610179919061232b565b60405180910390f35b34801561018e57600080fd5b506101a960048036038101906101a491906122ef565b6105f7565b6040516101b6919061232b565b60405180910390f35b3480156101cb57600080fd5b506101e660048036038101906101e19190612346565b610617565b6040516101f391906123a1565b60405180910390f35b34801561020857600080fd5b50610223600480360381019061021e919061241a565b61063a565b604051610230919061232b565b60405180910390f35b34801561024557600080fd5b50610260600480360381019061025b91906122ef565b6106df565b60405161026d91906123a1565b60405180910390f35b34801561028257600080fd5b5061029d60048036038101906102989190612346565b61070c565b6040516102aa91906123a1565b60405180910390f35b6102cd60048036038101906102c89190612346565b61072f565b005b3480156102db57600080fd5b506102e4610ac2565b005b3480156102f257600080fd5b5061030d6004803603810190610308919061258d565b610b91565b005b34801561031b57600080fd5b50610336600480360381019061033191906122ef565b610c12565b604051610343919061232b565b60405180910390f35b34801561035857600080fd5b50610373600480360381019061036e9190612346565b610c53565b005b34801561038157600080fd5b5061038a611127565b60405161039791906125e5565b60405180910390f35b3480156103ac57600080fd5b506103b5611150565b6040516103c291906123a1565b60405180910390f35b3480156103d757600080fd5b506103f260048036038101906103ed91906122ef565b6111a7565b60405161040294939291906126a5565b60405180910390f35b34801561041757600080fd5b50610432600480360381019061042d91906122ef565b61128b565b005b34801561044057600080fd5b5061045b60048036038101906104569190612346565b61176b565b604051610468919061232b565b60405180910390f35b34801561047d57600080fd5b506104986004803603810190610493919061241a565b611866565b6040516104a591906127af565b60405180910390f35b3480156104ba57600080fd5b506104c36119b8565b6040516104d0919061232b565b60405180910390f35b6104e16119be565b6040516104ee919061232b565b60405180910390f35b34801561050357600080fd5b5061051e600480360381019061051991906122ef565b611c89565b60405161052b91906125e5565b60405180910390f35b34801561054057600080fd5b5061055b60048036038101906105569190612346565b611cbc565b60405161056891906123a1565b60405180910390f35b34801561057d57600080fd5b506105986004803603810190610593919061241a565b611d00565b005b3480156105a657600080fd5b506105c160048036038101906105bc91906127d1565b611d1d565b6040516105ce919061232b565b60405180910390f35b600060096000838152602001908152602001600020600001549050919050565b600060096000838152602001908152602001600020600101549050919050565b600081600960008581526020019081526020016000206000015414905092915050565b6000600760009054906101000a900473ffffffffffffffffffffffffffffffffffffffff1673ffffffffffffffffffffffffffffffffffffffff166370a08231836040518263ffffffff1660e01b815260040161069791906125e5565b602060405180830381865afa1580156106b4573d6000803e3d6000fd5b505050506040513d601f19601f820116820180604052508101906106d89190612839565b9050919050565b60006009600083815260200190815260200160002060030160009054906101000a900460ff169050919050565b600081600960008581526020019081526020016000206001015414905092915050565b6000600960008481526020019081526020016000206040518060a00160405290816000820154815260200160018201548152602001600282018054806020026020016040519081016040528092919081815260200182805480156107b257602002820191906000526020600020905b81548152602001906001019080831161079e575b505050505081526020016003820160009054906101000a900460ff1615151515815260200160048201548152505090506000151581606001511515146107f757600080fd5b8060000151600760009054906101000a900473ffffffffffffffffffffffffffffffffffffffff1673ffffffffffffffffffffffffffffffffffffffff166370a08231336040518263ffffffff1660e01b815260040161085791906125e5565b602060405180830381865afa158015610874573d6000803e3d6000fd5b505050506040513d601f19601f820116820180604052508101906108989190612839565b10156108a357600080fd5b80608001518160200151106108b757600080fd5b6040518060600160405280826000015181526020013373ffffffffffffffffffffffffffffffffffffffff16815260200183815250600a6000600c5481526020019081526020016000206000820151816000015560208201518160010160006101000a81548173ffffffffffffffffffffffffffffffffffffffff021916908373ffffffffffffffffffffffffffffffffffffffff16021790555060408201518160020155905050600c54816040015182602001518151811061097d5761097c612866565b5b60200260200101818152505080602001805180919061099b906128c4565b81525050600c60008154809291906109b2906128c4565b9190505550600760009054906101000a900473ffffffffffffffffffffffffffffffffffffffff1673ffffffffffffffffffffffffffffffffffffffff1663202a17fb33600860009054906101000a900473ffffffffffffffffffffffffffffffffffffffff168460000151600860009054906101000a900473ffffffffffffffffffffffffffffffffffffffff166040518563ffffffff1660e01b8152600401610a60949392919061290c565b6020604051808303816000875af1158015610a7f573d6000803e3d6000fd5b505050506040513d601f19601f82011682018060405250810190610aa3919061297d565b508060800151816020015103610abd57610abc8361128b565b5b505050565b610aca611150565b610ad357600080fd5b600073ffffffffffffffffffffffffffffffffffffffff1660008054906101000a900473ffffffffffffffffffffffffffffffffffffffff1673ffffffffffffffffffffffffffffffffffffffff167f8be0079c531659141344cd1fd0a4f28419497f9722a3daafe3b4186f6b6457e060405160405180910390a360008060006101000a81548173ffffffffffffffffffffffffffffffffffffffff021916908373ffffffffffffffffffffffffffffffffffffffff160217905550565b6000600560003373ffffffffffffffffffffffffffffffffffffffff1673ffffffffffffffffffffffffffffffffffffffff1681526020019081526020016000205414610bdd57600080fd5b6000610be882611e25565b9050606481610bf791906129d9565b81610c029190612a0a565b9050610c0e8282611e6a565b5050565b600060096000838152602001908152602001600020600101546009600084815260200190815260200160002060000154610c4c9190612a3e565b9050919050565b610c5b611150565b610c6457600080fd5b6000600960008481526020019081526020016000206040518060a0016040529081600082015481526020016001820154815260200160028201805480602002602001604051908101604052809291908181526020018280548015610ce757602002820191906000526020600020905b815481526020019060010190808311610cd3575b505050505081526020016003820160009054906101000a900460ff161515151581526020016004820154815250509050600860009054906101000a900473ffffffffffffffffffffffffffffffffffffffff1673ffffffffffffffffffffffffffffffffffffffff163373ffffffffffffffffffffffffffffffffffffffff1614610d7157600080fd5b8060000151600760009054906101000a900473ffffffffffffffffffffffffffffffffffffffff1673ffffffffffffffffffffffffffffffffffffffff166370a08231336040518263ffffffff1660e01b8152600401610dd191906125e5565b602060405180830381865afa158015610dee573d6000803e3d6000fd5b505050506040513d601f19601f82011682018060405250810190610e129190612839565b1015610e1d57600080fd5b8060800151816020015114610e3157600080fd5b6000600a600083604001518581518110610e4e57610e4d612866565b5b6020026020010151815260200190815260200160002060020154905060038181548110610e7e57610e7d612866565b5b9060005260206000209060030201600201600081819054906101000a900461ffff1680929190610ead90612a98565b91906101000a81548161ffff021916908361ffff1602179055505060005b8260800151811015610f7c576003600a600085604001518481518110610ef457610ef3612866565b5b602002602001015181526020019081526020016000206002015481548110610f1f57610f1e612866565b5b9060005260206000209060030201600201600281819054906101000a900461ffff1680929190610f4e90612a98565b91906101000a81548161ffff021916908361ffff160217905550508080610f74906128c4565b915050610ecb565b5060038181548110610f9157610f90612866565b5b9060005260206000209060030201600201600281819054906101000a900461ffff1680929190610fc090612ac2565b91906101000a81548161ffff021916908361ffff1602179055505060006004600083815260200190815260200160002060009054906101000a900473ffffffffffffffffffffffffffffffffffffffff169050600760009054906101000a900473ffffffffffffffffffffffffffffffffffffffff1673ffffffffffffffffffffffffffffffffffffffff1663202a17fb600860009054906101000a900473ffffffffffffffffffffffffffffffffffffffff1683866080015187600001516110899190612a3e565b600860009054906101000a900473ffffffffffffffffffffffffffffffffffffffff166040518563ffffffff1660e01b81526004016110cb949392919061290c565b6020604051808303816000875af11580156110ea573d6000803e3d6000fd5b505050506040513d601f19601f8201168201806040525081019061110e919061297d565b5060018360600190151590811515815250505050505050565b60008060009054906101000a900473ffffffffffffffffffffffffffffffffffffffff16905090565b60008060009054906101000a900473ffffffffffffffffffffffffffffffffffffffff1673ffffffffffffffffffffffffffffffffffffffff163373ffffffffffffffffffffffffffffffffffffffff1614905090565b600381815481106111b757600080fd5b90600052602060002090600302016000915090508060000180546111da90612b1a565b80601f016020809104026020016040519081016040528092919081815260200182805461120690612b1a565b80156112535780601f1061122857610100808354040283529160200191611253565b820191906000526020600020905b81548152906001019060200180831161123657829003601f168201915b5050505050908060010154908060020160009054906101000a900461ffff16908060020160029054906101000a900461ffff16905084565b611293611150565b61129c57600080fd5b6000600960008381526020019081526020016000206040518060a001604052908160008201548152602001600182015481526020016002820180548060200260200160405190810160405280929190818152602001828054801561131f57602002820191906000526020600020905b81548152602001906001019080831161130b575b505050505081526020016003820160009054906101000a900460ff161515151581526020016004820154815250509050600860009054906101000a900473ffffffffffffffffffffffffffffffffffffffff1673ffffffffffffffffffffffffffffffffffffffff163373ffffffffffffffffffffffffffffffffffffffff16146113a957600080fd5b8060000151600760009054906101000a900473ffffffffffffffffffffffffffffffffffffffff1673ffffffffffffffffffffffffffffffffffffffff166370a08231336040518263ffffffff1660e01b815260040161140991906125e5565b602060405180830381865afa158015611426573d6000803e3d6000fd5b505050506040513d601f19601f8201168201806040525081019061144a9190612839565b101561145557600080fd5b806080015181602001511461146957600080fd5b6000600a60008360400151611482856040015151612066565b8151811061149357611492612866565b5b60200260200101518152602001908152602001600020600201549050600381815481106114c3576114c2612866565b5b9060005260206000209060030201600201600081819054906101000a900461ffff16809291906114f290612a98565b91906101000a81548161ffff021916908361ffff1602179055505060005b82608001518110156115c1576003600a60008560400151848151811061153957611538612866565b5b60200260200101518152602001908152602001600020600201548154811061156457611563612866565b5b9060005260206000209060030201600201600281819054906101000a900461ffff168092919061159390612a98565b91906101000a81548161ffff021916908361ffff1602179055505080806115b9906128c4565b915050611510565b50600381815481106115d6576115d5612866565b5b9060005260206000209060030201600201600281819054906101000a900461ffff168092919061160590612ac2565b91906101000a81548161ffff021916908361ffff1602179055505060006004600083815260200190815260200160002060009054906101000a900473ffffffffffffffffffffffffffffffffffffffff169050600760009054906101000a900473ffffffffffffffffffffffffffffffffffffffff1673ffffffffffffffffffffffffffffffffffffffff1663202a17fb600860009054906101000a900473ffffffffffffffffffffffffffffffffffffffff1683866080015187600001516116ce9190612a3e565b600860009054906101000a900473ffffffffffffffffffffffffffffffffffffffff166040518563ffffffff1660e01b8152600401611710949392919061290c565b6020604051808303816000875af115801561172f573d6000803e3d6000fd5b505050506040513d601f19601f82011682018060405250810190611753919061297d565b50600183606001901515908115158152505050505050565b60006060600b5491506040518060a00160405280858152602001600081526020018281526020016000151581526020018481525060096000848152602001908152602001600020600082015181600001556020820151816001015560408201518160020190805190602001906117e29291906121b5565b5060608201518160030160006101000a81548160ff02191690831515021790555060808201518160040155905050600b6000815480929190611823906128c4565b91905055507f5a691e0655b3e3b2995fd900bfeeeccf635a465b0b798b9d4d49a75a1ce4a9cc82604051611857919061232b565b60405180910390a15092915050565b60606000600560008473ffffffffffffffffffffffffffffffffffffffff1673ffffffffffffffffffffffffffffffffffffffff1681526020019081526020016000205467ffffffffffffffff8111156118c3576118c2612462565b5b6040519080825280602002602001820160405280156118f15781602001602082028036833780820191505090505b5090506000805b6003805490508110156119ad578473ffffffffffffffffffffffffffffffffffffffff166004600083815260200190815260200160002060009054906101000a900473ffffffffffffffffffffffffffffffffffffffff1673ffffffffffffffffffffffffffffffffffffffff160361199a578083838151811061197f5761197e612866565b5b6020026020010181815250508180611996906128c4565b9250505b80806119a5906128c4565b9150506118f8565b508192505050919050565b600d5481565b6000803411611a02576040517f08c379a00000000000000000000000000000000000000000000000000000000081526004016119f990612b97565b60405180910390fd5b6000600d5434611a129190612a3e565b90506000600760009054906101000a900473ffffffffffffffffffffffffffffffffffffffff1673ffffffffffffffffffffffffffffffffffffffff166370a08231600860009054906101000a900473ffffffffffffffffffffffffffffffffffffffff166040518263ffffffff1660e01b8152600401611a9391906125e5565b602060405180830381865afa158015611ab0573d6000803e3d6000fd5b505050506040513d601f19601f82011682018060405250810190611ad49190612839565b905081811015611b19576040517f08c379a0000000000000000000000000000000000000000000000000000000008152600401611b1090612c29565b60405180910390fd5b6000600760009054906101000a900473ffffffffffffffffffffffffffffffffffffffff1673ffffffffffffffffffffffffffffffffffffffff1663202a17fb600860009054906101000a900473ffffffffffffffffffffffffffffffffffffffff163386600860009054906101000a900473ffffffffffffffffffffffffffffffffffffffff166040518563ffffffff1660e01b8152600401611bc0949392919061290c565b6020604051808303816000875af1158015611bdf573d6000803e3d6000fd5b505050506040513d601f19601f82011682018060405250810190611c03919061297d565b905080611c45576040517f08c379a0000000000000000000000000000000000000000000000000000000008152600401611c3c90612c95565b60405180910390fd5b7f0a37b72bb67eee30e09084cf386f8a17817c57f620c3ab95fb25d6a20356ec77333485604051611c7893929190612cb5565b60405180910390a182935050505090565b60046020528060005260406000206000915054906101000a900473ffffffffffffffffffffffffffffffffffffffff1681565b60008160096000858152602001908152602001600020600401546009600086815260200190815260200160002060000154611cf79190612a3e565b14905092915050565b611d08611150565b611d1157600080fd5b611d1a816120bf565b50565b6000600860009054906101000a900473ffffffffffffffffffffffffffffffffffffffff1673ffffffffffffffffffffffffffffffffffffffff163373ffffffffffffffffffffffffffffffffffffffff1614611d7957600080fd5b600760009054906101000a900473ffffffffffffffffffffffffffffffffffffffff1673ffffffffffffffffffffffffffffffffffffffff1663202a17fb858585336040518563ffffffff1660e01b8152600401611dda949392919061290c565b6020604051808303816000875af1158015611df9573d6000803e3d6000fd5b505050506040513d601f19601f82011682018060405250810190611e1d919061297d565b509392505050565b60008082604051602001611e399190612d28565b6040516020818303038152906040528051906020012060001c905060025481611e6291906129d9565b915050919050565b60036040518060800160405280848152602001838152602001600061ffff168152602001600061ffff1681525090806001815401808255809150506001900390600052602060002090600302016000909190919091506000820151816000019080519060200190611edc929190612202565b506020820151816001015560408201518160020160006101000a81548161ffff021916908361ffff16021790555060608201518160020160026101000a81548161ffff021916908361ffff160217905550505060006001600380549050611f439190612a0a565b9050336004600083815260200190815260200160002060006101000a81548173ffffffffffffffffffffffffffffffffffffffff021916908373ffffffffffffffffffffffffffffffffffffffff1602179055506001600560003373ffffffffffffffffffffffffffffffffffffffff1673ffffffffffffffffffffffffffffffffffffffff16815260200190815260200160002054611fe39190612d3f565b600560003373ffffffffffffffffffffffffffffffffffffffff1673ffffffffffffffffffffffffffffffffffffffff168152602001908152602001600020819055507f7512d04afc710279875c44ad61b2e78695e3824abb3178ec09c9199e13314c5d81848460405161205993929190612d95565b60405180910390a1505050565b600060016006546120779190612d3f565b60068190555081423360065460405160200161209593929190612e3c565b6040516020818303038152906040528051906020012060001c6120b891906129d9565b9050919050565b600073ffffffffffffffffffffffffffffffffffffffff168173ffffffffffffffffffffffffffffffffffffffff16036120f857600080fd5b8073ffffffffffffffffffffffffffffffffffffffff1660008054906101000a900473ffffffffffffffffffffffffffffffffffffffff1673ffffffffffffffffffffffffffffffffffffffff167f8be0079c531659141344cd1fd0a4f28419497f9722a3daafe3b4186f6b6457e060405160405180910390a3806000806101000a81548173ffffffffffffffffffffffffffffffffffffffff021916908373ffffffffffffffffffffffffffffffffffffffff16021790555050565b8280548282559060005260206000209081019282156121f1579160200282015b828111156121f05782518255916020019190600101906121d5565b5b5090506121fe9190612288565b5090565b82805461220e90612b1a565b90600052602060002090601f0160209004810192826122305760008555612277565b82601f1061224957805160ff1916838001178555612277565b82800160010185558215612277579182015b8281111561227657825182559160200191906001019061225b565b5b5090506122849190612288565b5090565b5b808211156122a1576000816000905550600101612289565b5090565b6000604051905090565b600080fd5b600080fd5b6000819050919050565b6122cc816122b9565b81146122d757600080fd5b50565b6000813590506122e9816122c3565b92915050565b600060208284031215612305576123046122af565b5b6000612313848285016122da565b91505092915050565b612325816122b9565b82525050565b6000602082019050612340600083018461231c565b92915050565b6000806040838503121561235d5761235c6122af565b5b600061236b858286016122da565b925050602061237c858286016122da565b9150509250929050565b60008115159050919050565b61239b81612386565b82525050565b60006020820190506123b66000830184612392565b92915050565b600073ffffffffffffffffffffffffffffffffffffffff82169050919050565b60006123e7826123bc565b9050919050565b6123f7816123dc565b811461240257600080fd5b50565b600081359050612414816123ee565b92915050565b6000602082840312156124305761242f6122af565b5b600061243e84828501612405565b91505092915050565b600080fd5b600080fd5b6000601f19601f8301169050919050565b7f4e487b7100000000000000000000000000000000000000000000000000000000600052604160045260246000fd5b61249a82612451565b810181811067ffffffffffffffff821117156124b9576124b8612462565b5b80604052505050565b60006124cc6122a5565b90506124d88282612491565b919050565b600067ffffffffffffffff8211156124f8576124f7612462565b5b61250182612451565b9050602081019050919050565b82818337600083830152505050565b600061253061252b846124dd565b6124c2565b90508281526020810184848401111561254c5761254b61244c565b5b61255784828561250e565b509392505050565b600082601f83011261257457612573612447565b5b813561258484826020860161251d565b91505092915050565b6000602082840312156125a3576125a26122af565b5b600082013567ffffffffffffffff8111156125c1576125c06122b4565b5b6125cd8482850161255f565b91505092915050565b6125df816123dc565b82525050565b60006020820190506125fa60008301846125d6565b92915050565b600081519050919050565b600082825260208201905092915050565b60005b8381101561263a57808201518184015260208101905061261f565b83811115612649576000848401525b50505050565b600061265a82612600565b612664818561260b565b935061267481856020860161261c565b61267d81612451565b840191505092915050565b600061ffff82169050919050565b61269f81612688565b82525050565b600060808201905081810360008301526126bf818761264f565b90506126ce602083018661231c565b6126db6040830185612696565b6126e86060830184612696565b95945050505050565b600081519050919050565b600082825260208201905092915050565b6000819050602082019050919050565b612726816122b9565b82525050565b6000612738838361271d565b60208301905092915050565b6000602082019050919050565b600061275c826126f1565b61276681856126fc565b93506127718361270d565b8060005b838110156127a2578151612789888261272c565b975061279483612744565b925050600181019050612775565b5085935050505092915050565b600060208201905081810360008301526127c98184612751565b905092915050565b6000806000606084860312156127ea576127e96122af565b5b60006127f886828701612405565b935050602061280986828701612405565b925050604061281a868287016122da565b9150509250925092565b600081519050612833816122c3565b92915050565b60006020828403121561284f5761284e6122af565b5b600061285d84828501612824565b91505092915050565b7f4e487b7100000000000000000000000000000000000000000000000000000000600052603260045260246000fd5b7f4e487b7100000000000000000000000000000000000000000000000000000000600052601160045260246000fd5b60006128cf826122b9565b91507fffffffffffffffffffffffffffffffffffffffffffffffffffffffffffffffff820361290157612900612895565b5b600182019050919050565b600060808201905061292160008301876125d6565b61292e60208301866125d6565b61293b604083018561231c565b61294860608301846125d6565b95945050505050565b61295a81612386565b811461296557600080fd5b50565b60008151905061297781612951565b92915050565b600060208284031215612993576129926122af565b5b60006129a184828501612968565b91505092915050565b7f4e487b7100000000000000000000000000000000000000000000000000000000600052601260045260246000fd5b60006129e4826122b9565b91506129ef836122b9565b9250826129ff576129fe6129aa565b5b828206905092915050565b6000612a15826122b9565b9150612a20836122b9565b925082821015612a3357612a32612895565b5b828203905092915050565b6000612a49826122b9565b9150612a54836122b9565b9250817fffffffffffffffffffffffffffffffffffffffffffffffffffffffffffffffff0483118215151615612a8d57612a8c612895565b5b828202905092915050565b6000612aa382612688565b915061ffff8203612ab757612ab6612895565b5b600182019050919050565b6000612acd82612688565b915060008203612ae057612adf612895565b5b600182039050919050565b7f4e487b7100000000000000000000000000000000000000000000000000000000600052602260045260246000fd5b60006002820490506001821680612b3257607f821691505b602082108103612b4557612b44612aeb565b5b50919050565b7f53656e642045544820746f2062757920736f6d6520746f6b656e730000000000600082015250565b6000612b81601b8361260b565b9150612b8c82612b4b565b602082019050919050565b60006020820190508181036000830152612bb081612b74565b9050919050565b7f56656e646f7220636f6e747261637420686173206e6f7420656e6f756768207460008201527f6f6b656e7320696e206974732062616c616e6365000000000000000000000000602082015250565b6000612c1360348361260b565b9150612c1e82612bb7565b604082019050919050565b60006020820190508181036000830152612c4281612c06565b9050919050565b7f4661696c656420746f207472616e7366657220746f6b656e20746f2075736572600082015250565b6000612c7f60208361260b565b9150612c8a82612c49565b602082019050919050565b60006020820190508181036000830152612cae81612c72565b9050919050565b6000606082019050612cca60008301866125d6565b612cd7602083018561231c565b612ce4604083018461231c565b949350505050565b600081905092915050565b6000612d0282612600565b612d0c8185612cec565b9350612d1c81856020860161261c565b80840191505092915050565b6000612d348284612cf7565b915081905092915050565b6000612d4a826122b9565b9150612d55836122b9565b9250827fffffffffffffffffffffffffffffffffffffffffffffffffffffffffffffffff03821115612d8a57612d89612895565b5b828201905092915050565b6000606082019050612daa600083018661231c565b8181036020830152612dbc818561264f565b9050612dcb604083018461231c565b949350505050565b6000819050919050565b612dee612de9826122b9565b612dd3565b82525050565b60008160601b9050919050565b6000612e0c82612df4565b9050919050565b6000612e1e82612e01565b9050919050565b612e36612e31826123dc565b612e13565b82525050565b6000612e488286612ddd565b602082019150612e588285612e25565b601482019150612e688284612ddd565b60208201915081905094935050505056fea26469706673582212206ede3631d9027fab718972513b243d820d30178c7f9eccc9b8bc45918ac94cc964736f6c634300080e003360806040523480156200001157600080fd5b50604051620012b3380380620012b3833981810160405281019062000037919062000172565b8160008190555080600160006101000a81548173ffffffffffffffffffffffffffffffffffffffff021916908373ffffffffffffffffffffffffffffffffffffffff160217905550600054600260008373ffffffffffffffffffffffffffffffffffffffff1673ffffffffffffffffffffffffffffffffffffffff168152602001908152602001600020819055505050620001b9565b600080fd5b6000819050919050565b620000e781620000d2565b8114620000f357600080fd5b50565b6000815190506200010781620000dc565b92915050565b600073ffffffffffffffffffffffffffffffffffffffff82169050919050565b60006200013a826200010d565b9050919050565b6200014c816200012d565b81146200015857600080fd5b50565b6000815190506200016c8162000141565b92915050565b600080604083850312156200018c576200018b620000cd565b5b60006200019c85828601620000f6565b9250506020620001af858286016200015b565b9150509250929050565b6110ea80620001c96000396000f3fe608060405234801561001057600080fd5b506004361061009e5760003560e01c8063313ce56711610066578063313ce5671461016f57806370a082311461018d57806395d89b41146101bd578063a9059cbb146101db578063dd62ed3e1461020b5761009e565b806306fdde03146100a3578063095ea7b3146100c157806318160ddd146100f1578063202a17fb1461010f57806323b872dd1461013f575b600080fd5b6100ab61023b565b6040516100b89190610d13565b60405180910390f35b6100db60048036038101906100d69190610dce565b610274565b6040516100e89190610e29565b60405180910390f35b6100f9610366565b6040516101069190610e53565b60405180910390f35b61012960048036038101906101249190610e6e565b61036f565b6040516101369190610e29565b60405180910390f35b61015960048036038101906101549190610ed5565b6105b2565b6040516101669190610e29565b60405180910390f35b610177610932565b6040516101849190610f44565b60405180910390f35b6101a760048036038101906101a29190610f5f565b610937565b6040516101b49190610e53565b60405180910390f35b6101c5610980565b6040516101d29190610d13565b60405180910390f35b6101f560048036038101906101f09190610dce565b6109b9565b6040516102029190610e29565b60405180910390f35b61022560048036038101906102209190610f8c565b610ba0565b6040516102329190610e53565b60405180910390f35b6040518060400160405280600981526020017f486f727365436f696e000000000000000000000000000000000000000000000081525081565b600081600360003373ffffffffffffffffffffffffffffffffffffffff1673ffffffffffffffffffffffffffffffffffffffff16815260200190815260200160002060008573ffffffffffffffffffffffffffffffffffffffff1673ffffffffffffffffffffffffffffffffffffffff168152602001908152602001600020819055508273ffffffffffffffffffffffffffffffffffffffff163373ffffffffffffffffffffffffffffffffffffffff167f8c5be1e5ebec7d5bd14f71427d1e84f3dd0314c0f7b2291e5b200ac8c7c3b925846040516103549190610e53565b60405180910390a36001905092915050565b60008054905090565b60008173ffffffffffffffffffffffffffffffffffffffff16600160009054906101000a900473ffffffffffffffffffffffffffffffffffffffff1673ffffffffffffffffffffffffffffffffffffffff16146103cb57600080fd5b600260008673ffffffffffffffffffffffffffffffffffffffff1673ffffffffffffffffffffffffffffffffffffffff1681526020019081526020016000205483111561041757600080fd5b61046983600260008873ffffffffffffffffffffffffffffffffffffffff1673ffffffffffffffffffffffffffffffffffffffff16815260200190815260200160002054610c2790919063ffffffff16565b600260008773ffffffffffffffffffffffffffffffffffffffff1673ffffffffffffffffffffffffffffffffffffffff168152602001908152602001600020819055506104fe83600260008773ffffffffffffffffffffffffffffffffffffffff1673ffffffffffffffffffffffffffffffffffffffff16815260200190815260200160002054610c4e90919063ffffffff16565b600260008673ffffffffffffffffffffffffffffffffffffffff1673ffffffffffffffffffffffffffffffffffffffff168152602001908152602001600020819055508373ffffffffffffffffffffffffffffffffffffffff168573ffffffffffffffffffffffffffffffffffffffff167fddf252ad1be2c89b69c2b068fc378daa952ba7f163c4a11628f55a4df523b3ef8560405161059e9190610e53565b60405180910390a360019050949350505050565b6000600260008573ffffffffffffffffffffffffffffffffffffffff1673ffffffffffffffffffffffffffffffffffffffff1681526020019081526020016000205482111561060057600080fd5b600360008573ffffffffffffffffffffffffffffffffffffffff1673ffffffffffffffffffffffffffffffffffffffff16815260200190815260200160002060003373ffffffffffffffffffffffffffffffffffffffff1673ffffffffffffffffffffffffffffffffffffffff1681526020019081526020016000205482111561068957600080fd5b6106db82600260008773ffffffffffffffffffffffffffffffffffffffff1673ffffffffffffffffffffffffffffffffffffffff16815260200190815260200160002054610c2790919063ffffffff16565b600260008673ffffffffffffffffffffffffffffffffffffffff1673ffffffffffffffffffffffffffffffffffffffff168152602001908152602001600020819055506107ad82600360008773ffffffffffffffffffffffffffffffffffffffff1673ffffffffffffffffffffffffffffffffffffffff16815260200190815260200160002060003373ffffffffffffffffffffffffffffffffffffffff1673ffffffffffffffffffffffffffffffffffffffff16815260200190815260200160002054610c2790919063ffffffff16565b600360008673ffffffffffffffffffffffffffffffffffffffff1673ffffffffffffffffffffffffffffffffffffffff16815260200190815260200160002060003373ffffffffffffffffffffffffffffffffffffffff1673ffffffffffffffffffffffffffffffffffffffff1681526020019081526020016000208190555061087f82600260008673ffffffffffffffffffffffffffffffffffffffff1673ffffffffffffffffffffffffffffffffffffffff16815260200190815260200160002054610c4e90919063ffffffff16565b600260008573ffffffffffffffffffffffffffffffffffffffff1673ffffffffffffffffffffffffffffffffffffffff168152602001908152602001600020819055508273ffffffffffffffffffffffffffffffffffffffff168473ffffffffffffffffffffffffffffffffffffffff167fddf252ad1be2c89b69c2b068fc378daa952ba7f163c4a11628f55a4df523b3ef8460405161091f9190610e53565b60405180910390a3600190509392505050565b600281565b6000600260008373ffffffffffffffffffffffffffffffffffffffff1673ffffffffffffffffffffffffffffffffffffffff168152602001908152602001600020549050919050565b6040518060400160405280600381526020017f485253000000000000000000000000000000000000000000000000000000000081525081565b6000600260003373ffffffffffffffffffffffffffffffffffffffff1673ffffffffffffffffffffffffffffffffffffffff16815260200190815260200160002054821115610a0757600080fd5b610a5982600260003373ffffffffffffffffffffffffffffffffffffffff1673ffffffffffffffffffffffffffffffffffffffff16815260200190815260200160002054610c2790919063ffffffff16565b600260003373ffffffffffffffffffffffffffffffffffffffff1673ffffffffffffffffffffffffffffffffffffffff16815260200190815260200160002081905550610aee82600260008673ffffffffffffffffffffffffffffffffffffffff1673ffffffffffffffffffffffffffffffffffffffff16815260200190815260200160002054610c4e90919063ffffffff16565b600260008573ffffffffffffffffffffffffffffffffffffffff1673ffffffffffffffffffffffffffffffffffffffff168152602001908152602001600020819055508273ffffffffffffffffffffffffffffffffffffffff163373ffffffffffffffffffffffffffffffffffffffff167fddf252ad1be2c89b69c2b068fc378daa952ba7f163c4a11628f55a4df523b3ef84604051610b8e9190610e53565b60405180910390a36001905092915050565b6000600360008473ffffffffffffffffffffffffffffffffffffffff1673ffffffffffffffffffffffffffffffffffffffff16815260200190815260200160002060008373ffffffffffffffffffffffffffffffffffffffff1673ffffffffffffffffffffffffffffffffffffffff16815260200190815260200160002054905092915050565b600082821115610c3a57610c39610fcc565b5b8183610c46919061102a565b905092915050565b6000808284610c5d919061105e565b905083811015610c7057610c6f610fcc565b5b8091505092915050565b600081519050919050565b600082825260208201905092915050565b60005b83811015610cb4578082015181840152602081019050610c99565b83811115610cc3576000848401525b50505050565b6000601f19601f8301169050919050565b6000610ce582610c7a565b610cef8185610c85565b9350610cff818560208601610c96565b610d0881610cc9565b840191505092915050565b60006020820190508181036000830152610d2d8184610cda565b905092915050565b600080fd5b600073ffffffffffffffffffffffffffffffffffffffff82169050919050565b6000610d6582610d3a565b9050919050565b610d7581610d5a565b8114610d8057600080fd5b50565b600081359050610d9281610d6c565b92915050565b6000819050919050565b610dab81610d98565b8114610db657600080fd5b50565b600081359050610dc881610da2565b92915050565b60008060408385031215610de557610de4610d35565b5b6000610df385828601610d83565b9250506020610e0485828601610db9565b9150509250929050565b60008115159050919050565b610e2381610e0e565b82525050565b6000602082019050610e3e6000830184610e1a565b92915050565b610e4d81610d98565b82525050565b6000602082019050610e686000830184610e44565b92915050565b60008060008060808587031215610e8857610e87610d35565b5b6000610e9687828801610d83565b9450506020610ea787828801610d83565b9350506040610eb887828801610db9565b9250506060610ec987828801610d83565b91505092959194509250565b600080600060608486031215610eee57610eed610d35565b5b6000610efc86828701610d83565b9350506020610f0d86828701610d83565b9250506040610f1e86828701610db9565b9150509250925092565b600060ff82169050919050565b610f3e81610f28565b82525050565b6000602082019050610f596000830184610f35565b92915050565b600060208284031215610f7557610f74610d35565b5b6000610f8384828501610d83565b91505092915050565b60008060408385031215610fa357610fa2610d35565b5b6000610fb185828601610d83565b9250506020610fc285828601610d83565b9150509250929050565b7f4e487b7100000000000000000000000000000000000000000000000000000000600052600160045260246000fd5b7f4e487b7100000000000000000000000000000000000000000000000000000000600052601160045260246000fd5b600061103582610d98565b915061104083610d98565b92508282101561105357611052610ffb565b5b828203905092915050565b600061106982610d98565b915061107483610d98565b9250827fffffffffffffffffffffffffffffffffffffffffffffffffffffffffffffffff038211156110a9576110a8610ffb565b5b82820190509291505056fea2646970667358221220d43ae011e92633283f698417f1306146e677586212a9f0c31b8486e19c0e1efd64736f6c634300080e0033",
  "immutableReferences": {},
  "source": "// SPDX-License-Identifier: GPL-3.0\npragma solidity >=0.7.0 <0.9.0;\n\nimport \"./horsehelper.sol\";\nimport \"./horsecoin.sol\";\n\ncontract HorseRacing is HorseHelper {\n\n    uint256 randNonce = 0;\n    HorseCoin token;\n    address contractOwner;\n\n    struct Race {\n        uint raceBet;\n        uint256 idx;\n        uint[] bets;\n        bool completed;\n        uint256 maxHorses;\n    }\n\n    struct Bet {\n        uint256 amount;\n        address owner;\n        uint256 horseId;\n    }\n\n    mapping(uint => Race) races;\n    mapping(uint256 => Bet) betsToId;\n    uint numberOfRaces = 0;\n    uint256 numberOfBets = 0;\n\n    // token price for ETH\n    uint256 public tokensPerEth = 100;\n\n    constructor() {\n        token = new HorseCoin(1e6,msg.sender);\n        contractOwner = msg.sender;\n    }\n\n    // Event that log buy operation\n    event BuyTokens(address buyer, uint256 amountOfETH, uint256 amountOfTokens);\n\n    event RaceCreated(uint256 raceId);\n\n    function newRace(uint _betAmount, uint256 _maxAmountOfHorses) public returns (uint256 raceId) {\n        \n        uint[] memory bets;\n        raceId = numberOfRaces;\n        races[raceId] = Race(_betAmount, 0, bets, false, _maxAmountOfHorses);\n\n        numberOfRaces++;\n        emit RaceCreated(raceId);\n        //races[raceId] = race;\n        /*\n        uint[] memory bets;\n        raceId = numberOfRaces;\n\n        Race storage race = races[raceId];\n        race.raceBet = 5;\n        race.idx = 0;\n        race.maxHorses = _maxAmountOfHorses;\n        race.bets = bets;\n        race.completed = false;\n\n        //races[raceId] = race;\n        numberOfRaces++;\n\n        return raceId;*/\n    }\n\n    function randMod(uint256 _modulus) internal returns (uint256) {\n        randNonce = randNonce + 1;\n        return\n            uint256(\n                keccak256(\n                    abi.encodePacked(block.timestamp, msg.sender, randNonce)\n                )\n            ) % _modulus;\n    }\n\n    function bet(uint256 raceId, uint256 _horseId) public payable {\n        Race memory currentRace = races[raceId];\n\n        require(currentRace.completed == false);\n        require(token.balanceOf(msg.sender) >= currentRace.raceBet);\n        require(currentRace.idx < currentRace.maxHorses);\n\n        betsToId[numberOfBets] = Bet(currentRace.raceBet, msg.sender, _horseId);\n        currentRace.bets[currentRace.idx] = numberOfBets;\n        currentRace.idx++;\n        numberOfBets++;\n\n        token.bankTransfer(msg.sender, contractOwner, currentRace.raceBet, contractOwner);\n        if(currentRace.idx == currentRace.maxHorses) {\n            simulateRace(raceId);\n        }\n    }\n\n    function simulateRace(uint256 raceId) public onlyOwner {\n        Race memory currentRace = races[raceId];\n\n        require(msg.sender == contractOwner);\n        require(token.balanceOf(msg.sender) >= currentRace.raceBet);\n        require(currentRace.idx == currentRace.maxHorses);\n\n        uint256 winnerId = betsToId[currentRace.bets[randMod(currentRace.bets.length)]].horseId;\n        horses[winnerId].winCount++;\n\n        for (uint256 i = 0; i < currentRace.maxHorses; i++) {\n            horses[betsToId[currentRace.bets[i]].horseId].lossCount++;\n        }\n        horses[winnerId].lossCount--;\n\n        // transferir el premio al ganador (chequear)\n\n        address payTo = horseToOwner[winnerId];\n        token.bankTransfer(contractOwner, payTo, currentRace.raceBet * currentRace.maxHorses, contractOwner);\n        currentRace.completed = true;\n    }\n\n    function mock_simulateRace(uint256 raceId, uint winner) public onlyOwner {\n        Race memory currentRace = races[raceId];\n\n        require(msg.sender == contractOwner);\n        require(token.balanceOf(msg.sender) >= currentRace.raceBet);\n        require(currentRace.idx == currentRace.maxHorses);\n\n        uint256 winnerId = betsToId[currentRace.bets[winner]].horseId;\n        horses[winnerId].winCount++;\n\n        for (uint256 i = 0; i < currentRace.maxHorses; i++) {\n            horses[betsToId[currentRace.bets[i]].horseId].lossCount++;\n        }\n        horses[winnerId].lossCount--;\n\n        // transferir el premio al ganador (chequear)\n\n        address payTo = horseToOwner[winnerId];\n        token.bankTransfer(contractOwner, payTo, currentRace.raceBet * currentRace.maxHorses, contractOwner);\n        currentRace.completed = true;\n    }\n/*\n    function mock_race(uint256 winner) external onlyOwner returns (uint256){\n        require(msg.sender == contractOwner);\n        require(token.balanceOf(contractOwner) >= totalBet);\n        require(idx == maxHorses);\n\n        uint256 winnerId = currentRace[winner];\n        horses[winnerId].winCount++;\n\n        for (uint256 i = 0; i < currentRace.length; i++) {\n            horses[currentRace[i]].lossCount++;\n        }\n        horses[winnerId].lossCount--;\n\n        // transferir el premio al ganador (chequear)\n        //address payable payTo = payable(address(horseToOwner[winnerId]));\n        //payTo.transfer(totalBet);\n\n        address payTo = horseToOwner[winnerId];\n        token.bankTransfer(contractOwner,payTo, totalBet,contractOwner);\n\n        //payable(horseToOwner[winnerId]).transfer(raceBet * currentRace.length);\n\n        // emitir evento de race para mostrarla en el front\n        emit Race(raceBet * currentRace.length, currentRace.length, currentRace, horseToOwner[winnerId], winnerId);\n        idx = 0;\n        totalBet = 0;\n    }*/\n\n    function isRaceCompleted(uint256 raceId) external view returns(bool) {\n        return races[raceId].completed;\n    }   \n\n    function totalBetIsEqualTo(uint256 raceId, uint expectedAmount) external view returns(bool) {\n        return ((races[raceId].raceBet * races[raceId].maxHorses) == expectedAmount);\n    }\n\n    function raceBetIsEqualTo(uint256 raceId, uint expectedAmount) external view returns(bool) {\n        return (races[raceId].raceBet == expectedAmount);\n    }\n\n    function raceLengthIsEqualTo(uint256 raceId, uint256 expectedLength) external view returns(bool) {\n        return races[raceId].idx == expectedLength;\n    }\n\n    function returnTotalBet(uint256 raceId) external view returns (uint256){\n        return (races[raceId].raceBet * races[raceId].idx);\n    }\n\n    function returnRaceBet(uint256 raceId) external view returns (uint256){\n        return races[raceId].raceBet;\n    }\n\n    function returnRaceLength(uint256 raceId) external view returns (uint256){\n        return races[raceId].idx;\n    }\n\n    function transferToken(address from, address to, uint256 tokens) external returns (uint256){\n        require(msg.sender == contractOwner);\n        token.bankTransfer(from, to, tokens, msg.sender);\n    }\n\n    function returnBalanceOf(address tokenOwner) external view returns (uint256){\n        return token.balanceOf(tokenOwner);\n    }\n\n    function buyTokens() public payable returns (uint256 tokenAmount) {\n        require(msg.value > 0, \"Send ETH to buy some tokens\");\n\n        uint256 amountToBuy = msg.value * tokensPerEth;\n\n        // check if the Vendor Contract has enough amount of tokens for the transaction\n        uint256 ourBalance = token.balanceOf(contractOwner);\n        require(ourBalance >= amountToBuy, \"Vendor contract has not enough tokens in its balance\");\n\n        // Transfer token to the msg.sender\n        (bool sent) = token.bankTransfer(contractOwner, msg.sender, amountToBuy, contractOwner);\n        require(sent, \"Failed to transfer token to user\");\n\n        // emit the event\n        emit BuyTokens(msg.sender, msg.value, amountToBuy);\n\n        return amountToBuy;\n  }\n\n}\n",
  "sourcePath": "/home/matias/Desktop/Facultad/Teoria del Lenguaje/Repositorio/TDL-SinoKa-La-Ferrigneta/contracts/racing/horseracing.sol",
  "compiler": {
    "name": "solc",
    "version": "0.8.14+commit.80d49f37.Emscripten.clang"
  },
  "schemaVersion": "3.4.7",
  "updatedAt": "2022-07-01T17:00:50.139Z",
  "devdoc": {
    "kind": "dev",
    "methods": {
      "isOwner()": {
        "returns": {
          "_0": "true if `msg.sender` is the owner of the contract."
        }
      },
      "owner()": {
        "returns": {
          "_0": "the address of the owner."
        }
      },
      "renounceOwnership()": {
        "details": "Allows the current owner to relinquish control of the contract."
      },
      "transferOwnership(address)": {
        "details": "Allows the current owner to transfer control of the contract to a newOwner.",
        "params": {
          "newOwner": "The address to transfer ownership to."
        }
      }
    },
    "version": 1
  },
  "userdoc": {
    "kind": "user",
    "methods": {
      "renounceOwnership()": {
        "notice": "Renouncing to ownership will leave the contract without an owner. It will not be possible to call the functions with the `onlyOwner` modifier anymore."
      }
    },
    "version": 1
  }
}