{
  "contractName": "HorseOwnership",
  "abi": [
    {
      "anonymous": false,
      "inputs": [
        {
          "indexed": true,
          "internalType": "address",
          "name": "_owner",
          "type": "address"
        },
        {
          "indexed": true,
          "internalType": "address",
          "name": "_approved",
          "type": "address"
        },
        {
          "indexed": true,
          "internalType": "uint256",
          "name": "_tokenId",
          "type": "uint256"
        }
      ],
      "name": "Approval",
      "type": "event"
    },
    {
      "anonymous": false,
      "inputs": [
        {
          "indexed": false,
          "internalType": "uint256",
          "name": "horseId",
          "type": "uint256"
        },
        {
          "indexed": false,
          "internalType": "string",
          "name": "name",
          "type": "string"
        },
        {
          "indexed": false,
          "internalType": "uint256",
          "name": "dna",
          "type": "uint256"
        }
      ],
      "name": "NewHorse",
      "type": "event"
    },
    {
      "anonymous": false,
      "inputs": [
        {
          "indexed": true,
          "internalType": "address",
          "name": "previousOwner",
          "type": "address"
        },
        {
          "indexed": true,
          "internalType": "address",
          "name": "newOwner",
          "type": "address"
        }
      ],
      "name": "OwnershipTransferred",
      "type": "event"
    },
    {
      "anonymous": false,
      "inputs": [
        {
          "indexed": true,
          "internalType": "address",
          "name": "_from",
          "type": "address"
        },
        {
          "indexed": true,
          "internalType": "address",
          "name": "_to",
          "type": "address"
        },
        {
          "indexed": true,
          "internalType": "uint256",
          "name": "_tokenId",
          "type": "uint256"
        }
      ],
      "name": "Transfer",
      "type": "event"
    },
    {
      "inputs": [
        {
          "internalType": "uint256",
          "name": "_horseId",
          "type": "uint256"
        }
      ],
      "name": "bet",
      "outputs": [],
      "stateMutability": "payable",
      "type": "function"
    },
    {
      "inputs": [
        {
          "internalType": "string",
          "name": "_name",
          "type": "string"
        }
      ],
      "name": "createRandomHorse",
      "outputs": [],
      "stateMutability": "nonpayable",
      "type": "function"
    },
    {
      "inputs": [
        {
          "internalType": "address",
          "name": "_owner",
          "type": "address"
        }
      ],
      "name": "getHorsesByOwner",
      "outputs": [
        {
          "internalType": "uint256[]",
          "name": "",
          "type": "uint256[]"
        }
      ],
      "stateMutability": "view",
      "type": "function"
    },
    {
      "inputs": [
        {
          "internalType": "uint256",
          "name": "",
          "type": "uint256"
        }
      ],
      "name": "horseToOwner",
      "outputs": [
        {
          "internalType": "address",
          "name": "",
          "type": "address"
        }
      ],
      "stateMutability": "view",
      "type": "function"
    },
    {
      "inputs": [
        {
          "internalType": "uint256",
          "name": "",
          "type": "uint256"
        }
      ],
      "name": "horses",
      "outputs": [
        {
          "internalType": "string",
          "name": "name",
          "type": "string"
        },
        {
          "internalType": "uint256",
          "name": "dna",
          "type": "uint256"
        },
        {
          "internalType": "uint16",
          "name": "winCount",
          "type": "uint16"
        },
        {
          "internalType": "uint16",
          "name": "lossCount",
          "type": "uint16"
        }
      ],
      "stateMutability": "view",
      "type": "function"
    },
    {
      "inputs": [],
      "name": "isOwner",
      "outputs": [
        {
          "internalType": "bool",
          "name": "",
          "type": "bool"
        }
      ],
      "stateMutability": "view",
      "type": "function"
    },
    {
      "inputs": [
        {
          "internalType": "uint256",
          "name": "_horseId",
          "type": "uint256"
        }
      ],
      "name": "mock_bet",
      "outputs": [],
      "stateMutability": "payable",
      "type": "function"
    },
    {
      "inputs": [],
      "name": "owner",
      "outputs": [
        {
          "internalType": "address",
          "name": "",
          "type": "address"
        }
      ],
      "stateMutability": "view",
      "type": "function"
    },
    {
      "inputs": [],
      "name": "renounceOwnership",
      "outputs": [],
      "stateMutability": "nonpayable",
      "type": "function"
    },
    {
      "inputs": [
        {
          "internalType": "uint256",
          "name": "_bet",
          "type": "uint256"
        }
      ],
      "name": "setBet",
      "outputs": [],
      "stateMutability": "nonpayable",
      "type": "function"
    },
    {
      "inputs": [
        {
          "internalType": "address",
          "name": "newOwner",
          "type": "address"
        }
      ],
      "name": "transferOwnership",
      "outputs": [],
      "stateMutability": "nonpayable",
      "type": "function"
    },
    {
      "inputs": [
        {
          "internalType": "address",
          "name": "_owner",
          "type": "address"
        }
      ],
      "name": "balanceOf",
      "outputs": [
        {
          "internalType": "uint256",
          "name": "",
          "type": "uint256"
        }
      ],
      "stateMutability": "view",
      "type": "function"
    },
    {
      "inputs": [
        {
          "internalType": "uint256",
          "name": "_tokenId",
          "type": "uint256"
        }
      ],
      "name": "ownerOf",
      "outputs": [
        {
          "internalType": "address",
          "name": "",
          "type": "address"
        }
      ],
      "stateMutability": "view",
      "type": "function"
    },
    {
      "inputs": [
        {
          "internalType": "address",
          "name": "_from",
          "type": "address"
        },
        {
          "internalType": "address",
          "name": "_to",
          "type": "address"
        },
        {
          "internalType": "uint256",
          "name": "_tokenId",
          "type": "uint256"
        }
      ],
      "name": "transferFrom",
      "outputs": [],
      "stateMutability": "payable",
      "type": "function"
    },
    {
      "inputs": [
        {
          "internalType": "address",
          "name": "_approved",
          "type": "address"
        },
        {
          "internalType": "uint256",
          "name": "_tokenId",
          "type": "uint256"
        }
      ],
      "name": "approve",
      "outputs": [],
      "stateMutability": "payable",
      "type": "function"
    }
  ],
  "bytecode": "0x60806040526010600155600154600a6200001a91906200028e565b600255662386f26fc100006006556000600b556000600c553480156200003f57600080fd5b50336000806101000a81548173ffffffffffffffffffffffffffffffffffffffff021916908373ffffffffffffffffffffffffffffffffffffffff16021790555060008054906101000a900473ffffffffffffffffffffffffffffffffffffffff1673ffffffffffffffffffffffffffffffffffffffff16600073ffffffffffffffffffffffffffffffffffffffff167f8be0079c531659141344cd1fd0a4f28419497f9722a3daafe3b4186f6b6457e060405160405180910390a3620002df565b7f4e487b7100000000000000000000000000000000000000000000000000000000600052601160045260246000fd5b60008160011c9050919050565b6000808291508390505b60018511156200018f5780860481111562000167576200016662000101565b5b6001851615620001775780820291505b8081029050620001878562000130565b945062000147565b94509492505050565b600082620001aa57600190506200027d565b81620001ba57600090506200027d565b8160018114620001d35760028114620001de5762000214565b60019150506200027d565b60ff841115620001f357620001f262000101565b5b8360020a9150848211156200020d576200020c62000101565b5b506200027d565b5060208310610133831016604e8410600b84101617156200024e5782820a90508381111562000248576200024762000101565b5b6200027d565b6200025d84848460016200013d565b9250905081840481111562000277576200027662000101565b5b81810290505b9392505050565b6000819050919050565b60006200029b8262000284565b9150620002a88362000284565b9250620002d77fffffffffffffffffffffffffffffffffffffffffffffffffffffffffffffffff848462000198565b905092915050565b61207280620002ef6000396000f3fe6080604052600436106100e85760003560e01c80638da5cb5b1161008a578063da677fa211610059578063da677fa2146102ce578063dd021d3f1461030b578063e8399cc614610327578063f2fde38b14610350576100e8565b80638da5cb5b146101fb5780638f32d59b146102265780638f8b5cde14610251578063c8b62d6414610291576100e8565b806370a08231116100c657806370a0823114610162578063715018a61461019f578063735e9c50146101b65780637365870b146101df576100e8565b8063095ea7b3146100ed57806323b872dd146101095780636352211e14610125575b600080fd5b61010760048036038101906101029190611762565b610379565b005b610123600480360381019061011e91906117a2565b610497565b005b34801561013157600080fd5b5061014c600480360381019061014791906117f5565b61057b565b6040516101599190611831565b60405180910390f35b34801561016e57600080fd5b506101896004803603810190610184919061184c565b6105b8565b6040516101969190611888565b60405180910390f35b3480156101ab57600080fd5b506101b4610601565b005b3480156101c257600080fd5b506101dd60048036038101906101d891906119e9565b6106d0565b005b6101f960048036038101906101f491906117f5565b610751565b005b34801561020757600080fd5b5061021061083d565b60405161021d9190611831565b60405180910390f35b34801561023257600080fd5b5061023b610866565b6040516102489190611a4d565b60405180910390f35b34801561025d57600080fd5b50610278600480360381019061027391906117f5565b6108bd565b6040516102889493929190611b0d565b60405180910390f35b34801561029d57600080fd5b506102b860048036038101906102b3919061184c565b6109a1565b6040516102c59190611c17565b60405180910390f35b3480156102da57600080fd5b506102f560048036038101906102f091906117f5565b610af3565b6040516103029190611831565b60405180910390f35b610325600480360381019061032091906117f5565b610b26565b005b34801561033357600080fd5b5061034e600480360381019061034991906117f5565b610c15565b005b34801561035c57600080fd5b506103776004803603810190610372919061184c565b610c30565b005b806004600082815260200190815260200160002060009054906101000a900473ffffffffffffffffffffffffffffffffffffffff1673ffffffffffffffffffffffffffffffffffffffff163373ffffffffffffffffffffffffffffffffffffffff16146103e557600080fd5b82600d600084815260200190815260200160002060006101000a81548173ffffffffffffffffffffffffffffffffffffffff021916908373ffffffffffffffffffffffffffffffffffffffff160217905550818373ffffffffffffffffffffffffffffffffffffffff163373ffffffffffffffffffffffffffffffffffffffff167f8c5be1e5ebec7d5bd14f71427d1e84f3dd0314c0f7b2291e5b200ac8c7c3b92560405160405180910390a4505050565b3373ffffffffffffffffffffffffffffffffffffffff166004600083815260200190815260200160002060009054906101000a900473ffffffffffffffffffffffffffffffffffffffff1673ffffffffffffffffffffffffffffffffffffffff16148061056257503373ffffffffffffffffffffffffffffffffffffffff16600d600083815260200190815260200160002060009054906101000a900473ffffffffffffffffffffffffffffffffffffffff1673ffffffffffffffffffffffffffffffffffffffff16145b61056b57600080fd5b610576838383610c4d565b505050565b60006004600083815260200190815260200160002060009054906101000a900473ffffffffffffffffffffffffffffffffffffffff169050919050565b6000600560008373ffffffffffffffffffffffffffffffffffffffff1673ffffffffffffffffffffffffffffffffffffffff168152602001908152602001600020549050919050565b610609610866565b61061257600080fd5b600073ffffffffffffffffffffffffffffffffffffffff1660008054906101000a900473ffffffffffffffffffffffffffffffffffffffff1673ffffffffffffffffffffffffffffffffffffffff167f8be0079c531659141344cd1fd0a4f28419497f9722a3daafe3b4186f6b6457e060405160405180910390a360008060006101000a81548173ffffffffffffffffffffffffffffffffffffffff021916908373ffffffffffffffffffffffffffffffffffffffff160217905550565b6000600560003373ffffffffffffffffffffffffffffffffffffffff1673ffffffffffffffffffffffffffffffffffffffff168152602001908152602001600020541461071c57600080fd5b600061072782610e2b565b90506064816107369190611c68565b816107419190611cc8565b905061074d8282610e70565b5050565b806004600082815260200190815260200160002060009054906101000a900473ffffffffffffffffffffffffffffffffffffffff1673ffffffffffffffffffffffffffffffffffffffff163373ffffffffffffffffffffffffffffffffffffffff16146107bd57600080fd5b60065434146107cb57600080fd5b600160046107d99190611cc8565b600b54106107e657600080fd5b816007600b54600481106107fd576107fc611cfc565b5b0181905550600b600081548092919061081590611d2b565b9190505550600160046108289190611cc8565b600b540361083957610838611073565b5b5050565b60008060009054906101000a900473ffffffffffffffffffffffffffffffffffffffff16905090565b60008060009054906101000a900473ffffffffffffffffffffffffffffffffffffffff1673ffffffffffffffffffffffffffffffffffffffff163373ffffffffffffffffffffffffffffffffffffffff1614905090565b600381815481106108cd57600080fd5b90600052602060002090600302016000915090508060000180546108f090611da2565b80601f016020809104026020016040519081016040528092919081815260200182805461091c90611da2565b80156109695780601f1061093e57610100808354040283529160200191610969565b820191906000526020600020905b81548152906001019060200180831161094c57829003601f168201915b5050505050908060010154908060020160009054906101000a900461ffff16908060020160029054906101000a900461ffff16905084565b60606000600560008473ffffffffffffffffffffffffffffffffffffffff1673ffffffffffffffffffffffffffffffffffffffff1681526020019081526020016000205467ffffffffffffffff8111156109fe576109fd6118be565b5b604051908082528060200260200182016040528015610a2c5781602001602082028036833780820191505090505b5090506000805b600380549050811015610ae8578473ffffffffffffffffffffffffffffffffffffffff166004600083815260200190815260200160002060009054906101000a900473ffffffffffffffffffffffffffffffffffffffff1673ffffffffffffffffffffffffffffffffffffffff1603610ad55780838381518110610aba57610ab9611cfc565b5b6020026020010181815250508180610ad190611d2b565b9250505b8080610ae090611d2b565b915050610a33565b508192505050919050565b60046020528060005260406000206000915054906101000a900473ffffffffffffffffffffffffffffffffffffffff1681565b806004600082815260200190815260200160002060009054906101000a900473ffffffffffffffffffffffffffffffffffffffff1673ffffffffffffffffffffffffffffffffffffffff163373ffffffffffffffffffffffffffffffffffffffff1614610b9257600080fd5b6006543414610ba057600080fd5b60016004610bae9190611cc8565b600b5410610bbb57600080fd5b816007600b5460048110610bd257610bd1611cfc565b5b0181905550600b6000815480929190610bea90611d2b565b919050555060016004610bfd9190611cc8565b600b5403610c1157610c10600b54611278565b5b5050565b610c1d610866565b610c2657600080fd5b8060068190555050565b610c38610866565b610c4157600080fd5b610c4a81611475565b50565b610ca06001600560008573ffffffffffffffffffffffffffffffffffffffff1673ffffffffffffffffffffffffffffffffffffffff1681526020019081526020016000205461156b90919063ffffffff16565b600560008473ffffffffffffffffffffffffffffffffffffffff1673ffffffffffffffffffffffffffffffffffffffff16815260200190815260200160002081905550610d366001600560003373ffffffffffffffffffffffffffffffffffffffff1673ffffffffffffffffffffffffffffffffffffffff1681526020019081526020016000205461159790919063ffffffff16565b600560003373ffffffffffffffffffffffffffffffffffffffff1673ffffffffffffffffffffffffffffffffffffffff16815260200190815260200160002081905550816004600083815260200190815260200160002060006101000a81548173ffffffffffffffffffffffffffffffffffffffff021916908373ffffffffffffffffffffffffffffffffffffffff160217905550808273ffffffffffffffffffffffffffffffffffffffff168473ffffffffffffffffffffffffffffffffffffffff167fddf252ad1be2c89b69c2b068fc378daa952ba7f163c4a11628f55a4df523b3ef60405160405180910390a4505050565b60008082604051602001610e3f9190611e0f565b6040516020818303038152906040528051906020012060001c905060025481610e689190611c68565b915050919050565b60036040518060800160405280848152602001838152602001600061ffff168152602001600061ffff1681525090806001815401808255809150506001900390600052602060002090600302016000909190919091506000820151816000019080519060200190610ee2929190611617565b506020820151816001015560408201518160020160006101000a81548161ffff021916908361ffff16021790555060608201518160020160026101000a81548161ffff021916908361ffff160217905550505060006001600380549050610f499190611cc8565b9050336004600083815260200190815260200160002060006101000a81548173ffffffffffffffffffffffffffffffffffffffff021916908373ffffffffffffffffffffffffffffffffffffffff160217905550610ff06001600560003373ffffffffffffffffffffffffffffffffffffffff1673ffffffffffffffffffffffffffffffffffffffff1681526020019081526020016000205461156b90919063ffffffff16565b600560003373ffffffffffffffffffffffffffffffffffffffff1673ffffffffffffffffffffffffffffffffffffffff168152602001908152602001600020819055507f7512d04afc710279875c44ad61b2e78695e3824abb3178ec09c9199e13314c5d81848460405161106693929190611e26565b60405180910390a1505050565b6000600761108160046115be565b6004811061109257611091611cfc565b5b01549050600381815481106110aa576110a9611cfc565b5b9060005260206000209060030201600201600081819054906101000a900461ffff16809291906110d990611e64565b91906101000a81548161ffff021916908361ffff1602179055505060005b60048110156111865760036007826004811061111657611115611cfc565b5b01548154811061112957611128611cfc565b5b9060005260206000209060030201600201600281819054906101000a900461ffff168092919061115890611e64565b91906101000a81548161ffff021916908361ffff16021790555050808061117e90611d2b565b9150506110f7565b506003818154811061119b5761119a611cfc565b5b9060005260206000209060030201600201600281819054906101000a900461ffff16809291906111ca90611e8e565b91906101000a81548161ffff021916908361ffff160217905550506004600082815260200190815260200160002060009054906101000a900473ffffffffffffffffffffffffffffffffffffffff1673ffffffffffffffffffffffffffffffffffffffff166108fc60046006546112419190611eb7565b9081150290604051600060405180830381858888f1935050505015801561126c573d6000803e3d6000fd5b506000600b8190555050565b60006007826004811061128e5761128d611cfc565b5b01549050600381815481106112a6576112a5611cfc565b5b9060005260206000209060030201600201600081819054906101000a900461ffff16809291906112d590611e64565b91906101000a81548161ffff021916908361ffff1602179055505060005b60048110156113825760036007826004811061131257611311611cfc565b5b01548154811061132557611324611cfc565b5b9060005260206000209060030201600201600281819054906101000a900461ffff168092919061135490611e64565b91906101000a81548161ffff021916908361ffff16021790555050808061137a90611d2b565b9150506112f3565b506003818154811061139757611396611cfc565b5b9060005260206000209060030201600201600281819054906101000a900461ffff16809291906113c690611e8e565b91906101000a81548161ffff021916908361ffff160217905550506004600082815260200190815260200160002060009054906101000a900473ffffffffffffffffffffffffffffffffffffffff1673ffffffffffffffffffffffffffffffffffffffff166108fc600460065461143d9190611eb7565b9081150290604051600060405180830381858888f19350505050158015611468573d6000803e3d6000fd5b506000600b819055505050565b600073ffffffffffffffffffffffffffffffffffffffff168173ffffffffffffffffffffffffffffffffffffffff16036114ae57600080fd5b8073ffffffffffffffffffffffffffffffffffffffff1660008054906101000a900473ffffffffffffffffffffffffffffffffffffffff1673ffffffffffffffffffffffffffffffffffffffff167f8be0079c531659141344cd1fd0a4f28419497f9722a3daafe3b4186f6b6457e060405160405180910390a3806000806101000a81548173ffffffffffffffffffffffffffffffffffffffff021916908373ffffffffffffffffffffffffffffffffffffffff16021790555050565b600080828461157a9190611f11565b90508381101561158d5761158c611f67565b5b8091505092915050565b6000828211156115aa576115a9611f67565b5b81836115b69190611cc8565b905092915050565b60006001600c546115cf9190611f11565b600c81905550814233600c546040516020016115ed93929190611fff565b6040516020818303038152906040528051906020012060001c6116109190611c68565b9050919050565b82805461162390611da2565b90600052602060002090601f016020900481019282611645576000855561168c565b82601f1061165e57805160ff191683800117855561168c565b8280016001018555821561168c579182015b8281111561168b578251825591602001919060010190611670565b5b509050611699919061169d565b5090565b5b808211156116b657600081600090555060010161169e565b5090565b6000604051905090565b600080fd5b600080fd5b600073ffffffffffffffffffffffffffffffffffffffff82169050919050565b60006116f9826116ce565b9050919050565b611709816116ee565b811461171457600080fd5b50565b60008135905061172681611700565b92915050565b6000819050919050565b61173f8161172c565b811461174a57600080fd5b50565b60008135905061175c81611736565b92915050565b60008060408385031215611779576117786116c4565b5b600061178785828601611717565b92505060206117988582860161174d565b9150509250929050565b6000806000606084860312156117bb576117ba6116c4565b5b60006117c986828701611717565b93505060206117da86828701611717565b92505060406117eb8682870161174d565b9150509250925092565b60006020828403121561180b5761180a6116c4565b5b60006118198482850161174d565b91505092915050565b61182b816116ee565b82525050565b60006020820190506118466000830184611822565b92915050565b600060208284031215611862576118616116c4565b5b600061187084828501611717565b91505092915050565b6118828161172c565b82525050565b600060208201905061189d6000830184611879565b92915050565b600080fd5b600080fd5b6000601f19601f8301169050919050565b7f4e487b7100000000000000000000000000000000000000000000000000000000600052604160045260246000fd5b6118f6826118ad565b810181811067ffffffffffffffff82111715611915576119146118be565b5b80604052505050565b60006119286116ba565b905061193482826118ed565b919050565b600067ffffffffffffffff821115611954576119536118be565b5b61195d826118ad565b9050602081019050919050565b82818337600083830152505050565b600061198c61198784611939565b61191e565b9050828152602081018484840111156119a8576119a76118a8565b5b6119b384828561196a565b509392505050565b600082601f8301126119d0576119cf6118a3565b5b81356119e0848260208601611979565b91505092915050565b6000602082840312156119ff576119fe6116c4565b5b600082013567ffffffffffffffff811115611a1d57611a1c6116c9565b5b611a29848285016119bb565b91505092915050565b60008115159050919050565b611a4781611a32565b82525050565b6000602082019050611a626000830184611a3e565b92915050565b600081519050919050565b600082825260208201905092915050565b60005b83811015611aa2578082015181840152602081019050611a87565b83811115611ab1576000848401525b50505050565b6000611ac282611a68565b611acc8185611a73565b9350611adc818560208601611a84565b611ae5816118ad565b840191505092915050565b600061ffff82169050919050565b611b0781611af0565b82525050565b60006080820190508181036000830152611b278187611ab7565b9050611b366020830186611879565b611b436040830185611afe565b611b506060830184611afe565b95945050505050565b600081519050919050565b600082825260208201905092915050565b6000819050602082019050919050565b611b8e8161172c565b82525050565b6000611ba08383611b85565b60208301905092915050565b6000602082019050919050565b6000611bc482611b59565b611bce8185611b64565b9350611bd983611b75565b8060005b83811015611c0a578151611bf18882611b94565b9750611bfc83611bac565b925050600181019050611bdd565b5085935050505092915050565b60006020820190508181036000830152611c318184611bb9565b905092915050565b7f4e487b7100000000000000000000000000000000000000000000000000000000600052601260045260246000fd5b6000611c738261172c565b9150611c7e8361172c565b925082611c8e57611c8d611c39565b5b828206905092915050565b7f4e487b7100000000000000000000000000000000000000000000000000000000600052601160045260246000fd5b6000611cd38261172c565b9150611cde8361172c565b925082821015611cf157611cf0611c99565b5b828203905092915050565b7f4e487b7100000000000000000000000000000000000000000000000000000000600052603260045260246000fd5b6000611d368261172c565b91507fffffffffffffffffffffffffffffffffffffffffffffffffffffffffffffffff8203611d6857611d67611c99565b5b600182019050919050565b7f4e487b7100000000000000000000000000000000000000000000000000000000600052602260045260246000fd5b60006002820490506001821680611dba57607f821691505b602082108103611dcd57611dcc611d73565b5b50919050565b600081905092915050565b6000611de982611a68565b611df38185611dd3565b9350611e03818560208601611a84565b80840191505092915050565b6000611e1b8284611dde565b915081905092915050565b6000606082019050611e3b6000830186611879565b8181036020830152611e4d8185611ab7565b9050611e5c6040830184611879565b949350505050565b6000611e6f82611af0565b915061ffff8203611e8357611e82611c99565b5b600182019050919050565b6000611e9982611af0565b915060008203611eac57611eab611c99565b5b600182039050919050565b6000611ec28261172c565b9150611ecd8361172c565b9250817fffffffffffffffffffffffffffffffffffffffffffffffffffffffffffffffff0483118215151615611f0657611f05611c99565b5b828202905092915050565b6000611f1c8261172c565b9150611f278361172c565b9250827fffffffffffffffffffffffffffffffffffffffffffffffffffffffffffffffff03821115611f5c57611f5b611c99565b5b828201905092915050565b7f4e487b7100000000000000000000000000000000000000000000000000000000600052600160045260246000fd5b6000819050919050565b611fb1611fac8261172c565b611f96565b82525050565b60008160601b9050919050565b6000611fcf82611fb7565b9050919050565b6000611fe182611fc4565b9050919050565b611ff9611ff4826116ee565b611fd6565b82525050565b600061200b8286611fa0565b60208201915061201b8285611fe8565b60148201915061202b8284611fa0565b60208201915081905094935050505056fea26469706673582212207fc3ea341b4da9575897ecf4d01dd0421e132f80fc9268d539303011e37563e864736f6c634300080e0033",
  "immutableReferences": {},
  "source": "// SPDX-License-Identifier: GPL-3.0\r\npragma solidity >=0.7.0 <0.9.0;\r\n\r\nimport \"./horseracing.sol\";\r\nimport \"./erc721.sol\";\r\nimport \"./safemath.sol\";\r\n\r\ncontract HorseOwnership is HorseRacing, ERC721 {\r\n    using SafeMath for uint256;\r\n\r\n    mapping(uint256 => address) horseApprovals;\r\n\r\n    function balanceOf(address _owner) external view override returns (uint256) {\r\n        return ownerHorseCount[_owner];\r\n    }\r\n\r\n    function ownerOf(uint256 _tokenId) external view override returns (address) {\r\n        return horseToOwner[_tokenId];\r\n    }\r\n\r\n    function _transfer(\r\n        address _from,\r\n        address _to,\r\n        uint256 _tokenId\r\n    ) private {\r\n        ownerHorseCount[_to] = ownerHorseCount[_to].add(1);\r\n        ownerHorseCount[msg.sender] = ownerHorseCount[msg.sender].sub(1);\r\n        horseToOwner[_tokenId] = _to;\r\n        emit Transfer(_from, _to, _tokenId);\r\n    }\r\n\r\n    function transferFrom(\r\n        address _from,\r\n        address _to,\r\n        uint256 _tokenId\r\n    ) external payable override {\r\n        require(\r\n            horseToOwner[_tokenId] == msg.sender ||\r\n                horseApprovals[_tokenId] == msg.sender\r\n        );\r\n        _transfer(_from, _to, _tokenId);\r\n    }\r\n\r\n    function approve(address _approved, uint256 _tokenId)\r\n        external\r\n        payable\r\n        override\r\n        onlyOwnerOf(_tokenId)\r\n    {\r\n        horseApprovals[_tokenId] = _approved;\r\n        emit Approval(msg.sender, _approved, _tokenId);\r\n    }\r\n}\r\n",
  "sourcePath": "C:\\Users\\Dante\\Documents\\GitHub\\TDL-SinoKa-La-Ferrigneta\\contracts\\racing\\horseownership.sol",
  "compiler": {
    "name": "solc",
    "version": "0.8.14+commit.80d49f37.Emscripten.clang"
  },
  "schemaVersion": "3.4.4",
  "updatedAt": "2022-06-24T20:57:22.209Z",
  "devdoc": {
    "kind": "dev",
    "methods": {
      "isOwner()": {
        "returns": {
          "_0": "true if `msg.sender` is the owner of the contract."
        }
      },
      "owner()": {
        "returns": {
          "_0": "the address of the owner."
        }
      },
      "renounceOwnership()": {
        "details": "Allows the current owner to relinquish control of the contract."
      },
      "transferOwnership(address)": {
        "details": "Allows the current owner to transfer control of the contract to a newOwner.",
        "params": {
          "newOwner": "The address to transfer ownership to."
        }
      }
    },
    "version": 1
  },
  "userdoc": {
    "kind": "user",
    "methods": {
      "renounceOwnership()": {
        "notice": "Renouncing to ownership will leave the contract without an owner. It will not be possible to call the functions with the `onlyOwner` modifier anymore."
      }
    },
    "version": 1
  }
}