{
  "contractName": "HorseHelper",
  "abi": [
    {
      "anonymous": false,
      "inputs": [
        {
          "indexed": false,
          "internalType": "uint256",
          "name": "horseId",
          "type": "uint256"
        },
        {
          "indexed": false,
          "internalType": "string",
          "name": "name",
          "type": "string"
        },
        {
          "indexed": false,
          "internalType": "uint256",
          "name": "dna",
          "type": "uint256"
        }
      ],
      "name": "NewHorse",
      "type": "event"
    },
    {
      "anonymous": false,
      "inputs": [
        {
          "indexed": true,
          "internalType": "address",
          "name": "previousOwner",
          "type": "address"
        },
        {
          "indexed": true,
          "internalType": "address",
          "name": "newOwner",
          "type": "address"
        }
      ],
      "name": "OwnershipTransferred",
      "type": "event"
    },
    {
      "inputs": [
        {
          "internalType": "string",
          "name": "_name",
          "type": "string"
        }
      ],
      "name": "createRandomHorse",
      "outputs": [],
      "stateMutability": "nonpayable",
      "type": "function"
    },
    {
      "inputs": [
        {
          "internalType": "uint256",
          "name": "",
          "type": "uint256"
        }
      ],
      "name": "horseToOwner",
      "outputs": [
        {
          "internalType": "address",
          "name": "",
          "type": "address"
        }
      ],
      "stateMutability": "view",
      "type": "function"
    },
    {
      "inputs": [
        {
          "internalType": "uint256",
          "name": "",
          "type": "uint256"
        }
      ],
      "name": "horses",
      "outputs": [
        {
          "internalType": "string",
          "name": "name",
          "type": "string"
        },
        {
          "internalType": "uint256",
          "name": "dna",
          "type": "uint256"
        },
        {
          "internalType": "uint16",
          "name": "winCount",
          "type": "uint16"
        },
        {
          "internalType": "uint16",
          "name": "lossCount",
          "type": "uint16"
        }
      ],
      "stateMutability": "view",
      "type": "function"
    },
    {
      "inputs": [],
      "name": "isOwner",
      "outputs": [
        {
          "internalType": "bool",
          "name": "",
          "type": "bool"
        }
      ],
      "stateMutability": "view",
      "type": "function"
    },
    {
      "inputs": [],
      "name": "owner",
      "outputs": [
        {
          "internalType": "address",
          "name": "",
          "type": "address"
        }
      ],
      "stateMutability": "view",
      "type": "function"
    },
    {
      "inputs": [],
      "name": "renounceOwnership",
      "outputs": [],
      "stateMutability": "nonpayable",
      "type": "function"
    },
    {
      "inputs": [
        {
          "internalType": "address",
          "name": "newOwner",
          "type": "address"
        }
      ],
      "name": "transferOwnership",
      "outputs": [],
      "stateMutability": "nonpayable",
      "type": "function"
    },
    {
      "inputs": [
        {
          "internalType": "address",
          "name": "_owner",
          "type": "address"
        }
      ],
      "name": "getHorsesByOwner",
      "outputs": [
        {
          "internalType": "uint256[]",
          "name": "",
          "type": "uint256[]"
        }
      ],
      "stateMutability": "view",
      "type": "function"
    }
  ],
  "bytecode": "0x60806040526010600155600154600a6200001a919062000279565b6002553480156200002a57600080fd5b50336000806101000a81548173ffffffffffffffffffffffffffffffffffffffff021916908373ffffffffffffffffffffffffffffffffffffffff16021790555060008054906101000a900473ffffffffffffffffffffffffffffffffffffffff1673ffffffffffffffffffffffffffffffffffffffff16600073ffffffffffffffffffffffffffffffffffffffff167f8be0079c531659141344cd1fd0a4f28419497f9722a3daafe3b4186f6b6457e060405160405180910390a3620002ca565b7f4e487b7100000000000000000000000000000000000000000000000000000000600052601160045260246000fd5b60008160011c9050919050565b6000808291508390505b60018511156200017a57808604811115620001525762000151620000ec565b5b6001851615620001625780820291505b808102905062000172856200011b565b945062000132565b94509492505050565b60008262000195576001905062000268565b81620001a5576000905062000268565b8160018114620001be5760028114620001c957620001ff565b600191505062000268565b60ff841115620001de57620001dd620000ec565b5b8360020a915084821115620001f857620001f7620000ec565b5b5062000268565b5060208310610133831016604e8410600b8410161715620002395782820a905083811115620002335762000232620000ec565b5b62000268565b62000248848484600162000128565b92509050818404811115620002625762000261620000ec565b5b81810290505b9392505050565b6000819050919050565b600062000286826200026f565b915062000293836200026f565b9250620002c27fffffffffffffffffffffffffffffffffffffffffffffffffffffffffffffffff848462000183565b905092915050565b6111b880620002da6000396000f3fe608060405234801561001057600080fd5b50600436106100885760003560e01c80638f8b5cde1161005b5780638f8b5cde146100ef578063c8b62d6414610122578063da677fa214610152578063f2fde38b1461018257610088565b8063715018a61461008d578063735e9c50146100975780638da5cb5b146100b35780638f32d59b146100d1575b600080fd5b61009561019e565b005b6100b160048036038101906100ac9190610b5b565b61026d565b005b6100bb6102ee565b6040516100c89190610be5565b60405180910390f35b6100d9610317565b6040516100e69190610c1b565b60405180910390f35b61010960048036038101906101049190610c6c565b61036e565b6040516101199493929190610d4d565b60405180910390f35b61013c60048036038101906101379190610dc5565b610452565b6040516101499190610eb0565b60405180910390f35b61016c60048036038101906101679190610c6c565b6105a4565b6040516101799190610be5565b60405180910390f35b61019c60048036038101906101979190610dc5565b6105d7565b005b6101a6610317565b6101af57600080fd5b600073ffffffffffffffffffffffffffffffffffffffff1660008054906101000a900473ffffffffffffffffffffffffffffffffffffffff1673ffffffffffffffffffffffffffffffffffffffff167f8be0079c531659141344cd1fd0a4f28419497f9722a3daafe3b4186f6b6457e060405160405180910390a360008060006101000a81548173ffffffffffffffffffffffffffffffffffffffff021916908373ffffffffffffffffffffffffffffffffffffffff160217905550565b6000600560003373ffffffffffffffffffffffffffffffffffffffff1673ffffffffffffffffffffffffffffffffffffffff16815260200190815260200160002054146102b957600080fd5b60006102c4826105f4565b90506064816102d39190610f01565b816102de9190610f61565b90506102ea8282610639565b5050565b60008060009054906101000a900473ffffffffffffffffffffffffffffffffffffffff16905090565b60008060009054906101000a900473ffffffffffffffffffffffffffffffffffffffff1673ffffffffffffffffffffffffffffffffffffffff163373ffffffffffffffffffffffffffffffffffffffff1614905090565b6003818154811061037e57600080fd5b90600052602060002090600302016000915090508060000180546103a190610fc4565b80601f01602080910402602001604051908101604052809291908181526020018280546103cd90610fc4565b801561041a5780601f106103ef5761010080835404028352916020019161041a565b820191906000526020600020905b8154815290600101906020018083116103fd57829003601f168201915b5050505050908060010154908060020160009054906101000a900461ffff16908060020160029054906101000a900461ffff16905084565b60606000600560008473ffffffffffffffffffffffffffffffffffffffff1673ffffffffffffffffffffffffffffffffffffffff1681526020019081526020016000205467ffffffffffffffff8111156104af576104ae610a30565b5b6040519080825280602002602001820160405280156104dd5781602001602082028036833780820191505090505b5090506000805b600380549050811015610599578473ffffffffffffffffffffffffffffffffffffffff166004600083815260200190815260200160002060009054906101000a900473ffffffffffffffffffffffffffffffffffffffff1673ffffffffffffffffffffffffffffffffffffffff1603610586578083838151811061056b5761056a610ff5565b5b602002602001018181525050818061058290611024565b9250505b808061059190611024565b9150506104e4565b508192505050919050565b60046020528060005260406000206000915054906101000a900473ffffffffffffffffffffffffffffffffffffffff1681565b6105df610317565b6105e857600080fd5b6105f18161083c565b50565b6000808260405160200161060891906110a8565b6040516020818303038152906040528051906020012060001c9050600254816106319190610f01565b915050919050565b60036040518060800160405280848152602001838152602001600061ffff168152602001600061ffff16815250908060018154018082558091505060019003906000526020600020906003020160009091909190915060008201518160000190805190602001906106ab92919061095e565b506020820151816001015560408201518160020160006101000a81548161ffff021916908361ffff16021790555060608201518160020160026101000a81548161ffff021916908361ffff1602179055505050600060016003805490506107129190610f61565b9050336004600083815260200190815260200160002060006101000a81548173ffffffffffffffffffffffffffffffffffffffff021916908373ffffffffffffffffffffffffffffffffffffffff1602179055506107b96001600560003373ffffffffffffffffffffffffffffffffffffffff1673ffffffffffffffffffffffffffffffffffffffff1681526020019081526020016000205461093290919063ffffffff16565b600560003373ffffffffffffffffffffffffffffffffffffffff1673ffffffffffffffffffffffffffffffffffffffff168152602001908152602001600020819055507f7512d04afc710279875c44ad61b2e78695e3824abb3178ec09c9199e13314c5d81848460405161082f939291906110bf565b60405180910390a1505050565b600073ffffffffffffffffffffffffffffffffffffffff168173ffffffffffffffffffffffffffffffffffffffff160361087557600080fd5b8073ffffffffffffffffffffffffffffffffffffffff1660008054906101000a900473ffffffffffffffffffffffffffffffffffffffff1673ffffffffffffffffffffffffffffffffffffffff167f8be0079c531659141344cd1fd0a4f28419497f9722a3daafe3b4186f6b6457e060405160405180910390a3806000806101000a81548173ffffffffffffffffffffffffffffffffffffffff021916908373ffffffffffffffffffffffffffffffffffffffff16021790555050565b600080828461094191906110fd565b90508381101561095457610953611153565b5b8091505092915050565b82805461096a90610fc4565b90600052602060002090601f01602090048101928261098c57600085556109d3565b82601f106109a557805160ff19168380011785556109d3565b828001600101855582156109d3579182015b828111156109d25782518255916020019190600101906109b7565b5b5090506109e091906109e4565b5090565b5b808211156109fd5760008160009055506001016109e5565b5090565b6000604051905090565b600080fd5b600080fd5b600080fd5b600080fd5b6000601f19601f8301169050919050565b7f4e487b7100000000000000000000000000000000000000000000000000000000600052604160045260246000fd5b610a6882610a1f565b810181811067ffffffffffffffff82111715610a8757610a86610a30565b5b80604052505050565b6000610a9a610a01565b9050610aa68282610a5f565b919050565b600067ffffffffffffffff821115610ac657610ac5610a30565b5b610acf82610a1f565b9050602081019050919050565b82818337600083830152505050565b6000610afe610af984610aab565b610a90565b905082815260208101848484011115610b1a57610b19610a1a565b5b610b25848285610adc565b509392505050565b600082601f830112610b4257610b41610a15565b5b8135610b52848260208601610aeb565b91505092915050565b600060208284031215610b7157610b70610a0b565b5b600082013567ffffffffffffffff811115610b8f57610b8e610a10565b5b610b9b84828501610b2d565b91505092915050565b600073ffffffffffffffffffffffffffffffffffffffff82169050919050565b6000610bcf82610ba4565b9050919050565b610bdf81610bc4565b82525050565b6000602082019050610bfa6000830184610bd6565b92915050565b60008115159050919050565b610c1581610c00565b82525050565b6000602082019050610c306000830184610c0c565b92915050565b6000819050919050565b610c4981610c36565b8114610c5457600080fd5b50565b600081359050610c6681610c40565b92915050565b600060208284031215610c8257610c81610a0b565b5b6000610c9084828501610c57565b91505092915050565b600081519050919050565b600082825260208201905092915050565b60005b83811015610cd3578082015181840152602081019050610cb8565b83811115610ce2576000848401525b50505050565b6000610cf382610c99565b610cfd8185610ca4565b9350610d0d818560208601610cb5565b610d1681610a1f565b840191505092915050565b610d2a81610c36565b82525050565b600061ffff82169050919050565b610d4781610d30565b82525050565b60006080820190508181036000830152610d678187610ce8565b9050610d766020830186610d21565b610d836040830185610d3e565b610d906060830184610d3e565b95945050505050565b610da281610bc4565b8114610dad57600080fd5b50565b600081359050610dbf81610d99565b92915050565b600060208284031215610ddb57610dda610a0b565b5b6000610de984828501610db0565b91505092915050565b600081519050919050565b600082825260208201905092915050565b6000819050602082019050919050565b610e2781610c36565b82525050565b6000610e398383610e1e565b60208301905092915050565b6000602082019050919050565b6000610e5d82610df2565b610e678185610dfd565b9350610e7283610e0e565b8060005b83811015610ea3578151610e8a8882610e2d565b9750610e9583610e45565b925050600181019050610e76565b5085935050505092915050565b60006020820190508181036000830152610eca8184610e52565b905092915050565b7f4e487b7100000000000000000000000000000000000000000000000000000000600052601260045260246000fd5b6000610f0c82610c36565b9150610f1783610c36565b925082610f2757610f26610ed2565b5b828206905092915050565b7f4e487b7100000000000000000000000000000000000000000000000000000000600052601160045260246000fd5b6000610f6c82610c36565b9150610f7783610c36565b925082821015610f8a57610f89610f32565b5b828203905092915050565b7f4e487b7100000000000000000000000000000000000000000000000000000000600052602260045260246000fd5b60006002820490506001821680610fdc57607f821691505b602082108103610fef57610fee610f95565b5b50919050565b7f4e487b7100000000000000000000000000000000000000000000000000000000600052603260045260246000fd5b600061102f82610c36565b91507fffffffffffffffffffffffffffffffffffffffffffffffffffffffffffffffff820361106157611060610f32565b5b600182019050919050565b600081905092915050565b600061108282610c99565b61108c818561106c565b935061109c818560208601610cb5565b80840191505092915050565b60006110b48284611077565b915081905092915050565b60006060820190506110d46000830186610d21565b81810360208301526110e68185610ce8565b90506110f56040830184610d21565b949350505050565b600061110882610c36565b915061111383610c36565b9250827fffffffffffffffffffffffffffffffffffffffffffffffffffffffffffffffff0382111561114857611147610f32565b5b828201905092915050565b7f4e487b7100000000000000000000000000000000000000000000000000000000600052600160045260246000fdfea264697066735822122047165a6e138da55e0707a4e14905939a57ae25a4f2a52e42f8b60e7796cb42b964736f6c634300080e0033",
  "immutableReferences": {},
  "source": "// SPDX-License-Identifier: GPL-3.0\npragma solidity >=0.7.0 <0.9.0;\n\nimport \"./horsefactory.sol\";\n\ncontract HorseHelper is HorseFactory {\n    modifier onlyOwnerOf(uint256 _horseId) {\n        require(msg.sender == horseToOwner[_horseId]);\n        _;\n    }\n    \n    function getHorsesByOwner(address _owner)\n        external\n        view\n        returns (uint256[] memory)\n    {\n        uint256[] memory result = new uint256[](ownerHorseCount[_owner]);\n        uint256 counter = 0;\n        for (uint256 i = 0; i < horses.length; i++) {\n            if (horseToOwner[i] == _owner) {\n                result[counter] = i;\n                counter++;\n            }\n        }\n        return result;\n    }\n\n}\n",
  "sourcePath": "/home/matias/Desktop/Facultad/Teoria del Lenguaje/Repo/TDL-SinoKa-La-Ferrigneta/contracts/racing/horsehelper.sol",
  "compiler": {
    "name": "solc",
    "version": "0.8.14+commit.80d49f37.Emscripten.clang"
  },
  "schemaVersion": "3.4.7",
  "updatedAt": "2022-06-17T22:37:52.287Z",
  "devdoc": {
    "kind": "dev",
    "methods": {
      "isOwner()": {
        "returns": {
          "_0": "true if `msg.sender` is the owner of the contract."
        }
      },
      "owner()": {
        "returns": {
          "_0": "the address of the owner."
        }
      },
      "renounceOwnership()": {
        "details": "Allows the current owner to relinquish control of the contract."
      },
      "transferOwnership(address)": {
        "details": "Allows the current owner to transfer control of the contract to a newOwner.",
        "params": {
          "newOwner": "The address to transfer ownership to."
        }
      }
    },
    "version": 1
  },
  "userdoc": {
    "kind": "user",
    "methods": {
      "renounceOwnership()": {
        "notice": "Renouncing to ownership will leave the contract without an owner. It will not be possible to call the functions with the `onlyOwner` modifier anymore."
      }
    },
    "version": 1
  }
}