{
  "contractName": "Vendor",
  "abi": [
    {
      "inputs": [
        {
          "internalType": "address",
          "name": "tokenAddress",
          "type": "address"
        }
      ],
      "stateMutability": "nonpayable",
      "type": "constructor"
    },
    {
      "anonymous": false,
      "inputs": [
        {
          "indexed": false,
          "internalType": "address",
          "name": "buyer",
          "type": "address"
        },
        {
          "indexed": false,
          "internalType": "uint256",
          "name": "amountOfETH",
          "type": "uint256"
        },
        {
          "indexed": false,
          "internalType": "uint256",
          "name": "amountOfTokens",
          "type": "uint256"
        }
      ],
      "name": "BuyTokens",
      "type": "event"
    },
    {
      "anonymous": false,
      "inputs": [
        {
          "indexed": true,
          "internalType": "address",
          "name": "previousOwner",
          "type": "address"
        },
        {
          "indexed": true,
          "internalType": "address",
          "name": "newOwner",
          "type": "address"
        }
      ],
      "name": "OwnershipTransferred",
      "type": "event"
    },
    {
      "inputs": [],
      "name": "isOwner",
      "outputs": [
        {
          "internalType": "bool",
          "name": "",
          "type": "bool"
        }
      ],
      "stateMutability": "view",
      "type": "function"
    },
    {
      "inputs": [],
      "name": "owner",
      "outputs": [
        {
          "internalType": "address",
          "name": "",
          "type": "address"
        }
      ],
      "stateMutability": "view",
      "type": "function"
    },
    {
      "inputs": [],
      "name": "renounceOwnership",
      "outputs": [],
      "stateMutability": "nonpayable",
      "type": "function"
    },
    {
      "inputs": [],
      "name": "tokensPerEth",
      "outputs": [
        {
          "internalType": "uint256",
          "name": "",
          "type": "uint256"
        }
      ],
      "stateMutability": "view",
      "type": "function"
    },
    {
      "inputs": [
        {
          "internalType": "address",
          "name": "newOwner",
          "type": "address"
        }
      ],
      "name": "transferOwnership",
      "outputs": [],
      "stateMutability": "nonpayable",
      "type": "function"
    },
    {
      "inputs": [],
      "name": "buyTokens",
      "outputs": [
        {
          "internalType": "uint256",
          "name": "tokenAmount",
          "type": "uint256"
        }
      ],
      "stateMutability": "payable",
      "type": "function"
    },
    {
      "inputs": [],
      "name": "withdraw",
      "outputs": [],
      "stateMutability": "nonpayable",
      "type": "function"
    }
  ],
  "bytecode": "0x6080604052606460025534801561001557600080fd5b50604051610eef380380610eef8339818101604052810190610037919061019c565b336000806101000a81548173ffffffffffffffffffffffffffffffffffffffff021916908373ffffffffffffffffffffffffffffffffffffffff16021790555060008054906101000a900473ffffffffffffffffffffffffffffffffffffffff1673ffffffffffffffffffffffffffffffffffffffff16600073ffffffffffffffffffffffffffffffffffffffff167f8be0079c531659141344cd1fd0a4f28419497f9722a3daafe3b4186f6b6457e060405160405180910390a380600160006101000a81548173ffffffffffffffffffffffffffffffffffffffff021916908373ffffffffffffffffffffffffffffffffffffffff160217905550506101c9565b600080fd5b600073ffffffffffffffffffffffffffffffffffffffff82169050919050565b60006101698261013e565b9050919050565b6101798161015e565b811461018457600080fd5b50565b60008151905061019681610170565b92915050565b6000602082840312156101b2576101b1610139565b5b60006101c084828501610187565b91505092915050565b610d17806101d86000396000f3fe6080604052600436106100705760003560e01c80638f32d59b1161004e5780638f32d59b146100ce578063cbdd69b5146100f9578063d0febe4c14610124578063f2fde38b1461014257610070565b80633ccfd60b14610075578063715018a61461008c5780638da5cb5b146100a3575b600080fd5b34801561008157600080fd5b5061008a61016b565b005b34801561009857600080fd5b506100a1610274565b005b3480156100af57600080fd5b506100b8610343565b6040516100c5919061077e565b60405180910390f35b3480156100da57600080fd5b506100e361036c565b6040516100f091906107b4565b60405180910390f35b34801561010557600080fd5b5061010e6103c3565b60405161011b91906107e8565b60405180910390f35b61012c6103c9565b60405161013991906107e8565b60405180910390f35b34801561014e57600080fd5b5061016960048036038101906101649190610834565b61062a565b005b61017361036c565b61017c57600080fd5b6000479050600081116101c4576040517f08c379a00000000000000000000000000000000000000000000000000000000081526004016101bb906108e4565b60405180910390fd5b60003373ffffffffffffffffffffffffffffffffffffffff16476040516101ea90610935565b60006040518083038185875af1925050503d8060008114610227576040519150601f19603f3d011682016040523d82523d6000602084013e61022c565b606091505b5050905080610270576040517f08c379a0000000000000000000000000000000000000000000000000000000008152600401610267906109bc565b60405180910390fd5b5050565b61027c61036c565b61028557600080fd5b600073ffffffffffffffffffffffffffffffffffffffff1660008054906101000a900473ffffffffffffffffffffffffffffffffffffffff1673ffffffffffffffffffffffffffffffffffffffff167f8be0079c531659141344cd1fd0a4f28419497f9722a3daafe3b4186f6b6457e060405160405180910390a360008060006101000a81548173ffffffffffffffffffffffffffffffffffffffff021916908373ffffffffffffffffffffffffffffffffffffffff160217905550565b60008060009054906101000a900473ffffffffffffffffffffffffffffffffffffffff16905090565b60008060009054906101000a900473ffffffffffffffffffffffffffffffffffffffff1673ffffffffffffffffffffffffffffffffffffffff163373ffffffffffffffffffffffffffffffffffffffff1614905090565b60025481565b600080341161040d576040517f08c379a000000000000000000000000000000000000000000000000000000000815260040161040490610a28565b60405180910390fd5b60006002543461041d9190610a77565b90506000600160009054906101000a900473ffffffffffffffffffffffffffffffffffffffff1673ffffffffffffffffffffffffffffffffffffffff166370a08231306040518263ffffffff1660e01b815260040161047c919061077e565b602060405180830381865afa158015610499573d6000803e3d6000fd5b505050506040513d601f19601f820116820180604052508101906104bd9190610afd565b905081811015610502576040517f08c379a00000000000000000000000000000000000000000000000000000000081526004016104f990610b9c565b60405180910390fd5b6000600160009054906101000a900473ffffffffffffffffffffffffffffffffffffffff1673ffffffffffffffffffffffffffffffffffffffff1663a9059cbb33856040518363ffffffff1660e01b8152600401610561929190610bbc565b6020604051808303816000875af1158015610580573d6000803e3d6000fd5b505050506040513d601f19601f820116820180604052508101906105a49190610c11565b9050806105e6576040517f08c379a00000000000000000000000000000000000000000000000000000000081526004016105dd90610c8a565b60405180910390fd5b7f0a37b72bb67eee30e09084cf386f8a17817c57f620c3ab95fb25d6a20356ec7733348560405161061993929190610caa565b60405180910390a182935050505090565b61063261036c565b61063b57600080fd5b61064481610647565b50565b600073ffffffffffffffffffffffffffffffffffffffff168173ffffffffffffffffffffffffffffffffffffffff160361068057600080fd5b8073ffffffffffffffffffffffffffffffffffffffff1660008054906101000a900473ffffffffffffffffffffffffffffffffffffffff1673ffffffffffffffffffffffffffffffffffffffff167f8be0079c531659141344cd1fd0a4f28419497f9722a3daafe3b4186f6b6457e060405160405180910390a3806000806101000a81548173ffffffffffffffffffffffffffffffffffffffff021916908373ffffffffffffffffffffffffffffffffffffffff16021790555050565b600073ffffffffffffffffffffffffffffffffffffffff82169050919050565b60006107688261073d565b9050919050565b6107788161075d565b82525050565b6000602082019050610793600083018461076f565b92915050565b60008115159050919050565b6107ae81610799565b82525050565b60006020820190506107c960008301846107a5565b92915050565b6000819050919050565b6107e2816107cf565b82525050565b60006020820190506107fd60008301846107d9565b92915050565b600080fd5b6108118161075d565b811461081c57600080fd5b50565b60008135905061082e81610808565b92915050565b60006020828403121561084a57610849610803565b5b60006108588482850161081f565b91505092915050565b600082825260208201905092915050565b7f4f776e657220686173206e6f742062616c616e636520746f207769746864726160008201527f7700000000000000000000000000000000000000000000000000000000000000602082015250565b60006108ce602183610861565b91506108d982610872565b604082019050919050565b600060208201905081810360008301526108fd816108c1565b9050919050565b600081905092915050565b50565b600061091f600083610904565b915061092a8261090f565b600082019050919050565b600061094082610912565b9150819050919050565b7f4661696c656420746f2073656e6420757365722062616c616e6365206261636b60008201527f20746f20746865206f776e657200000000000000000000000000000000000000602082015250565b60006109a6602d83610861565b91506109b18261094a565b604082019050919050565b600060208201905081810360008301526109d581610999565b9050919050565b7f53656e642045544820746f2062757920736f6d6520746f6b656e730000000000600082015250565b6000610a12601b83610861565b9150610a1d826109dc565b602082019050919050565b60006020820190508181036000830152610a4181610a05565b9050919050565b7f4e487b7100000000000000000000000000000000000000000000000000000000600052601160045260246000fd5b6000610a82826107cf565b9150610a8d836107cf565b9250817fffffffffffffffffffffffffffffffffffffffffffffffffffffffffffffffff0483118215151615610ac657610ac5610a48565b5b828202905092915050565b610ada816107cf565b8114610ae557600080fd5b50565b600081519050610af781610ad1565b92915050565b600060208284031215610b1357610b12610803565b5b6000610b2184828501610ae8565b91505092915050565b7f56656e646f7220636f6e747261637420686173206e6f7420656e6f756768207460008201527f6f6b656e7320696e206974732062616c616e6365000000000000000000000000602082015250565b6000610b86603483610861565b9150610b9182610b2a565b604082019050919050565b60006020820190508181036000830152610bb581610b79565b9050919050565b6000604082019050610bd1600083018561076f565b610bde60208301846107d9565b9392505050565b610bee81610799565b8114610bf957600080fd5b50565b600081519050610c0b81610be5565b92915050565b600060208284031215610c2757610c26610803565b5b6000610c3584828501610bfc565b91505092915050565b7f4661696c656420746f207472616e7366657220746f6b656e20746f2075736572600082015250565b6000610c74602083610861565b9150610c7f82610c3e565b602082019050919050565b60006020820190508181036000830152610ca381610c67565b9050919050565b6000606082019050610cbf600083018661076f565b610ccc60208301856107d9565b610cd960408301846107d9565b94935050505056fea26469706673582212201a489c4d260d61761a9b6611f7bf54a9560f5b30f4567a41272dbf1f65d1f30164736f6c634300080e0033",
  "immutableReferences": {},
  "source": "// SPDX-License-Identifier: MIT\r\npragma solidity ^0.8.4;\r\n\r\nimport \"./horsecoin.sol\";\r\nimport \"./ownable.sol\";\r\n\r\ncontract Vendor is Ownable {\r\n\r\n  // Our Token Contract\r\n  HorseCoin yourToken;\r\n\r\n  // token price for ETH\r\n  uint256 public tokensPerEth = 100;\r\n\r\n  // Event that log buy operation\r\n  event BuyTokens(address buyer, uint256 amountOfETH, uint256 amountOfTokens);\r\n\r\n  constructor(address tokenAddress) {\r\n    yourToken = HorseCoin(tokenAddress);\r\n  }\r\n\r\n  /**\r\n  * @notice Allow users to buy token for ETH\r\n  */\r\n  function buyTokens() public payable returns (uint256 tokenAmount) {\r\n    require(msg.value > 0, \"Send ETH to buy some tokens\");\r\n\r\n    uint256 amountToBuy = msg.value * tokensPerEth;\r\n\r\n    // check if the Vendor Contract has enough amount of tokens for the transaction\r\n    uint256 vendorBalance = yourToken.balanceOf(address(this));\r\n    require(vendorBalance >= amountToBuy, \"Vendor contract has not enough tokens in its balance\");\r\n\r\n    // Transfer token to the msg.sender\r\n    (bool sent) = yourToken.transfer(msg.sender, amountToBuy);\r\n    require(sent, \"Failed to transfer token to user\");\r\n\r\n    // emit the event\r\n    emit BuyTokens(msg.sender, msg.value, amountToBuy);\r\n\r\n    return amountToBuy;\r\n  }\r\n\r\n  /**\r\n  * @notice Allow the owner of the contract to withdraw ETH\r\n  */\r\n  function withdraw() public onlyOwner {\r\n    uint256 ownerBalance = address(this).balance;\r\n    require(ownerBalance > 0, \"Owner has not balance to withdraw\");\r\n\r\n    (bool sent,) = msg.sender.call{value: address(this).balance}(\"\");\r\n    require(sent, \"Failed to send user balance back to the owner\");\r\n  }\r\n}",
  "sourcePath": "C:\\Users\\Dante\\Documents\\GitHub\\TDL-SinoKa-La-Ferrigneta\\contracts\\racing\\vendor.sol",
  "compiler": {
    "name": "solc",
    "version": "0.8.14+commit.80d49f37.Emscripten.clang"
  },
  "schemaVersion": "3.4.4",
  "updatedAt": "2022-06-29T02:44:35.334Z",
  "devdoc": {
    "kind": "dev",
    "methods": {
      "isOwner()": {
        "returns": {
          "_0": "true if `msg.sender` is the owner of the contract."
        }
      },
      "owner()": {
        "returns": {
          "_0": "the address of the owner."
        }
      },
      "renounceOwnership()": {
        "details": "Allows the current owner to relinquish control of the contract."
      },
      "transferOwnership(address)": {
        "details": "Allows the current owner to transfer control of the contract to a newOwner.",
        "params": {
          "newOwner": "The address to transfer ownership to."
        }
      }
    },
    "version": 1
  },
  "userdoc": {
    "kind": "user",
    "methods": {
      "buyTokens()": {
        "notice": "Allow users to buy token for ETH"
      },
      "renounceOwnership()": {
        "notice": "Renouncing to ownership will leave the contract without an owner. It will not be possible to call the functions with the `onlyOwner` modifier anymore."
      },
      "withdraw()": {
        "notice": "Allow the owner of the contract to withdraw ETH"
      }
    },
    "version": 1
  }
}